:040000007CEF00F0A1
:10000800FACF01F0FBCF02F0E9CF03F0EACF04F01A
:10001800E1CF05F0E2CF06F0D9CF07F0DACF08F04C
:10002800F3CF09F0F4CF0AF0F6CF0BF0F7CF0CF0CE
:10003800F8CF0DF0F5CF0EF09EAA3DD0000E3A6E27
:10004800010E396EAECF0FF00F50240AD8A40DD090
:1000580044504310D8A409D0000E386E000E376EF5
:10006800000E486E010E476E26D047044810D8A4EB
:1000780022D00201000E3724D96E0201020E382068
:10008800DA6E0FC0DFFF374A382A000E466E010EBF
:10009800456E400E375C000E3858D8A00CD0000EC4
:1000A800386E000E376E000E486E000E476E000E5A
:1000B800446E010E436E0EC0F5FF0DC0F8FF0CC074
:1000C800F7FF0BC0F6FF0AC0F4FF09C0F3FF08C032
:1000D800DAFF07C0D9FF06C0E2FF05C0E1FF04C090
:1000E800EAFF03C0E9FF02C0FBFF01C0FAFF1100ED
:0400F80036EF11F0DE
:1010000000000000001F003B005A0078009700B568
:1010100000D400F300110130014E01000000001F58
:10102000003C005B0079009800B600D500F4001287
:101030000131014F014750524D4300524553455431
:10104000000D0020000078EC0CF03E50800A800F6C
:10105000280ED8B43D5CD8A009D0D80E3D243D6EF2
:10106000FF0E3E203E6E97EC0DF002D008EC0DF026
:101070003E50800A800F140ED8B43D5CD8A009D031
:10108000EC0E3D243D6EFF0E3E203E6E97EC0DF0C3
:1010900002D008EC0DF03E50800A800F0A0ED8B442
:1010A0003D5CD8A009D0F60E3D243D6EFF0E3E20DB
:1010B0003E6E97EC0DF002D008EC0DF008EC0DF050
:1010C0003E50800A800F080ED8B43D5CD8A009D0ED
:1010D000F80E3D243D6EFF0E3E203E6E97EC0DF067
:1010E00002D008EC0DF03E50800A800F040ED8B4F8
:1010F0003D5CD8A009D0FC0E3D243D6EFF0E3E2085
:101100003E6E97EC0DF002D008EC0DF03E50800AD8
:10111000800F020ED8B43D5CD8A009D0FE0E3D244D
:101120003D6EFF0E3E203E6E97EC0DF002D008ECB7
:101130000DF03E50800A800F010ED8B43D5CD8A05F
:1011400009D0FF0E3D243D6EFF0E3E203E6E97EC13
:101150000DF002D008EC0DF078EC0CF008EC0DF07E
:1011600008EC0DF03650800A800F140ED8B4355CB0
:10117000D8A009D0EC0E3524356EFF0E3620366E21
:1011800097EC0DF002D008EC0DF03650800A800F7D
:101190000A0ED8B4355CD8A009D0F60E3524356EC9
:1011A000FF0E3620366E97EC0DF002D008EC0DF0F5
:1011B00008EC0DF03650800A800F080ED8B4355C6C
:1011C000D8A009D0F80E3524356EFF0E3620366EC5
:1011D00097EC0DF002D008EC0DF03650800A800F2D
:1011E000040ED8B4355CD8A009D0FC0E3524356E79
:1011F000FF0E3620366E97EC0DF002D008EC0DF0A5
:101200003650800A800F020ED8B4355CD8A009D0C1
:10121000FE0E3524356EFF0E3620366E97EC0DF03F
:1012200002D008EC0DF03650800A800F010ED8B4C1
:10123000355CD8A009D0FF0E3524356EFF0E362060
:10124000366E97EC0DF002D008EC0DF078EC0CF057
:1012500008EC0DF008EC0DF02E50800A800F08E12C
:10126000000E2D5C05E1000E2C5C02E1C80E2B5C2B
:10127000D8A00FD0380E2B242B6EFF0E2C202C6EF6
:10128000FF0E2D202D6EFF0E2E202E6E97EC0DF0F2
:1012900002D008EC0DF02E50800A800F08E1000EFD
:1012A0002D5C05E1000E2C5C02E1640E2B5CD8A0E5
:1012B0000FD09C0E2B242B6EFF0E2C202C6EFF0EBD
:1012C0002D202D6EFF0E2E202E6E97EC0DF002D0ED
:1012D00008EC0DF008EC0DF02E50800A800F08E1AC
:1012E000000E2D5C05E1000E2C5C02E1500E2B5C23
:1012F000D8A00FD0B00E2B242B6EFF0E2C202C6EFE
:10130000FF0E2D202D6EFF0E2E202E6E97EC0DF071
:1013100002D008EC0DF02E50800A800F08E1000E7C
:101320002D5C05E1000E2C5C02E1280E2B5CD8A0A0
:101330000FD0D80E2B242B6EFF0E2C202C6EFF0E00
:101340002D202D6EFF0E2E202E6E97EC0DF002D06C
:1013500008EC0DF02E50800A800F08E1000E2D5C85
:1013600005E1000E2C5C02E1140E2B5CD8A00FD01E
:10137000EC0E2B242B6EFF0E2C202C6EFF0E2D203E
:101380002D6EFF0E2E202E6E97EC0DF002D008EC85
:101390000DF02E50800A800F08E1000E2D5C05E153
:1013A000000E2C5C02E10A0E2B5CD8A00FD0F60ECA
:1013B0002B242B6EFF0E2C202C6EFF0E2D202D6E5D
:1013C000FF0E2E202E6E97EC0DF002D008EC0DF0E3
:1013D00078EC0CF02E50800A800F08E1000E2D5C96
:1013E00005E1000E2C5C02E1080E2B5CD8A00FD0AA
:1013F000F80E2B242B6EFF0E2C202C6EFF0E2D20B2
:101400002D6EFF0E2E202E6E97EC0DF002D008EC04
:101410000DF02E50800A800F08E1000E2D5C05E1D2
:10142000000E2C5C02E1040E2B5CD8A00FD0FC0E49
:101430002B242B6EFF0E2C202C6EFF0E2D202D6EDC
:10144000FF0E2E202E6E97EC0DF002D008EC0DF062
:101450002E50800A800F08E1000E2D5C05E1000E81
:101460002C5C02E1020E2B5CD8A00FD0FE0E2B24C8
:101470002B6EFF0E2C202C6EFF0E2D202D6EFF0EDE
:101480002E202E6E97EC0DF002D008EC0DF02E50B1
:10149000800A800F08E1000E2D5C05E1000E2C5C37
:1014A00002E1010E2B5CD8A00FD0FF0E2B242B6E77
:1014B000FF0E2C202C6EFF0E2D202D6EFF0E2E20E9
:1014C0002E6E97EC0DF002D008EC0DF008EC0DF04C
:1014D00008EC0DF008EC0DF008EC0DF008EC0DF048
:1014E00078EC0CF008EC0DF008EC0DF008EC0DF0C9
:1014F00008EC0DF008EC0DF04C50800A800F500EF7
:10150000D8B44B5CD8A009D0B00E4B244B6EFF0E64
:101510004C204C6E97EC0DF002D008EC0DF04C50C6
:10152000800A800F280ED8B44B5CD8A009D0D80E02
:101530004B244B6EFF0E4C204C6E97EC0DF002D0FE
:1015400008EC0DF04C50800A800F140ED8B44B5CA0
:10155000D8A009D0EC0E4B244B6EFF0E4C204C6EE5
:1015600097EC0DF002D008EC0DF04C50800A800F83
:101570000A0ED8B44B5CD8A009D0F60E4B244B6EA3
:10158000FF0E4C204C6E97EC0DF002D008EC0DF0E5
:1015900078EC0CF04C50800A800F080ED8B44B5CED
:1015A000D8A009D0F80E4B244B6EFF0E4C204C6E89
:1015B00097EC0DF002D008EC0DF04C50800A800F33
:1015C000040ED8B44B5CD8A009D0FC0E4B244B6E53
:1015D000FF0E4C204C6E97EC0DF002D008EC0DF095
:1015E0004C50800A800F020ED8B44B5CD8A009D0B2
:1015F000FE0E4B244B6EFF0E4C204C6E97EC0DF004
:1016000002D008EC0DF04C50800A800F010ED8B4C7
:101610004B5CD8A009D0FF0E4B244B6EFF0E4C2024
:101620004C6E97EC0DF002D008EC0DF008EC0DF0CC
:101630003C503B10D8B403D097EC0DF002D008EC2E
:101640000DF008EC0DF008EC0DF008EC0DF008ECD6
:101650000DF078EC0CF0120006C1D7F007C1D8F0FD
:1016600008C1DAF009C1DBF00AC1E0F00BC1E1F01A
:1016700038C1D4F039C1D5F03AC1DDF03BC1DEF05C
:101680003CC1E3F03DC1E4F00101010E136E010124
:10169000000E126E07EC11F0100E136E430E126E58
:1016A00007EC11F00001000E176E0001D70E166E48
:1016B000AFEC0EF016C035F017C036F00001000E8A
:1016C000176E0001DA0E166EAFEC0EF016C03DF08C
:1016D00017C03EF00001000E176E0001E00E166EFE
:1016E000AFEC0EF016C0B8F017C0B9F00001000E54
:1016F000176E0001D40E166EAFEC0EF016C02FF070
:1017000017C030F00001000E176E0001DD0E166EDE
:10171000AFEC0EF016C041F017C042F00001000E11
:10172000176E0001E30E166EAFEC0EF016C04BF014
:1017300017C04CF0D00E4B240001BA6F070E4C209E
:101740000001BB6F41C01BF042C01CF02FC01DF058
:1017500030C01EF04BC01FF04CC020F068EC10F001
:101760001BC02BF01CC02CF0000E2CBEFF0E2D6EEB
:101770002E6E0001000E0001EC6F0001CC0E000186
:10178000EB6F2BC0EDF02CC0EEF02DC0EFF02EC0B3
:10179000F0F0000E0001F26F0A0E0001F16F5CEC38
:1017A0000FF00001000E136E0001CC0E126E07EC5C
:1017B00011F0100E136E410E126E07EC11F01200B4
:1017C000D3508F0B6009D36ED350FC0B0209D36E3C
:1017D000B60E0001F36FD00EE82EFED7F32FFCD724
:1017E00000D0B60E0001F36FD00EE82EFED7F32F17
:1017F000FCD700D0B60E0001F36FD00EE82EFED756
:10180000F32FFCD700D0000E466E000E456E000E82
:10181000446E000E436E000E3A6E000E396E61EC9F
:1018200011F00FEC12F09D8AF28CF28E8CEC11F01C
:10183000000E4A6E000E496E8B80C10E0001F36FE0
:10184000340EE82EFED7F32FFCD7000E3A6E000EB2
:10185000396E000E466E000E456E4A504910D8A4EF
:101860008B8443044410D8A42CD00201020E206EB5
:101870000201000E1F6E100E226E350E216EA1ECBD
:101880000FF020501F10D8B418D0000E346E010E87
:10189000336E0101010E116E0101000E106E020186
:1018A000020E136E0201000E126E000E156E780EFF
:1018B000146ED8EC10F02CEC0BF0000E446E000E01
:1018C000436E34503310D8A423EC08F0000E326E6F
:1018D000000E316E000E346E000E336E8B90C10E12
:1018E0000001F36F340EE82EFED7F32FFCD7A4D7F8
:1018F0008A90820E106EDE0EE82EFED7102EFCD7D8
:10190000820E106EDE0EE82EFED7102EFCD7820E51
:10191000106EDE0EE82EFED7102EFCD7820E106E53
:10192000DE0EE82EFED7102EFCD7820E106EDE0ED5
:10193000E82EFED7102EFCD7820E106EDE0EE82E9B
:10194000FED7102EFCD7820E106EDE0EE82EFED7CC
:10195000102EFCD7820E106EDE0EE82EFED7102E53
:10196000FCD7820E106EDE0EE82EFED7102EFCD7AE
:10197000820E106EDE0EE82EFED7102EFCD7820EE1
:10198000106EDE0EE82EFED7102EFCD7820E106EE3
:10199000DE0EE82EFED7102EFCD7820E106EDE0E65
:1019A000E82EFED7102EFCD7820E106EDE0EE82E2B
:1019B000FED7102EFCD7820E106EDE0EE82EFED75C
:1019C000102EFCD7820E106EDE0EE82EFED7102EE3
:1019D000FCD78A80820E106EDE0EE82EFED7102E07
:1019E000FCD7820E106EDE0EE82EFED7102EFCD72E
:1019F000820E106EDE0EE82EFED7102EFCD7820E61
:101A0000106EDE0EE82EFED7102EFCD78A90120044
:101A10008A90820E106EDE0EE82EFED7102EFCD7B6
:101A2000820E106EDE0EE82EFED7102EFCD7820E30
:101A3000106EDE0EE82EFED7102EFCD7820E106E32
:101A4000DE0EE82EFED7102EFCD78A80820E106E96
:101A5000DE0EE82EFED7102EFCD7820E106EDE0EA4
:101A6000E82EFED7102EFCD7820E106EDE0EE82E6A
:101A7000FED7102EFCD7820E106EDE0EE82EFED79B
:101A8000102EFCD7820E106EDE0EE82EFED7102E22
:101A9000FCD7820E106EDE0EE82EFED7102EFCD77D
:101AA000820E106EDE0EE82EFED7102EFCD7820EB0
:101AB000106EDE0EE82EFED7102EFCD7820E106EB2
:101AC000DE0EE82EFED7102EFCD7820E106EDE0E34
:101AD000E82EFED7102EFCD7820E106EDE0EE82EFA
:101AE000FED7102EFCD7820E106EDE0EE82EFED72B
:101AF000102EFCD7820E106EDE0EE82EFED7102EB2
:101B0000FCD7820E106EDE0EE82EFED7102EFCD70C
:101B1000820E106EDE0EE82EFED7102EFCD7820E3F
:101B2000106EDE0EE82EFED7102EFCD712008A9023
:101B3000820E106EDE0EE82EFED7102EFCD7820E1F
:101B4000106EDE0EE82EFED7102EFCD7820E106E21
:101B5000DE0EE82EFED7102EFCD7820E106EDE0EA3
:101B6000E82EFED7102EFCD7820E106EDE0EE82E69
:101B7000FED7102EFCD7820E106EDE0EE82EFED79A
:101B8000102EFCD7820E106EDE0EE82EFED7102E21
:101B9000FCD7820E106EDE0EE82EFED7102EFCD77C
:101BA000820E106EDE0EE82EFED7102EFCD7820EAF
:101BB000106EDE0EE82EFED7102EFCD78A80820E25
:101BC000106EDE0EE82EFED7102EFCD7820E106EA1
:101BD000DE0EE82EFED7102EFCD7820E106EDE0E23
:101BE000E82EFED7102EFCD7820E106EDE0EE82EE9
:101BF000FED7102EFCD7820E106EDE0EE82EFED71A
:101C0000102EFCD7820E106EDE0EE82EFED7102EA0
:101C1000FCD7820E106EDE0EE82EFED7102EFCD7FB
:101C2000820E106EDE0EE82EFED7102EFCD7820E2E
:101C3000106EDE0EE82EFED7102EFCD7820E106E30
:101C4000DE0EE82EFED7102EFCD712001FC0E6F0E5
:101C500020C0E7F021C0E8F022C0E9F0E6C010F0B3
:101C6000E7C011F0E8C012F0E9C013F023C014F08F
:101C700024C015F0000E15BEFF0E166E176E27EC71
:101C800010F010C0E6F011C0E7F012C0E8F013C089
:101C9000E9F01D4A1E2A0001E951E611E711E81199
:101CA000D8A4DCD71DC0D9FF1EC0DAFF000EDF6E3E
:101CB0001D06D8A01E061FC010F020C011F021C0C4
:101CC00012F022C013F023C014F024C015F0000E4F
:101CD00015BEFF0E166E176EA5EC10F010C025F0A5
:101CE00011C026F012C027F013C028F025500001C3
:101CF000EA6F1FC010F020C011F021C012F022C006
:101D000013F023C014F024C015F0000E15BEFF0E12
:101D1000166E176E27EC10F010C01FF011C020F0E7
:101D200012C021F013C022F0090E0001EA6503D0B1
:101D3000070E0001EA27300E0001EA271DC0D9FF77
:101D40001EC0DAFF0001EAC0DFFF1D06D8A01E0694
:101D500022501F1020102110D8B41200ACD702D08E
:101D6000164A172A16C0D9FF17C0DAFFDF50200A1B
:101D7000D8B4F6D716C0D9FF17C0DAFFDF50090A6A
:101D8000D8B4EED7000E1C6E000E1B6E000E1A6E3D
:101D90002D0E16C0D9FF17C0DAFFDF6202D01A2A53
:101DA00023D02B0E16C0D9FF17C0DAFFDF621ED07A
:101DB0001BD01BC010F01CC011F0000E136E0A0ED9
:101DC000126E28EC12F016C0D9FF17C0DAFFDF50F0
:101DD000186E196A1050182611501922D00E1824A6
:101DE0001B6EFF0E19201C6E164A172A16C0D9FF4B
:101DF00017C0DAFFDF504BEC12F0D8B0DAD71A5028
:101E0000D8B40DD01BC018F01CC019F0181E191E34
:101E1000184A192A18C016F019C017F012001BC072
:101E200016F01CC017F01200000E156E1150800A3B
:101E3000F36E800EF35C000ED8B4105CD8B006D000
:101E4000106C111ED8B0112A010E156E1350800AA5
:101E5000F36E800EF35C000ED8B4125CD8B004D0E0
:101E6000126C131ED8B0132A13501210D8B418D005
:101E7000010E146E04D0D89012361336142A13AE05
:101E8000FAD71250105C13501158D8A004D0125039
:101E9000105E1350115AD89013321232142EF1D70B
:101EA0001550D8B404D0106C111ED8B0112A10C02F
:101EB00010F011C011F012000001ECC02AF0000176
:101EC000EBC029F00001F051800A800F0BE1000EF9
:101ED0000001EF5D07E1000E0001EE5D03E1000E81
:101EE0000001ED5DD8B018D0EBC0D9FFECC0DAFF2F
:101EF0002D0EDF6E0001EB4BEC2B0001F01F0001FB
:101F0000EF1F0001EE1F0001ED6D000E0001EE233A
:101F10000001EF230001F0230001ECC01EF00001DE
:101F2000EBC01DF0EDC01FF0EEC020F0EFC021F0BF
:101F3000F0C022F0F1C023F0F2C024F026EC0EF045
:101F4000120032D020C017F01FC016F022C019F0C6
:101F500021C018F022C011F021C010F0B5EC11F032
:101F600010C01AF011C01BF0E4EC0FF0175016105F
:101F7000D8A405D020C020F01FC01FF01200010E11
:101F80001F24106E000E2020116E21C0F6FF22C00B
:101F9000F7FFF86A0800F550126E136AF5EC11F0BD
:101FA00010C01FF011C020F020501F10D8B407D06F
:101FB0001FC0D9FF20C0DAFFDF50D8A4C3D7000E5E
:101FC000206E000E1F6E120035D016C0D9FF17C04C
:101FD000DAFFDF50D8B410D018C0F6FF19C0F7FFF1
:101FE000F86A0800F5CF1CF016C0D9FF17C0DAFF59
:101FF000DF501C18D8B41AD018C0F6FF19C0F7FF6C
:10200000F86A0800F5501C6E1D6A1C1E1D1E1C4A35
:102010001D2A16C0D9FF17C0DAFFDF501E6E1E50F2
:102020001C24166E000E1D20176E1200164A172A69
:10203000184A192A1A06D8A01B061A28D8B41B2831
:10204000D8A4C3D7000E176E000E166E1200000E35
:10205000186E000E196E000E1A6E000E1B6E1750D1
:10206000141015101610D8B42AD0010E1C6E06D00C
:10207000D89014361536163617361C2A17AEF8D7F0
:10208000D890183619361A361B361450105C155075
:1020900011581650125817501358D8A009D0145080
:1020A000105E1550115A1650125A1750135A1880B4
:1020B000D89017321632153214321C2EE1D718C0C0
:1020C00010F019C011F01AC012F01BC013F012006A
:1020D0001FC016F020C017F0D5EC11F016C027F085
:1020E00017C028F027C03BF028C03CF01BC021F0EF
:1020F0001CC022F0D8902136223627C010F028C00C
:1021000011F0000E136E1A0E126E28EC12F0010E72
:10211000236E100E246E10502326115024222150BD
:1021200023262250242223C0F6FF24C0F7FFF86A9A
:102130000900F5CF25F00900F5CF26F01D50252424
:102140001B6E1E5026201C6E120017501410151006
:102150001610D8B424D0010E186E06D0D8901436BC
:10216000153616361736182A17AEF8D71450105CE5
:10217000155011581650125817501358D8A008D09F
:102180001450105E1550115A1650125A1750135A07
:10219000D8901732163215321432182EE7D710C0E5
:1021A00010F011C011F012C012F013C013F01200A1
:1021B00011C017F010C016F014D01406D8A01506E0
:1021C00012C0D9FF13C0DAFF124A132A16C0E1FF6A
:1021D00017C0E2FF164A172ADFCFE7FFE750D8B44F
:1021E0000DD015501410D8B409D0E7D716C0D9FFB8
:1021F00017C0DAFF000EDF6E164A172A1406D8A0A1
:1022000015061428D8B41528D8B41200EFD719D061
:1022100012C0F6FF13C0F7FF000EF86E0F0EF76442
:1022200003D00800F55005D0F6CFE1FFF7CFE2FF6D
:10223000E750146E1450106E116A5BEC12F0124AE3
:10224000132A12C0F6FF13C0F7FF000EF86E0F0E30
:10225000F76403D00800F55005D0F6CFE1FFF7CFC3
:10226000E2FFE7500009D8B41200D2D702EE00F026
:10227000780EEE6AE806FDE101EE00F0780EEE6AF7
:10228000E806FDE100EE60F0860EEE6AE806FDE18C
:1022900000EE2BF0260EEE6AE806FDE1760EF66EF5
:1022A000240EF76E000EF86E01EE78F010EE20F0BE
:1022B0000900F5CFEEFFE550E150FAE10001E0EF53
:1022C0000BF0F29E000E896E9290929292949286FA
:1022D0009288928A928C928E9390939293949396F2
:1022E0009398939A939C938E000E8B6E94909492F5
:1022F000949494869488948A948C948E000EC26EE2
:10230000000EC16E000E0F01386F000E0F01396F05
:10231000000E0F013A6F1200BE80BE92BE94BE96B0
:10232000BE98BE9ABE9CBE9E010EBB6EFC0E0F01F7
:1023300049173F0EBD16CF0EBD16B79EB790B79288
:10234000B794B796B798B79AB79CB698B69AB69C12
:10235000B69EBD50F00B0C09BD6EB980B982BA5063
:10236000FC0B0209BA6EBA84120011C015F010C03D
:1023700014F002D0144A152A14C0F6FF15C0F7FF56
:10238000F86A0800F5500009D8A4F4D710C012F07C
:1023900011C013F0121E131E124A132A14501224D5
:1023A000106E15501320116E1200000E1A6E030EDF
:1023B0001614186E000E1714196E19501810D8A4A0
:1023C00010D016C010F017C011F0000E136E640E7E
:1023D000126E14EC0FF011501010D8B402D0010E90
:1023E0001A6E1AC016F0176A1200125010C0D9FFE8
:1023F00011C0DAFFDF6205D011C011F010C010F07B
:10240000120010C0D9FF11C0DAFF104A112ADF50A4
:10241000D8A4EBD7000E116E000E106E1200AC8423
:10242000AC9CAC8AAB8EAB9CAB88330EAF6E000E0F
:10243000B06E9E9A820E156EDE0EE82EFED7152E19
:10244000FCD7100E136E3B0E126E07EC11F012004B
:1024500010501202F3CF14F0F4CF15F01050130205
:10246000F350152611501202F350152614C010F027
:1024700015C011F012006E6F6E65000000000000C4
:10248000000000000000000000000000000000004C
:10249000000000000000126E000E116E3A0E125C79
:1024A000D8B005D02F0E126402D0010E116E11C0EB
:1024B00010F010301200ACA2FED710C0ADFF120019
:020000040020DA
:08000000FFFFFFFFFFFFFFFF00
:020000040030CA
:0E000000FF281B3CFFB781FF0FC00FE00F4031
:00000001FF
