:020000040000FA
:0C000000000051EF02F0000000000000C2
:02002A000000D4
:04002C00800E9F6F34
:100030000ED81200C00E9F6F0AD812009FC0ADFFED
:10004000ACA220EF00F0D5D8D88090D81200D1D83B
:10005000D8908CD812008C8E959E8C8E0AEC01F074
:10006000806A959C959A95980E0EC16EFF0E9D6FB5
:10007000FF0E9E6FC6D89D2FFBD7200E9F6FD89086
:1000800055D8FF0E9D6FFF0E9E6FBBD89D2FFBD7DF
:10009000200E9F6FD8904AD8FF0E9E6FB2D8800E68
:1000A0009F6FD89043D8FF0E9E6FABD8000E9F6F06
:1000B000D8903CD8C00E9F6FD89038D8FF0E9E6F56
:1000C000A0D8000E9F6FD89031D8100E9F6FD89097
:1000D0002DD8FF0E9E6F95D85FEC01F05FEC01F01C
:1000E0005FEC01F05FEC01F0000E9F6FD8901ED81E
:1000F000200E9F6FD8901AD8FF0E9E6F82D85FECAB
:1001000001F05FEC01F05FEC01F05FEC01F05FECFF
:1001100001F05FEC01F05FEC01F04E0E9F6F69D8CB
:10012000D88024D8FF0E9E6F6CD81200D8A0839878
:10013000D8B08388839A959095929594959600006F
:100140000000838C9FAF83969FBF83869FAD83946F
:100150009FBD83849FAB83929FBB83829FA9839023
:100160009FB9838000000000839C1200DFDF9F3B6B
:10017000DDDF9F3B12009580958295849586D8A0FF
:100180008398D8B08388838A00000000838C0000A5
:1001900000000000000083A6A09F83B6A08F83A468
:1001A000A09D83B4A08D83A2A09B83B2A08B83A0CB
:1001B000A09983B0A089839C00000000000000008B
:1001C0000000000000000000838C0000000083A6F7
:1001D000A09783B6A08783A4A09583B4A08583A2AB
:1001E000A09383B2A08383A0A09183B0A081839CBD
:1001F000120072EC01F01200D890BDDFA0BFF9D759
:1002000012009E2FFED712009E6B00009E2F05EF5E
:1002100001F0120004EC01F004EC01F004EC01F038
:1002200004EC01F004EC01F004EC01F004EC01F04A
:1002300004EC01F004EC01F004EC01F004EC01F03A
:1002400004EC01F004EC01F004EC01F004EC01F02A
:1002500004EC01F004EC01F004EC01F004EC01F01A
:1002600004EC01F004EC01F004EC01F004EC01F00A
:1002700004EC01F004EC01F004EC01F004EC01F0FA
:1002800004EC01F004EC01F004EC01F004EC01F0EA
:1002900004EC01F004EC01F004EC01F004EC01F0DA
:1002A00004EC01F004EC01F004EC01F004EC01F0CA
:1002B00004EC01F004EC01F004EC01F0120004EC99
:1002C00001F004EC01F004EC01F004EC01F004ECAA
:1002D00001F004EC01F004EC01F004EC01F004EC9A
:1002E00001F0120004EC01F004EC01F004EC01F068
:1002F000120050524F44554354494F4E20544553D9
:100300005420202020434F4D504C45544520202060
:10031000202020202033322E3736384B487A2020B8
:1003200020202020544337342053656E736F722091
:100330002020205072657373205241342C20524289
:1003400030202020204D6963726F6368697020201F
:1003500020202050494344454D203220504C5553D5
:10036000202020202020202020202020202020208D
:100370002020202020202052532D323332202020D4
:10038000202020202020202020202020202020206D
:1003900020204641494C214641494C214641494C87
:1003A00021202020202020454550524F4D20202044
:1003B00020204D6963726F636869702054656D70A9
:1003C0003D203C2D2D2D2D204C454420546573742B
:1003D000202020506F74656E74696F6D657465724E
:1003E0002020202020566F6C746D6574657220206B
:1003F0002020202020202042757A7A65722020203B
:100400002020202054656D706572617475726520BE
:1004100020202020202020436C6F636B2020202090
:1004200020205241343D4E657874205242303D4E7A
:100430006F772020204D6963726F63686970202098
:1004400020202050494344454D203220504C5553E4
:1004500020205241343D536574205242303D4D6559
:100460006E755241343D202D2D3E2052424F3D208D
:100470002B2B202020524230203D204578697420CB
:100480002020566F6C7473203D20202020202020D7
:1004900020205072642E3D3132382044433D3132A9
:1004A00038202BEC00F0A40EAC6E190EAF6E900E3F
:1004B000AB6E9494800ECB6E800EBE6EBD9ABD98CE
:1004C000050ECA6E92889380500E806F7EEC04F009
:1004D000600E806F9FEC04F0C9EC04F0C9EC04F0EE
:1004E00080A870EF02F081A073EF02F0000E806F21
:1004F0007EEC04F0400E806F9FEC04F081A038D0B9
:1005000080B8FCD780A8FED781A0FED7100E806FE0
:100510007EEC04F0400E806F9FEC04F081A030EF81
:1005200003F080B88EEF02F080A8FED780A8FED737
:10053000200E806F7EEC04F0400E806F9FEC04F084
:1005400081A0E6D080B8FCD780A8FED781A0FED7D6
:10055000300E806F7EEC04F0400E806F9FEC04F054
:1005600081A06BD180B8FCD780A8FED7B9D7120084
:1005700081A0FED7C2800E0EC16E010EC06EA00E0D
:10058000806F7EEC04F0C282C2B2FED7C450946F7A
:10059000C30E976FB7EC05F0640E976FCCEC05F0C7
:1005A00094518D6F95518E6F49EC05F01AEC00F067
:1005B00091512EEC05F087519F6F1EEC00F02E0E2E
:1005C0009F6F1EEC00F092512EEC05F087519F6F4B
:1005D0001EEC00F093512EEC05F087519F6F1EEC3E
:1005E00000F0560E9F6F1EEC00F0200E9F6F1EEC69
:1005F00000F0200E9F6F1EEC00F0200E9F6F1EEC8F
:1006000000F0520E9F6F1EEC00F0420E9F6F1EEC2A
:1006100000F0300E9F6F1EEC00F03D0E9F6F1EEC41
:1006200000F0450E9F6F1EEC00F0780E9F6F1EECE1
:1006300000F0690E9F6F1EEC00F0740E9F6F1EECB1
:1006400000F0200E9F6F1EEC00F0200E9F6F1EEC3E
:1006500000F00D0EAD6EACA2FED781A055D793D79A
:1006600081A0FED7800ECB6E800EBE6E16EC00F021
:10067000B00E806F7EEC04F01AEC00F0800E806FFC
:100680009FEC04F00F0EBD6E81B005D0C0EC04F0FD
:10069000C0EC04F0CB2A850E9F6F27EC00F080A8F9
:1006A00012D081B0FCD7CB502EEC05F089519F6F52
:1006B0001EEC00F088519F6F1EEC00F087519F6F79
:1006C0001EEC00F0E1D780A8FED781B06DEF03F0FB
:1006D000C0EC04F0C0EC04F0BE2A8C0E9F6F27EC37
:1006E00000F080A812D081B0FCD7BE502EEC05F0EF
:1006F00089519F6F1EEC00F088519F6F1EEC00F037
:1007000087519F6F1EEC00F0E0D7000EBD6E0ED734
:1007100094869488280EC66EC78E050EC86E9E906D
:10072000CF6ACE6A010E856FC78CC580C5B0FED773
:100730009A0EC96E000EC5140008D8A4FBD7C7B422
:10074000FED7C5BCFED78551C96E000EC514000882
:10075000D8A4FBD7C7B4FED7C5BCFED7C582C5B2E7
:10076000FED79B0EC96E000EC5140008D8A4FBD797
:10077000C7B4FED7C5BCFED7C586C5B6FED7C9501F
:10078000C58AC588C5B8FED7C584C5B4FED785A1BE
:1007900007D0400B4008D8A4C5D7000E856FC4D73A
:1007A000866F2EEC05F016EC00F0540E9F6F1EECD9
:1007B00000F0650E9F6F1EEC00F06D0E9F6F1EEC3B
:1007C00000F0700E9F6F1EEC00F0200E9F6F1EEC6D
:1007D00000F03D0E9F6F1EEC00F0200E9F6F1EEC90
:1007E00000F089519F6F1EEC00F088519F6F1EEC46
:1007F00000F087519F6F1EEC00F0430E9F6F1EECC0
:1008000000F0200E9F6F1EEC00F0200E9F6F1EEC7C
:1008100000F0200E9F6F1EEC00F01AEC00F0900E1E
:10082000806F9FEC04F081A0FED7C0EC04F081A0A3
:100830008DD69EB07BEC05F075D781A0FED70F0E4C
:10084000CD6E8A6B8B6B8C6B9E90800ECF6ECE6A5A
:100850008A2B8A513C08D8A40ED08B2B8A6B8B51E3
:100860003C08D8A408D08C2B8B6B8C510D08D8A4D5
:1008700002D0010E8C6F8C512EEC05F016EC00F0BE
:1008800088519F6F1EEC00F087519F6F1EEC00F0A7
:100890003A0E9F6F1EEC00F08B512EEC05F0885144
:1008A0009F6F1EEC00F087519F6F1EEC00F03A0E18
:1008B0009F6F1EEC00F08A512EEC05F088519F6F5F
:1008C0001EEC00F087519F6F1EEC00F0200E9F6F12
:1008D0001EEC00F0200E9F6F1EEC00F0200E9F6FAC
:1008E0001EEC00F0700E806F9FEC04F080A85DD0CD
:1008F00081A0F6D59EA0FED7A7D7120016EC00F077
:10090000100E816F000EF86E030EF76EE20EF66E9B
:100910008051F626E86AF722F8220900F5CF9FF009
:100920001EEC00F0812FF9D70A0EAD6EACA296EF47
:1009300004F00D0EAD6EACA29BEF04F012001AECA9
:1009400000F0100E816F000EF86E030EF76EE20ECF
:10095000F66E8051F626E86AF722F8220900F5CFF4
:100960009FF01EEC00F0812FF9D70A0EAD6EACA2FD
:10097000B7EF04F00D0EAD6EACA2BCEF04F01200A8
:10098000FF0E826F830E836F822FFED7832FFCD7DB
:100990001200FF0E826F836F050E846F822FFED7C9
:1009A000832FFCD7842FFAD71200800E806F9FEC24
:1009B00004F080A8FED716EC00F081A0FED7C0ECB2
:1009C00004F081A001D006D08C2B8C510D08D8A446
:1009D00001D08C6B80A810D08C512EEC05F0885182
:1009E0009F6F1EEC00F087519F6F1EEC00F03A0ED7
:1009F0009F6F1EEC00F0DDD780A8FED716EC00F04C
:100A0000140E9F6F27EC00F0140E9F6F27EC00F080
:100A1000140E9F6F27EC00F081A0FED7C0EC04F00D
:100A200081A001D006D08B2B8B513C08D8A401D0DB
:100A30008B6B80A810D08B512EEC05F088519F6FE6
:100A40001EEC00F087519F6F1EEC00F03A0E9F6F76
:100A50001EEC00F0D1D780A8FED7F6D6896B886B44
:100A6000876F640E875DD8A003D0876F892BF9D775
:100A70000A0E875DD8A003D0876F882BF9D78951DC
:100A8000300A896F8851300A886F8751300A876F22
:100A9000000C8D390F0BF00F906F9027E20F916FC4
:100AA000320F936F8D510F0B912791279327E90FE9
:100AB000926F922792278E390F0B922793279237A6
:100AC0009337931F93378E510F0B93279037070E51
:100AD0008F6F0A0E92079327D8A0FCD79107922711
:100AE000D8A0FCD790079127D8A0FCD78F079027D4
:100AF000D8A0FCD7000CC580C5B07CEF05F0A00ED7
:100B0000C96E000EC5140008D8A4FBD7C7B4FED721
:100B1000C5BC88EF05F0000EC96E000EC5140008B4
:100B2000D8A4FBD7C7B4FED7C5BC94EF05F0050E1B
:100B3000C96E000EC5140008D8A4FBD7C7B4FED7F1
:100B4000C5BCA0EF05F08651C96E000EC5140008A3
:100B5000D8A4FBD7C7B4FED7C5BCACEF05F0C5849D
:0E0B6000C5B4B0EF05F09E90CE6ACF6A1200C9
:020B6E00956B85
:100B7000080E9C6F94519733D8B004D09C2FFBD7AC
:100B8000946B000CD89003D09733D8B0942794334B
:100B900095339C2FF9D71200996B080E9C6F9435F2
:100BA00099379751995FD8B002D09927D890943748
:100BB0009C2FF5D79B6B080E9C6F953599379B370B
:100BC0009751995F966B000ED8A0963D9B5FD8B069
:100BD00008D097519927966B000ED8B0963D9B2769
:0A0BE000D89095379C2FE9D712003A
:020000040030CA
:0100010002FC
:0100020018E5
:010003001EDE
:010005008179
:010006008178
:00000001FF
