:100000000A128A11FA2F00308A000408840A820733
:100010000034483465346C346C346F342C34203400
:1000200077346F3472346C346434213400344634A1
:1000300072346F346D342034303478344534453480
:0A0040002E346E346534743400343D
:100E7E0083160313981C3F2F7008831203139900D7
:100E8E0008008316031318151813981683120313EC
:100E9E0098171813181619308316031399008230F9
:100EAE00F100DD30F000F00B5A2FF10B5A2F5F2FAF
:100EBE000800F400740884000A128A1103200A1232
:100ECE008A11003803190800740884000A128A1166
:100EDE0003200A128A11F200F3017208F00073085F
:100EEE00F1000A128A113F270A128A110130F2000C
:100EFE007208F407612F8316031788018901831284
:100F0E000317870188018316031305108510051139
:100F1E008511051285120513851306108614061108
:100F2E0086110612861606178617071087100711E8
:100F3E0087110712871207138717081088100811D8
:100F4E0088110812881208138813091489140915B8
:100F5E0089150800831603130F088F3960388F0028
:100F6E000A128A1182270A128A110A128A11482736
:100F7E000A128A1101300A128A1160270A128A1186
:100F8E000A30F0000030F1000A128A113F270A12CF
:100F9E008A110630F7001330F600B130F500F50B6C
:100FAE00D62FF60BD62FF70BD62FDD2F0F300A12BA
:100FBE008A1160270A128A110A30F0000030F100FF
:100FCE000A128A113F270A128A110630F7001330CF
:100FDE00F600B130F500F50BF22FF60BF22FF70BF2
:100FEE00F22FF92FC12FF801F90183010A128A118C
:020FFE00B12F11
:04400E00F5E0FFFFDB
:00000001FF
