:08000000803102288731F52F41
:100EC6002000911177082400910020009119080054
:100ED600682F200091112400161520009119080092
:100EE6000130F2000030F300702F20009111240031
:100EF600161420009119842F0130F2000030F300FF
:100F06007C2F91110800200091115C302400910083
:100F160020009119932F0130F2000030F3008B2F3F
:100F260091110800873178278731873186278731E5
:100F36007F30F7000030F80087316327873187312B
:100F46006C27080023008C018D018E0121000C10F6
:100F56008C100C118C110C128C120D168D160D178F
:100F66008D130E108E100E118E110E128E120E177C
:100F76008E17080021001908873968389900190862
:100F8600FC3902389900951324001508F039083801
:100F960095009516093092008731A5278731823052
:100FA600FA00DD30F900F90BD62FFA0BD62F0032F6
:100FB60087319527873120000C108230FA00DD300A
:100FC600F900F90BE42FFA0BE42F003220000C1481
:100FD6008230FA00DD30F900F90BEF2FFA0BEF2F14
:100FE6000032DE2FF001F101F201F301F401F50107
:0A0FF600F6017E1020008731BD2FA8
:020000040001F9
:04000E00C4D9FFDD75
:00000001FF
