:08000000803102288731F62F40
:100BD40023009E1CEA2D70089A00080086315F26C7
:100BE400853124009614961C0800F52D20009111DF
:100BF400240096121616200091190800FD2D2000DD
:100C04009111700824009100200091190800062E0B
:100C14002400961596190C2E141C0E2E1108F000A3
:100C24007008FB0008002000911124001615200014
:100C34009119080001302000A0000030A100192EF5
:100C44002000911124009616161620009119080010
:100C540001302000A0000030A100272E20009111B7
:100C640024001614200091193D2E01302000A0000C
:100C74000030A100342E9111080020009111913010
:100C840024009100200091194D2E01302000A00075
:100C94000030A100442E91110800200091119030E1
:100CA40024009100200091195D2E01302000A00045
:100CB4000030A100542E91110800240014080439B6
:100CC400F0007008F10016081F39F0007008F200F7
:100CD40071087204031908005F2E200091119330EB
:100CE40024009100200091197D2E01302000A000E5
:100CF4000030A100742E911108002000911192304F
:100D040024009100200091198D2E01302000A000B4
:100D14000030A100842E9111080023008C018D0164
:100D24008E0121000C148C140C158C150C168C16C9
:100D34000D168D160D178D130E108E100E118E11AB
:100D44000E128E120E138E1322000E148E100E111C
:100D5400080023001E151E139E169D171D131D1635
:100D640019309B009C0120009112210091160B1751
:100D74008B174130F300EE30F200F20BBF2EF30B71
:100D8400BF2E00005230F0000030F1008531EA251A
:100D940086315330F0000030F1008531EA25863188
:100DA4005430F0000030F1008531EA2508002100BC
:100DB40019088739683899001908FC3902389900EC
:100DC400951386318F2686318631AB2686312400F1
:100DD4001508F03908389500951609309200093045
:100DE40092000330F8008A30F7005630F600F60B14
:100DF400F92EF70BF92EF80BF92E002F0330F8001B
:100E04008A30F7005630F600F60B062FF70B062F44
:100E1400F80B062F0D2F22000E140330F8008A3031
:100E2400F7005630F600F60B152FF70B152FF80BBD
:100E3400152F1C2F22000E108731322786310330E4
:100E4400F8008A30F7005630F600F60B272FF70B20
:100E5400272FF80B272F2E2F873194278631002F29
:100E640086313026873186314F2687310130F000B4
:100E74000030F100863101268731E130F000003086
:100E8400F1008631012687318631152687310330FA
:100E9400F5008A30F4005630F300F30B4F2FF40BB7
:100EA4004F2FF50B4F2F562F863130268731863141
:100EB4004F2687310030F0000030F10086310126E2
:100EC40087318531F025873186313F268731863158
:100ED4000A2687317B08F3007308FC008531F82566
:100EE400873186310A2687317B08F3007308FD00B9
:100EF4008631222687318631152687317C08F30016
:100F0400F4017308F0007408F1008531EA25873193
:100F14007D08F300F4017308F0007408F1008531D2
:100F2400EA25080086313026873186317F268731CD
:100F34000130F0000030F100863101268731E130C4
:100F4400F0000030F1008631012687318631152604
:100F540087310330F5008A30F4005630F300F30B88
:100F6400B12FF40BB12FF50BB12FB82F86313026EA
:100F7400873186317F2687310030F0000030F10060
:100F84008631012687318531F025873186316F26F8
:100F9400873186310A2687317B08F3007308FC0009
:100FA4008531F825873186310A2687317B08F3009D
:100FB4007308FD0086312226873186311526873154
:100FC4007C08F300F4017308F0007408F100853123
:100FD400EA2587317D08F300F4017308F0007408F2
:100FE400F1008531EA250800F901FA01FB01FC0151
:0C0FF400FD01A001A10120008631D92ED2
:020000040001F9
:04000E00C4D9FFDD75
:00000001FF
