:020000040000FA
:0C000000000030EF01F0000000000000E4
:06002A00800EA16F0ED84C
:100030001200C00EA16F0AD81200A1C0ADFFACA281
:100040001FEF00F0A5D8D88060D81200A1D8D890B2
:100050005CD81200806A9292929492960E0EC16EB3
:10006000FF0E9F6FFF0EA06F98D89F2FFBD7300E0B
:10007000A16FD8902AD8FF0E9F6FFF0EA06F8DD86A
:100080009F2FFBD7300EA16FD8901FD8FF0EA06F07
:1000900084D8180EA16FD89018D8FF0EA06F7DD805
:1000A000200EA16FD89011D873D8280EA16FCEDF83
:1000B0000D0EA16FCBDF010EA16FC8DF060EA16F81
:1000C000C5DF800EA16FC2DF1200D8A08096D8B025
:1000D0008086809495909592959495960000000066
:1000E0008082A1AF8396A1BF8386A1AD8394A1BD79
:1000F0008384A1AB8392A1BB8382A1A98390A1B980
:1001000083800000000080921200DFDFA13BDDDF72
:10011000A13B12009580958295849586D8A0809603
:10012000D8B080868084000000008082000000003B
:100130000000000083A6A29F83B6A28F83A4A29D85
:1001400083B4A28D83A2A29B83B2A28B83A0A29927
:1001500083B0A2898092000000000000000000002F
:1001600000000000000080820000000083A6A2972B
:1001700083B6A28783A4A29583B4A28583A2A29307
:1001800083B2A28383A0A29183B0A2818092120045
:10019000D890C0DFA2BFFCD71200A02FFED712005C
:1001A000202020566F6C746D6574657220202020AD
:1001B000202020202042757A7A657220202020207D
:1001C000202054656D706572617475726520202001
:1001D0002020202020436C6F636B202020202020D3
:1001E0005241343D4E657874205242303D4E6F7717
:1001F0002020204D6963726F636869702020202081
:100200002050494344454D203220504C5553202026
:100210005241343D536574205242303D4D656E75F8
:100220005241343D202D2D3E2052424F3D202B2B5C
:10023000202020524230203D204578697420202023
:10024000566F6C7473203D20202020202020202019
:100250005072642E3D3132382044433D31323820D3
:100260002AEC00F0A40EAC6E190EAF6E900EAB6EC1
:100270009494800ECB6E800EBE6EBD9ABD98050E16
:10028000CA6E92889380500E806F5DEC03F0600E12
:10029000806F7EEC03F0A8EC03F0A8EC03F080A8DC
:1002A0004FEF01F081A052EF01F0000E806F5DEC86
:1002B00003F0400E806F7EEC03F081A038D080B850
:1002C000FCD780A8FED781A0FED7100E806F5DEC12
:1002D00003F0400E806F7EEC03F081A00FEF02F080
:1002E00080B86DEF01F080A8FED780A8FED7200E61
:1002F000806F5DEC03F0400E806F7EEC03F081A018
:10030000E6D080B8FCD780A8FED781A0FED7300EFB
:10031000806F5DEC03F0400E806F7EEC03F081A0F7
:100320006BD180B8FCD780A8FED7B9D7120081A0C6
:10033000FED7410EC26E0E0EC16EA00E806F5DEC38
:1003400003F0C284C2B4A2EF01F0C450946FC30E94
:10035000996F97EC04F0640E996FACEC04F0945133
:100360008D6F95518E6F28EC04F019EC00F09151CF
:100370000DEC04F08751A16F1DEC00F02E0EA16F63
:100380001DEC00F092510DEC04F08751A16F1DECB3
:1003900000F093510DEC04F08751A16F1DEC00F0BB
:1003A000560EA16F1DEC00F0200EA16F1DEC00F0A9
:1003B000200EA16F1DEC00F0200EA16F1DEC00F0CF
:1003C000520EA16F1DEC00F0420EA16F1DEC00F06B
:1003D000300EA16F1DEC00F03D0EA16F1DEC00F082
:1003E000450EA16F1DEC00F0780EA16F1DEC00F022
:1003F000690EA16F1DEC00F0740EA16F1DEC00F0F2
:10040000200EA16F1DEC00F0200EA16F1DEC00F07E
:100410000D0EAD6EACA2FED781A055D792D781A0AC
:10042000FED7800ECB6E800EBE6E15EC00F0B00EC7
:10043000806F5DEC03F019EC00F0800E806F7EECB5
:1004400003F00F0EBD6E81B005D09FEC03F09FEC62
:1004500003F0CB2A850EA16F26EC00F080A812D005
:1004600081B0FCD7CB500DEC04F08951A16F1DEC8D
:1004700000F08851A16F1DEC00F08751A16F1DECB9
:1004800000F0E1D780A8FED781B04CEF02F09FECDE
:1004900003F09FEC03F0BE2A8C0EA16F26EC00F057
:1004A00080A812D081B0FCD7BE500DEC04F0895169
:1004B000A16F1DEC00F08851A16F1DEC00F0875179
:1004C000A16F1DEC00F0E0D7000EBD6E0ED7948634
:1004D0009488280EC66EC78E050EC86E9E90CF6A91
:1004E000CE6A010E856FC78CC580C5B0FED79A0E47
:1004F000C96E000EC5140008D8A4FBD7C7B4FED738
:10050000C5BCFED78551C96E000EC5140008D8A41D
:10051000FBD7C7B4FED7C5BCFED7C582C5B2FED7D0
:100520009B0EC96E000EC5140008D8A4FBD7C7B433
:10053000FED7C5BCFED7C586C5B6FED7C950C58A8D
:10054000C588C5B8FED7C584C5B4FED785A107D078
:10055000400B4008D8A4C5D7000E856FC4D7866F5E
:100560000DEC04F015EC00F0540EA16F1DEC00F042
:10057000650EA16F1DEC00F06D0EA16F1DEC00F07B
:10058000700EA16F1DEC00F0200EA16F1DEC00F0AD
:100590003D0EA16F1DEC00F0200EA16F1DEC00F0D0
:1005A0008951A16F1DEC00F08851A16F1DEC00F086
:1005B0008751A16F1DEC00F0430EA16F1DEC00F000
:1005C000200EA16F1DEC00F0200EA16F1DEC00F0BD
:1005D000200EA16F1DEC00F019EC00F0900E806F62
:1005E0007EEC03F081A0FED79FEC03F081A08DD6B6
:1005F0009EB05AEC04F075D781A0FED70F0ECD6ED9
:100600008A6B8B6B8C6B9E90800ECF6ECE6A8A2B22
:100610008A513C08D8A40ED08B2B8A6B8B513C0896
:10062000D8A408D08C2B8B6B8C510D08D8A402D089
:10063000010E8C6F8C510DEC04F015EC00F088511C
:10064000A16F1DEC00F08751A16F1DEC00F03A0E78
:10065000A16F1DEC00F08B510DEC04F08851A16FDF
:100660001DEC00F08751A16F1DEC00F03A0EA16F58
:100670001DEC00F08A510DEC04F08851A16F1DECC7
:1006800000F08751A16F1DEC00F0200EA16F1DEC52
:1006900000F0200EA16F1DEC00F0200EA16F1DECEC
:1006A00000F0700E806F7EEC03F080A85DD081A01A
:1006B000F6D59EA0FED7A7D7120015EC00F0100EBD
:1006C000816F000EF86E010EF76EA00EF66E80516F
:1006D000F626E86AF722F8220900F5CFA1F01DEC12
:1006E00000F0812FF9D70A0EAD6EACA275EF03F0C2
:1006F0000D0EAD6EACA27AEF03F0120019EC00F013
:10070000100E816F000EF86E010EF76EA00EF66EE1
:100710008051F626E86AF722F8220900F5CFA1F009
:100720001DEC00F0812FF9D70A0EAD6EACA296EF4A
:1007300003F00D0EAD6EACA29BEF03F01200FF0EA6
:10074000826F830E836F822FFED7832FFCD7120018
:10075000FF0E826F836F050E846F822FFED7832F6B
:10076000FCD7842FFAD71200800E806F7EEC03F046
:1007700080A8FED715EC00F081A0FED79FEC03F017
:1007800081A001D006D08C2B8C510D08D8A401D0AB
:100790008C6B80A810D08C510DEC04F08851A16FA7
:1007A0001DEC00F08751A16F1DEC00F03A0EA16F17
:1007B0001DEC00F0DDD780A8FED715EC00F0140E7C
:1007C000A16F26EC00F0140EA16F26EC00F0140EC1
:1007D000A16F26EC00F081A0FED79FEC03F081A072
:1007E00001D006D08B2B8B513C08D8A401D08B6B49
:1007F00080A810D08B510DEC04F08851A16F1DEC36
:1008000000F08751A16F1DEC00F03A0EA16F1DECB6
:1008100000F0D1D780A8FED7F6D6896B886B876F9A
:10082000640E875DD8A003D0876F892BF9D70A0E95
:10083000875DD8A003D0876F882BF9D78951300AFC
:10084000896F8851300A886F8751300A876F000C92
:100850008D390F0BF00F906F9027E20F916F320FD1
:10086000936F8D510F0B912791279327E90F926F6B
:10087000922792278E390F0B92279327923793371F
:10088000931F93378E510F0B93279037070E8F6F5F
:100890000A0E92079327D8A0FCD791079227D8A0D9
:1008A000FCD790079127D8A0FCD78F079027D8A016
:1008B000FCD7000CC580C5B05BEF04F0A00EC96E7C
:1008C000000EC5140008D8A4FBD7C7B4FED7C5BC1A
:1008D00067EF04F0000EC96E000EC5140008D8A41E
:1008E000FBD7C7B4FED7C5BC73EF04F0050EC96EC5
:1008F000000EC5140008D8A4FBD7C7B4FED7C5BCEA
:100900007FEF04F08651C96E000EC5140008D8A40C
:10091000FBD7C7B4FED7C5BC8BEF04F0C584C5B404
:0C0920008FEF04F09E90CE6ACF6A1200A8
:02092C000000C9
:02092E00956BC7
:10093000080E9E6F94519933D8B004D09E2FFBD7E8
:10094000946B000CD89003D09933D8B0942794338B
:1009500095339E2FF9D71200010E9965EDEF04F043
:10096000D890F76A9935F736DF0FF66E090EF72241
:100970000A0094C09CF095C09BF0F5509C03F4CF06
:1009800094F0F3CF95F00900F5509B03F4CF96F067
:100990009C03F3509627F4509523E86A94230A00A9
:1009A000F5509B03F3509627F4509523E86A94235F
:1009B00099519503F3CF97F0F4CF96F09403F35049
:1009C000962797519B5F96519C5B9CAF000C9507B7
:1009D000E86A945B99519B27000C9B6B000C00000C
:1009E00001000180565501403433AB2A9324012085
:1009F000721C9A1946175615B2134A121211011099
:100A0000100F390E7A0DCD0C310CA30B220BAB0A53
:100A10003E0AD9097C092509D40889084308010838
:100A2000C207880751071D07EC06BD069106670639
:100A30003F061906F505D205B10591057305560562
:100A40003A051F050605ED04D504BE04A804930469
:100A50007E046A045704450433042204110401048B
:100A6000F103E103D303C403B603A9039C038F037B
:100A7000820376036A035F03540349033E0334038E
:100A80002A03200316030D030403FB02F202E9020A
:100A9000E102D902D102C902C102BA02B202AB021A
:100AA000A4029D0296029002890283027D027702CF
:100AB00071026B0265025F025A0254024F024A023F
:100AC00044023F023A02350231022C02270223027D
:100AD0001E021A02150211020D020902050201028C
:100AE000FD01F901F501F101ED01EA01E601E20183
:100AF000DF01DB01D801D501D101CE01CB01C80155
:100B0000C401C101BE01BB01B801B501B301B0010F
:100B1000AD01AA01A701A501A2019F019D019A01B2
:100B200098019501930190018E018B018901870144
:100B30008401820180017E017B01790177017501C9
:100B4000730171016F016D016B016901670165013D
:100B5000630161015F015D015B01590158015601AB
:100B60005401520151014F014D014B014A0148010D
:100B7000470145014301420140013F013D013C0164
:100B80003A013901370136013401330131013001B5
:100B90002F012D012C012A012901280126012501FF
:100BA00024012201210120011F011D011C011B0143
:100BB0001A0119011701160115011401130112017F
:100BC00010010F010E010D010C010B010A010901B9
:100BD00008010701060105010401030102010101E9
:020000040030CA
:0E000000FFFCFCFEFFFEFAFFFFFFFFFFFFFF0D
:00000001FF
