:0400000047EF00F0D6
:10000800FACF19F0FBCF1AF0E9CF1BF0EACF1CF0BA
:10001800E1CF1DF0E2CF1EF0D9CF1FF0DACF20F0EC
:10002800F3CF21F0F4CF22F0F6CF23F0F7CF24F06E
:10003800F8CF25F0F5CF26F09EAA04D0AECF13F066
:10004800146A9E9AF2A402D08980F29426C0F5FF21
:1000580025C0F8FF24C0F7FF23C0F6FF22C0F4FF35
:1000680021C0F3FF20C0DAFF1FC0D9FF1EC0E2FF86
:100078001DC0E1FF1CC0EAFF1BC0E9FF1AC0FBFF5F
:1000880019C0FAFF110000EF03F0D3508F0B50098D
:10009800D36ED350FC0B0209D36EEAEC02F0D4EC19
:1000A80002F0000E166E000E156EB60E296ED00EFA
:1000B800E82EFED7292EFCD700D0B60E296ED00E1A
:1000C800E82EFED7292EFCD700D0B60E296ED00E0A
:1000D800E82EFED7292EFCD700D0B60E296ED00EFA
:1000E800E82EFED7292EFCD700D0B60E296ED00EEA
:1000F800E82EFED7292EFCD700D0B60E296ED00EDA
:10010800E82EFED7292EFCD700D0B60E296ED00EC9
:10011800E82EFED7292EFCD700D0B60E296ED00EB9
:10012800E82EFED7292EFCD700D0B60E296ED00EA9
:10013800E82EFED7292EFCD700D0B60E296ED00E99
:10014800E82EFED7292EFCD700D0B60E296ED00E89
:10015800E82EFED7292EFCD700D0B60E296ED00E79
:10016800E82EFED7292EFCD700D0000E286E1B0ED5
:10017800276E0BEC03F0000E286E5B0E276E0BEC5F
:1001880003F0000E286E320E276E0BEC03F0000E03
:10019800286E4A0E276E0BEC03F0B60E296ED00EB1
:1001A800E82EFED7292EFCD700D0B60E296ED00E29
:1001B800E82EFED7292EFCD700D0000E286E1B0E85
:1001C800276E0BEC03F0000E286E5B0E276E0BEC0F
:1001D80003F0000E286E340E276E0BEC03F0000EB1
:1001E800286E320E276E0BEC03F0000E286E6D0E93
:1001F800276E0BEC03F0000E286E1B0E276E0BEC1F
:1002080003F0000E286E5B0E276E0BEC03F0000E59
:10021800286E330E276E0BEC03F0000E286E300E9E
:10022800276E0BEC03F0000E286E6D0E276E0BEC9C
:1002380003F0820E296EDE0EE82EFED7292EFCD79B
:10024800000E286E200E276E0BEC03F0000E286EB1
:10025800300E276E0BEC03F0000E286E780E276E1A
:100268000BEC03F0000E286E450E276E0BEC03F026
:10027800000E286E450E276E0BEC03F0000E286E5C
:100288002E0E276E0BEC03F0000E286E6E0E276EF6
:100298000BEC03F0000E286E650E276E0BEC03F0D6
:1002A800000E286E740E276E0BEC03F0000E286EFD
:1002B800200E276E0BEC03F0000E286E540E276EEE
:1002C8000BEC03F0000E286E450E276E0BEC03F0C6
:1002D800000E286E520E276E0BEC03F0000E286EEF
:1002E8004D0E276E0BEC03F0000E286E490E276E9C
:1002F8000BEC03F0000E286E4E0E276E0BEC03F08D
:10030800000E286E410E276E0BEC03F0000E286ECF
:100318004C0E276E0BEC03F0000E286E200E276E95
:100328000BEC03F0000E286E760E276E0BEC03F034
:10033800000E286E300E276E0BEC03F0000E286EB0
:100348002E0E276E0BEC03F0000E286E300E276E73
:100358000BEC03F0000E286E320E276E0BEC03F048
:10036800000E166E000E156E1650800A800F310EA4
:10037800D8B4155CD8B009D0000E286E200E276EB0
:100388000BEC03F0154A162AEFD7000E286E430E21
:10039800276E0BEC03F0000E286E460E276E0BEC52
:1003A80003F0000E286E470E276E0BEC03F0000ECC
:1003B800286E3D0E276E0BEC03F0000E286E460EDD
:1003C800276E0BEC03F0000E286E330E276E0BEC35
:1003D80003F0000E286E0A0E276E0BEC03F0000ED9
:1003E800286E0D0E276E0BEC03F0000E286E1B0E08
:1003F800276E0BEC03F0000E286E5B0E276E0BECDD
:1004080003F0000E286E340E276E0BEC03F0000E7E
:10041800286E300E276E0BEC03F0000E286E6D0E62
:10042800276E0BEC03F0000E286E1B0E276E0BECEC
:1004380003F0000E286E5B0E276E0BEC03F0000E27
:10044800286E330E276E0BEC03F0000E286E320E6A
:10045800276E0BEC03F0000E286E6D0E276E0BEC6A
:1004680003F0820E296EDE0EE82EFED7292EFCD769
:100478000D0E296EFC0EE82EFED7292EFCD71790FC
:100488001792000E0C6E000E0B6E000E0E6E000E14
:100498000D6E296E000E186E29508B86080EE82EF8
:1004A800FED700F080A404D0000E0C6E010E0B6E77
:1004B80080A804D0000E0C6E020E0B6E80AA04D029
:1004C800000E0C6E030E0B6E0B040C10D8A403D098
:1004D800296E310E0FD00B50020A0C10D8A403D08D
:1004E800296E330E07D00B50030A0C10D8A406D07F
:1004F800296E350E186E2950178004D0000E166E1E
:10050800000E156E8B96080EE82EFED700F08B882D
:10051800FA0E00F0E82EFDD780A404D0000E0E6E6F
:10052800010E0D6E80A804D0000E0E6E020E0D6E28
:1005380080AA14D0000E0E6E030E0D6E0FD0000EA2
:10054800126E0B0E116E17821BD0296E570E02D039
:10055800296E520E186E2950178012D00DC029F03E
:100568000EC02AF02A50000AD8A40AD02950010A3D
:10057800D8B4E5D7030AD8B4E8D7010AD8B4E8D77D
:100588008B9817A005D018C027F0286A0BEC03F049
:10059800620E296E660EE82EFED7292EFCD768D784
:1005A800AC84AC9CAC8AAB8EAB9CAB88190EAF6E9E
:1005B8009E9A9D8AF28CF28EF29A410E276EEE0E6A
:1005C800E82EFED7272EFCD700D0120092909282F8
:1005D80092849288928A000E7E6E000E7F6E9398A7
:1005E800938A939C939E94809482948494969498EE
:1005F800949A948C948E120000EE01F0180EEE6A14
:10060800E806FDE1000EF86E000149EF00F0ACA22B
:08061800FED727C0ADFF120060
:020000040020DA
:08000000FFFFFFFFFFFFFFFF00
:020000040030CA
:0E000000FF281B1EFF8081FF03C003E00340AA
:00000001FF
