:08000000803102288731FB2F3B
:100EC00023009E1C602F730887317027F5002300D4
:100ED0001E087506FE3975069E0073089A00080004
:100EE000F200F101F2080319802F721C7B2F0130F0
:100EF000F0007008F1077236F0007008F200722FEF
:100F00007108013908007608840077088500000818
:100F10000038031908007608840077088500000867
:100F2000F800F9017808F3007908F40087316027A8
:100F300087310130F6070030F73D832F21000C1078
:100F40008C100C118C110C128C1223008C012100BE
:100F50000D128D160D138D1323008D0121000E101F
:100F60008E100E118E110E128E120E178E17230078
:100F70008E01080023001E151E179E169F111F16B6
:100F80009D171D131D1600309C0067309B009C01AF
:100F9000200091124130FB00EE30FA00FA0BCE2F08
:100FA000FB0BCE2F00001230F6008830F70087319F
:100FB0008327080021001908873968389900190823
:100FC000FC3902389900951387319E278731873184
:100FD000BA278731C230FD008030FC00FC0BEE2FB9
:100FE000FD0BEE2F00000030F6008830F70087314F
:100FF00083278731EA2FA0017E1020008731DA2F66
:101000005F345F34203461346334303467346434A3
:1010100020342D34203474346534733474342E34D5
:10102000203400345234453453344534543400347D
:020000040001F9
:04000E00E4CFFFDD5F
:00000001FF
