:04000000803119280A
:100008007E14803120007F08F200911E15282300FD
:100018001908F000F10170082000BE007108BF0047
:1000280091127208FF007E10090080311B28F90127
:10003800FA012030840000308500203082316E22A1
:100048007E1020008031282882313E228031823182
:100058001C22803122000E1182315B228031210066
:1000680019088739683899001908FC390238990045
:1000780025309D009E013B309F0000320032000079
:10008800253021009D0000320032000021009D141F
:100098009D184C281C08F700F80177082000B800C4
:1000A8007808B9003808AE003908AF00890D893BD7
:1000B8008909B000B1003108C3003008C2002F0818
:1000C800C1002E08C0000030C7000030C60029302B
:1000D800C500FD30C4008131EC2180312000430887
:1000E800B1004208B0004108AF004008AE0000303F
:1000F800C3000030C2000130C1000030C000310828
:10010800C7003008C6002F08C5002E08C40080317B
:10011800FC20803120004308B1004208B0004108AB
:10012800AF004008AE000030C3000030C20000300D
:10013800C1006430C0003108C7003008C6002F086D
:10014800C5002E08C4008031FC20803120004308FF
:10015800B5004208B4004108B3004008B2000030BE
:10016800C3000030C2000030C1006430C000310854
:10017800C7003008C6002F08C5002E08C40081310A
:100188007E21803120004308AD004208AC004108C0
:10019800AB004008AA000030C3000030C2000030A5
:1001A800C1002A30C0003108C7003008C6002F0837
:1001B800C5002E08C4008031FC2080312000410891
:1001C800FA01FA074008F901F9077908D83EF90059
:1001D800FF307A3DFA007A08F401F4077908F30150
:1001E800F30782317422803179082C009200442868
:1001F8002000C901C31F0D29C009C109C209C309CB
:10020800C00A0319C10A0319C20A0319C30AC9019A
:10021800C90AC71F1E29C409C509C609C709C40ACE
:100228000319C50A0319C60A0319C70A0130F300DE
:100238007308C9060030CD000030CC000030CB0078
:100248000030CA00430842044104400403196729E6
:10025800C801C80AC31B3C290130C035C10DC20DF5
:10026800C30D890B31290130F3007308C8072E2903
:100278000130CA35CB0DCC0DCD0D890B3D29430876
:100288004702031D512942084602031D512941080E
:100298004502031D512940084402031C5C294008FB
:1002A800C4024108C53B4208C63B4308C73B4A1441
:1002B8000130C336C20CC10CC00C890B5D2901305A
:1002C800C802031D3C29490803197529CA09CB0925
:1002D800CC09CD09CA0A0319CB0A0319CC0A031998
:1002E800CD0A4D08C3004C08C2004B08C1004A089B
:1002F800C0000800F5012000C71F8F29C409C509DF
:10030800C609C709C40A0319C50A0319C60A031985
:10031800C70AF501F50AC31F9C29C009C109C2090A
:10032800C309C00A0319C10A0319C20A0319C30A77
:1003380043084204410440040319D529F401F40A8E
:10034800C31BB2290130C035C10DC20DC30D890BC5
:10035800A7290130F3007308F407A42943084702CA
:10036800031DC02942084602031DC0294108450251
:10037800031DC02940084402031CCA294008C402BE
:100388004108C53B4208C63B4308C73B0130C3365A
:10039800C20CC10CC00C890BCB290130F402031D1F
:1003A800B22975080319E329C409C509C609C7098B
:1003B800C40A0319C50A0319C60A0319C70A470854
:1003C800C3004608C2004508C1004408C000080030
:1003D8000030F6000030F5000030F4000030F30083
:1003E8002000401CFF294408F3074508F43D46084F
:1003F800F53D4708F63D0130C435C50DC60DC70D9E
:10040800890B002A0130C336C20CC10CC00C890B01
:10041800072A4308420441044004031DF4297608CE
:10042800C3007508C2007408C1007308C000080042
:1004380023001E151E139E169D171D131D16003032
:100448009C0019309B009C012000911221009116FC
:100458000B178B174130F600EE30F500F50B322AFA
:10046800F60B322A00005230F3000030F4008231DB
:100478007422080021000C108C100C118C110C1225
:100488008C1223008C0121000D128D160D138D1373
:10049800083023008D0021000E108E100E118E11D1
:1004A8000E128E120E178E1723008E0108002C00D4
:1004B8009301AE3020009B002C00121392132000F1
:1004C80091101C08FC3901389C001C152C0093174E
:1004D80013170800640080010131890B6F2A00346A
:0C04E80023009E1C742A73089A00080070
:020000040001F9
:04000E00C4D9FFDD75
:00000001FF
