:020000040000FA
:040000000000E4D048
:020004000000FA
:0800080000001000806A926EF6
:100010008086B86AF00E926E816AFC0E936E8A6AD0
:10002000030E816E826AFF0E946E1200236A246AA8
:10003000256A266A1200050E206EFF0E216EFF0E45
:10004000226E222E21EF00F0212E1FEF00F0202E35
:100050001DEF00F01200A40EAC6E670EAF6E900E96
:10006000AB6E1200AA0EAD6EACA234EF00F012001F
:10007000870EAD6EACA23AEF00F01200860EAD6EA8
:10008000ACA240EF00F01200880EAD6EACA246EFBD
:1000900000F07F0EAD6EACA24BEF00F01200880EA8
:1000A000AD6EACA251EF00F0550EAD6EACA256EFA6
:1000B00000F01200880EAD6EACA25CEF00F03F0EB7
:1000C000AD6EACA261EF00F012008A0EAD6EACA274
:1000D00067EF00F03F0EAD6EACA26CEF00F01200C7
:1000E0008C0EAD6EACA272EF00F0550EAD6EACA2F0
:1000F00077EF00F012008C0EAD6EACA27DEF00F039
:100100003F0EAD6EACA282EF00F012008C0EAD6E11
:10011000ACA288EF00F07F0EAD6EACA28DEF00F0C8
:1001200012008C0EAD6EACA293EF00F0280EAD6EF7
:10013000ACA298EF00F08E0EAD6EACA29DEF00F079
:100140003F0EAD6EACA2A2EF00F012008E0EAD6EAF
:10015000ACA2A8EF00F07F0EAD6EACA2ADEF00F048
:10016000120027C0ADFFACA2B3EF00F012008082F6
:1001700038EC00F065EC00F01BEC00F01BEC00F03C
:100180001BEC00F01BEC00F01BEC00F01BEC00F093
:100190001BEC00F01BEC00F01BEC00F01BEC00F083
:1001A0001BEC00F01BEC00F01BEC00F01BEC00F073
:1001B0001BEC00F01BEC00F080921200289081B440
:1001C0002880000081B62880000012001BEC00F09F
:1001D0001BEC00F006EC00F016EC00F02BEC00F04D
:1001E0001BEC00F01BEC00F032EC00F01BEC00F01C
:1001F0001BEC00F01BEC00F080928094809680A8AD
:10020000FFEF00F0000080861BEC00F01BEC00F01C
:100210001BEC00F01BEC00F0809680841BEC00F0DF
:100220001BEC00F01BEC00F01BEC00F080861BECDC
:1002300000F01BEC00F01BEC00F01BEC00F08094D5
:10024000809680821BEC00F01BEC00F01BEC00F0B1
:100250001BEC00F080861BEC00F01BEC00F01BECAC
:1002600000F01BEC00F08092809680840000DEECB1
:1002700000F028A0B7EC00F000004FEC00F070ECAC
:0602800000F036EF01F072
:020000040030CA
:02000000FFB24D
:02000200FDFE01
:020004003CFFBF
:02000600FAFFFF
:02000800FFFFF8
:02000A00FFFFF6
:02000C00FFFFF4
:00000001FF
