:08000000803102288731EE2F48
:100AD80008000800640080010131890B6F2D003483
:100AE800200091117008240091002000911908003D
:100AF800792D200091112400161520009119080065
:100B080001302000BA000030BB00812D22000C11FA
:100B18004130F100EE30F000F00B902DF10B902DEC
:100B2800000022000C150800200091112400161462
:100B380020009119A52D01302000BA000030BB001B
:100B48009C2D9111080020009111C63024009100BD
:100B580020009119B52D01302000BA000030BB00EB
:100B6800AC2D9111080023008C018D018E0121000C
:100B78000C108C100C118C150C128C120D168D1675
:100B88000D178D130E108E100E118E110E168E1657
:100B98000E178E1708002000E5006508E3006308BB
:100BA800E400E01FED2D2D30E30065088600870185
:100BB800630881000130E3006308E507DD09DE0909
:100BC800DF09E009DD0A0319DE0A0319DF0A031940
:100BD800E00A6008D3005F08D2005E08D1005D0813
:100BE800D0006208D501D5076108D401D40765088B
:100BF8008631C62608008531982585318531A72597
:100C080085315030F0000030F10085317425853190
:100C18000030F0000030F100853174258531FD3059
:100C2800F0000030F100853174258531FC30F0008A
:100C38000030F10085317425853185317D25853178
:100C48000630F4001330F300B130F200F20B2A2E14
:100C5800F30B2A2EF40B2A2E312E08007308720487
:100C68007104700403196B2EF901F90AF31B482E5D
:100C78000130F035F10DF20DF30D890B3D2E0130E9
:100C8800F8007808F9073A2E73087702031D562EE4
:100C980072087602031D562E71087502031D562E22
:100CA80070087402031C602E7008F4027108F53B8A
:100CB8007208F63B7308F73B0130F336F20CF10C7F
:100CC800F00C890B612E0130F902031D482E7708BC
:100CD800F3007608F2007508F1007408F0000800C7
:100CE8000030FC000030FB000030FA000030F90052
:100CF80073087204710470040319BD2EFD01FD0A06
:100D0800F31B922E0130F035F10DF20DF30D890B26
:100D1800872E0130F8007808FD07842E0130F93558
:100D2800FA0DFB0DFC0D890B932E73087702031D3A
:100D3800A72E72087602031DA72E71087502031DDF
:100D4800A72E70087402031CB22E7008F4027108F2
:100D5800F53B7208F63B7308F73B79140130F3361C
:100D6800F20CF10CF00C890BB32E0130FD02031DBF
:100D7800922E7C08F3007B08F2007A08F1007908CB
:100D8800F00008002000DC005308DA005208D900FF
:100D98005108D8005008D7005408F0005508F10051
:100DA800890D893B8909F200F3005A08F7005908B0
:100DB800F6005808F5005708F40086317426863185
:100DC80073082000DA007208D9007108D80070088A
:100DD800D7000130D6005608DC075A0859045804D1
:100DE8005704031DD02E5C0886008701810101305D
:100DF800DC025408F0005508F100890D893B890987
:100E0800F200F3005308F7005208F6005108F50005
:100E18005008F40086313226863170082000D6004A
:100E28005608DB005408F0005508F100890D893B8D
:100E38008909F200F3005308F7005208F600510838
:100E4800F5005008F40086317426863173082000B6
:100E5800D3007208D2007108D1007008D0000A309F
:100E68005B02031C3B2F0730D6005608DB073030E7
:100E7800D6005608DB075B08D6005C0886008701A9
:100E8800560881000130DC02530852045104500412
:100E980003190800FD2E21001908873968389900C0
:100EA8001908FC390238990095138531B72587311F
:100EB80002302000E8004530E700A930E600E60BE4
:100EC800632FE70B632FE80B632F6A2F85316C259F
:100ED80087310D302000E700FB30E600E60B722F6B
:100EE800E70B722F772F21000D1724009417150890
:100EF800F03908389500951627309200273092006F
:100F080085318A25873182302000E700DD30E60010
:100F1800E60B8C2FE70B8C2F912F85319825873185
:100F28008531A72587312000BC01BD012400161B8F
:100F3800A22F01302000BC000030BD000130F000BD
:100F48000030F1008531742587315330F0000030CE
:100F5800F1008531742587310530F0000030F1004B
:100F680085317425873185317D258731063020000C
:100F7800E8001330E700B130E600E60BC12FE70BBD
:100F8800C12FE80BC12FC82F20002B08E0002A082A
:100F9800DF002908DE002808DD000A30E100003003
:100FA800E200A0308531CF2587318531FF25873193
:100FB80085316D25873101302000BA000030BB0033
:100FC8008230E700DD30E600E60BE82FE70BE82F7C
:100FD800ED2FDC2F20308400003085003030853143
:100FE8006E258731A0308400003085000A308531B5
:080FF8006E25200087314F2F08
:020000040001F9
:04000E00C4D9FFDD75
:00000001FF
