:020000040000FA
:020000005F2877
:08000800FD29820700341F34BA
:100010001C341F341E341F341E341F341F341E344E
:100020001F341E341F34820702340234003400347B
:10003000003401340034003400340034023400341D
:10004000003400340034013400340034003400340F
:1000500002340034003400340034013400340034FD
:1000600000340034023400340034003400340134ED
:1000700000340034003400340234003400340034DE
:1000800000340134003400340034003402340034CD
:1000900000340034003401340034003400340034BF
:1000A00082074F34663466347334653474340034F4
:1000B00082072D343D34D0343D342D343D34073067
:1000C0009F0085018601831611308500003086006F
:1000D0000130810001308C0083128C0104309200C9
:1000E00040308B0010309000D82381238B138B1B62
:1000F00076283D22C22385106430BB00BD00BF00BE
:100100006430B30010148B17051E9328CD01C32251
:100110004E080F390C3C031C91284E081F39B400BF
:10012000D928B401D928B7018030A6233708502038
:10013000B600360803199F28AF23B70A9628C130A6
:10014000A623B7015010501CA32850109E23C13085
:10015000A6232B30371E2D30B600AF2337080F39BA
:10016000C800C70179222030B6004B08303A031985
:10017000BB284B08B600AF234C08B600AF23051AC6
:10018000D028501CBF285010370A0F390D3A0319D8
:10019000CB28B70AA6281030B7071030B705A62815
:1001A0003708B400CD013408CE00AB225016051A32
:1001B00050122B234F1AF528501CF4285010051EFE
:1001C000E528501EED28CF22F428501AE9283723BD
:1001D000F428C2235012CF16F428C2235016D01090
:1001E0006430BD00BF00CF22D928CF1012302302C7
:1001F000031C4D291630A40023082402031C0229E5
:100200004F1019292E302302031C4D293630A4002B
:1002100023082402031C0E294F1419294A302302F3
:10022000031C4D295630A40023082402031C4D2929
:10023000CF144F1225081320A600260803192E29D3
:10024000013026060319472902302606031D4D29D1
:10025000CF1C4D29A50AB50AA601D928CF184D29CA
:100260004722A50AA601B50A3C302506031DD92858
:100270002D08A7002E08A8002F08A9003008AA0002
:100280003108AB003208AC00A5014F155129CF1839
:100290004D29A50AA601B50AD9284F12A5014F116B
:1002A000D928C201C301C401C501C6010130271804
:1002B000C2070230A718C20704302719C207083046
:1002C000A719C2070A30271AC2071430A71AC20793
:1002D0002830271BC20701302818C3070230A8188E
:1002E000C30704302819C3070830A819C3070A3008
:1002F000281AC3071430A81AC30701302A1AC507E1
:100300000230AA1AC50704302A1BC5070830AA1BE9
:10031000C5070A302918C5071430A918C5072830A1
:100320002919C5075030A919C5076430291E9B2912
:10033000C5070318C40AC830A91AC5070318C40A98
:1003400001302C1AC6070230AC1AC60704302C1B29
:10035000C6070830AC1BC6070A302B18C607143076
:10036000AB18C60728302B19C6075030AB19C60783
:10037000D015AC1DD0113B30BA00BB014208BC0007
:100380004308BE00B4080319FB29341ED5293408DC
:100390000F39BE073E08183C0319D3290318E42976
:1003A0001830BE02E429BE01E42934080F393E02A8
:1003B0000319D329031CE02934080F39BE02E429AC
:1003C0003E083402183CBE00341AF32943083E02AA
:1003D000031CFB29C508031DF129C4080319FB29C7
:1003E000C403C503FB2943083E020318FB2901305F
:1003F000C5070318C40A5122D928D100030ED20020
:10040000831213308F02CE308E02031C8F030C1028
:10041000A20ACF1D122A051C162A2208A300CF11FA
:100420004F16162A0518162AA201CF15B30B382A23
:100430006430B3003A0A50143C3A0319212ABA0A2C
:10044000382ABA01CF163C0A3C3A0319292ABC0AB9
:10045000382ABC013E0A183A0319302ABE0A382A43
:10046000BE014F19382A0130C5070318C40A5122AA
:10047000520E8300D10E510E0900203084008001FD
:10048000040A7F3A0319462A840A3F2A0800031403
:100490004F1C0310B20DB10DB00DAF0DAE0DAD0D73
:1004A00008004408C7004508C800A101210805202C
:1004B000A60002302106031D5F2AD019A60A2608CD
:1004C000C8020319712A0318692A470803196B2AFD
:1004D000C703A10A562A2108C10026084807C00000
:1004E00008004708031D692A2108C1002608C0002A
:1004F00008003030CC00CB00CA00C90003304702EE
:10050000031C932A0330C702E8304802031C8C2ADC
:10051000E830C802C90A7E2A47080319912AC7038E
:10052000882A0330C70764304802031C9B2A6430C2
:10053000C802CA0A932A47080319A02AC703972AA0
:100540000A30C802031CA62ACB0AA02A0A30C80710
:100550004808CC0708009B3084004D0880009A3082
:1005600084004E08800083161C158B138B1BB52A44
:1005700055309D00AA309D009C149C18BD2A1C116A
:100580008B17831208009B3084004D08800083166F
:100590001C1483129A3084000008CE0008003E0824
:1005A0003F060319E32A8030A6233E08BF00C80097
:1005B000C70179224B08B600AF234C08B600AF2321
:1005C0003A30B600AF233C083D060319F72A8330C2
:1005D000A6233C08BD00C800C70179224B08B6001D
:1005E000AF234C08B600AF233A30B600AF238630B5
:1005F000B600A6233A08C800C70179224B08B60006
:10060000AF234C08B600AF23D018792BD014C230DA
:10061000B600A6232030B600AF232030B600AF23AB
:100620002030B600AF23C230B600A6232B30341ED4
:100630002D30B600AF2334080F39C800C701792226
:100640004B08303A0319272B4B08B600AF234C0850
:10065000B600AF23792BC630B600A623053035028D
:100660000318B50135085820B600AF230800CF1E87
:10067000792BCF128030A6234108C800C701792208
:100680004B08B600AF234C08B600AF232F30B6009E
:10069000AF234008C800C70179224B08B600AF233A
:1006A0004C08B600AF232F30B600AF233230B6006F
:1006B000AF233030B600AF23C030A6234608C800B1
:1006C000C70179224B08B600AF234C08B600AF2310
:1006D000B701C330A6234408C7004508C8007922E3
:1006E0004A08B600AF234B08B600AF234C08B6004B
:1006F000AF23C730A6232A304F1D2030B600AF23CA
:10070000080005118611D8233030B600B723BD2369
:10071000D8232030B600B723BD23D8232830A62302
:100720000C30A6230630A6230130A623D8230800C8
:100730008030A6230800C030A62308000830A0009F
:100740002030B600AF23A00BA02B0800B600861106
:10075000CB23B723BD23B60EB723BD2308008615D0
:10076000CB23B723BD23B60EB723BD2308000F301C
:1007700086053608F03986040800051500000511C5
:10078000CB2308000130A623D82308000130B8008D
:10079000C3309100DF2B0130B80082309100DF2B95
:1007A0000230B8009101DF2B1430B8009101DF2B2B
:1007B0003C30B8009101DF2BF030B80091018C1073
:0A07C0008C1CE02BB80BDF2B0800A7
:02400E00013F70
:00000001FF
