:020000040000FA
:0400000036EF00F0E7
:100008003782FACF2FF0FBCF30F0D9CF31F0DACFEB
:1000180032F00E01C0B9C8A90CD001D819D005001A
:10002800FA6E2B50FD6E2C50FE6E2D50FF6EFA505E
:100038001200C0BBC8AB0CD001D80AD00500FA6EBC
:100048002850FD6E2950FE6E2A50FF6EFA5012009D
:1000580032C0DAFF31C0D9FF30C0FBFF2FC0FAFF32
:1000680037921100CAEF01F0010E1C24D96EDA6A2A
:10007800000EDA22000EDF6E9CA413D0010E1C24A1
:10008800D96EDA6A000EDA22DF8201D80AD00500BA
:10009800FA6E2550FD6E2650FE6E2750FF6EFA5000
:1000A80012009CA213D0010E1C24D96EDA6A000E2D
:1000B800DA22DF8401D80AD00500FA6E2250FD6EDC
:1000C8002350FE6E2450FF6EFA501200010E1C24BD
:1000D800D96EDA6A000EDA22DF50D8B40CD001D813
:1000E80012000500FA6E1F50FD6E2050FE6E215062
:1000F800FF6EFA50120093EC01F012000E01C09B43
:10010800700E336E000E346E000E356EDCEC01F0AE
:100118000E01C099D20E336E020E346E000E356E8B
:10012800D5EC01F0080E9E6E900E9C6E240E9D6E0E
:10013800190E9A6E000E9B6E0E0E336E040E346E00
:10014800000E356EEAEC01F0FA0E336E030E346ED3
:10015800000E356EE3EC01F0000E336E040E346EC3
:10016800000E356EF1EC01F0000E196E000E1E6ED9
:10017800000E1D6E080E2E6E000E1C6E000E1B6EFD
:10018800000E1A6E0E01C08B1200000E866E000E55
:10019800856E000E826E000E836E000E846E070E52
:1001A8008B6E87688868BF0E896E8A680F0121691F
:1001B8007F0E1C6F1469070E296F0C69000E206FE3
:1001C800000E286F000E136F000E0B6F000E1B6FD2
:1001D800000E276F000E0A6F000E126F000E1A6FC6
:1001E800000E1F6F0969116919691E69070E266FCC
:1001F8000869106918691D690F0E256F170E0E0121
:10020800B06F090EF86F1200000E656E000E666E74
:10021800000E676E000E686E000E636E000E646E50
:10022800000E616E000E0F015A6F000E586F000E1F
:10023800546F000E556F000E566F000E606E000E64
:10024800536F000E516F000E526F840E5B6F000EDD
:10025800576F12001A50D8B4FDD7010E1B24D96E5F
:10026800DA6A000EDA22DF50196E090E1B24D96EE5
:10027800DA6A000EDA22DF50336E1B2A070E1B647F
:1002880002D0000E1B6E0E01C09B1A06C08B3350A5
:100298001200336E2E50D8B4FDD70E01C0B903D06A
:1002A80033C099FF10D0C099110E1E24D96EDA6A96
:1002B800000EDA2233C0DFFF1E2A070E1E6402D0AA
:1002C800000E1E6E2E06C0891200080E2E6010D079
:1002D800110E1D24D96EDA6A000EDA22DF50996EEB
:1002E8001D2A070E1D6402D0000E1D6E2E2A120054
:1002F8000E01C0991200B1EC01F0F28C05EC02F08D
:100308000009D8B4FBD72EEC01F0366E03EC02F0EE
:100318000009D8B4F3D736504DEC01F0EFD7090EE9
:100328001C24D96EDA6A000EDA2298CFDFFF1C2A65
:10033800070E1C6402D0000E1C6E1A2A1200000E52
:100348000E01DC6F000EDD6F000EDE6F000EDF6F3A
:10035800000EE06F000EE16F1200F8EC01F0A3EC64
:1003680001F0C9EC00F0BEEC01F008EC01F082EC01
:1003780000F01200620E0E01D36F000ED56F000E52
:10038800D76F020ED96F000ED86F120000EE01F081
:100398001E0EEE6AE806FDE13790379200017FEF06
:1003A80001F033C02BF034C02CF035C02DF0120012
:1003B80033C028F034C029F035C02AF0120033C009
:1003C80022F034C023F035C024F0120033C025F0E9
:1003D80034C026F035C027F0120033C01FF034C0F7
:1003E80020F035C021F01200F28A0E01B889B88BCE
:1003F80012009C989C88120093EC01F012002E5079
:0804080012001A50120012004C
:020000040020DA
:10000000FFFFFFFFFFFFFFFFFFFFFFFFFFFFFFFF00
:10001000FFFFFFFFFFFFFFFFFFFFFFFFFFFFFFFFF0
:10002000FFFFFFFFFFFFFFFFFFFFFFFFFFFFFFFFE0
:10003000FFFFFFFFFFFFFFFFFFFFFFFFFFFFFFFFD0
:10004000FFFFFFFFFFFFFFFFFFFFFFFFFFFFFFFFC0
:10005000FFFFFFFFFFFFFFFFFFFFFFFFFFFFFFFFB0
:10006000FFFFFFFFFFFFFFFFFFFFFFFFFFFFFFFFA0
:10007000FFFFFFFFFFFFFFFFFFFFFFFFFFFFFFFF90
:10008000FFFFFFFFFFFFFFFFFFFFFFFFFFFFFFFF80
:10009000FFFFFFFFFFFFFFFFFFFFFFFFFFFFFFFF70
:1000A000FFFFFFFFFFFFFFFFFFFFFFFFFFFFFFFF60
:1000B000FFFFFFFFFFFFFFFFFFFFFFFFFFFFFFFF50
:1000C000FFFFFFFFFFFFFFFFFFFFFFFFFFFFFFFF40
:1000D000FFFFFFFFFFFFFFFFFFFFFFFFFFFFFFFF30
:1000E000FFFFFFFFFFFFFFFFFFFFFFFFFFFFFFFF20
:1000F000FFFFFFFFFFFFFFFFFFFFFFFFFFFFFFFF10
:020000040030CA
:0C000000ECFEFFFF9FFFFFFFFFFFFFFF74
:00000001FF
