:08000000803102288731FD2F39
:100F7C00210019088739683899001908FC3902389A
:100F8C00990095130E108E100E118E110E178E17D0
:100F9C0023008E0129009C014F309B00E1309F0003
:100FAC00E1309E00F001F1017008013EF0000030CC
:100FBC00713DF1007108803AFF0080307F02031D03
:100FCC00E92F013070020318EF2F0A30F0000030C7
:100FDC00F10029009C0170089B004130F300EE30B9
:100FEC00F200F20BF72FF30BF72F0000DA2F200093
:040FFC008731BE2F4C
:020000040001F9
:04000E00E4CFFFDD5F
:00000001FF
