:10000000803102288731F22F00342034203420340C
:100010002034203420342034203420342034203440
:1000200020342034203420342034003454346534D7
:100030007334743469346E346734203474346834FF
:0E004000653420344C34433444342E340034C0
:100DD800640080010131890BED2E0034F4002200FB
:100DE8008C127408803E87312E27080022000C12CE
:100DF8001A30F100F830F000F00B002FF10B002F43
:100E0800000022000C16080022008C1201308731E5
:100E18002E2787310330F5009730F400F40B122F9A
:100E2800F50B122F172F0800F50022008C167508F5
:100E380080310A00873100380319080075088031AD
:100E48000A00873187312E2787310130F400740872
:100E5800F5071B2FF3007308F2000430F236890BF4
:100E6800322F720822008E008631FA2687317308E5
:100E780022008E008631FA2687312130F200F20BEB
:100E8800432F080022008C1203308E00C330F50077
:100E9800CD30F400F40B4E2FF50B4E2F8631FA2689
:100EA80087310730F5007D30F400F40B592FF50B2E
:100EB800592F8631FA2687310730F5007D30F40046
:100EC800F40B642FF50B642F8631FA26873107302F
:100ED800F5007D30F400F40B6F2FF50B6F2F023007
:100EE80022008E000730F5007D30F400F40B7A2FD5
:100EF800F50B7A2F8631FA2687310730F5007D30D9
:100F0800F400F40B852FF50B852F283087312E2719
:100F18008731083087312E2787310C3087312E27CB
:100F28008731063087312E270800210019088739B4
:100F3800683899001908FC39023899000E108E108B
:100F48000E118E110C100C128C128E1723008E1796
:100F580022000C100230F8004530F700A930F600E6
:100F6800F60BB42FF70BB42FF80BB42FBB2F873128
:100F7800462787310D30F700FB30F600F60BC22FFD
:100F8800F70BC22FC72F87310827873100308631EA
:100F9800F22687311630873118278731403086315D
:100FA800F2268731253021009D0060309E00220006
:100FB8000C102130F600F60BDF2FF930F600000098
:100FC800F60BE32FE72F000022000C14F930F6008F
:100FD8000000F60BEC2FF02F0000DB2FF901FA01CF
:100FE800FB01FC012030840000308500163086317A
:080FF800EC2620008731992F3F
:020000040001F9
:04000E00E4CFFFDD5F
:00000001FF
