:020000040000FA
:1000000000EFEEF01200FFFF63EF7BF01200FFFF46
:10001000FFFFFFFFFFFFFFFF3DEF7BF01200FFFF41
:10002000FFFFFFFFFFFFFFFFFFFF1D00955C0100CB
:10003000340B000001000000945C0100330B000051
:1000400001000000925C0100270B0000020000008C
:10005000245C0100000500006E000000235C01002C
:10006000320B0000010000001A5C0100570F000075
:1000700009000000005C0100E30800001A00000015
:10008000FF5B0100310B000001000000F75B010085
:10009000E809000008000000F45B0100140B0000F8
:1000A00003000000E15B0100E8060000130000000F
:1000B000E05B0100300B000001000000DC5B010090
:1000C000100B000004000000DB5B01002F0B0000A0
:1000D00001000000D95B0100250B000002000000B8
:1000E000CF5B0100DE0900000A000000CE5B0100CA
:1000F0002E0B000001000000CD5B01002D0B000065
:1001000001000000895A01002C0B000001000000D2
:10011000CA5B0100FD08000003000000825B0100D3
:100120000007000048000000785B0100D4090000CF
:100130000A000000765B0100230B000002000000B3
:10014000745B0100210B000002000000725B0100E3
:100150001F0B0000020000005F5B01002B0B000082
:10016000010000006E5B01000C0B000004000000A9
:10017000645B0100CA0900000A000000625B010024
:100180001D0B000002000000030145510B01215D21
:1001900001E11200FE0E215D0CE01C0EE66EE66A27
:1001A000290EE66E030EE66E215108EC19F087EC7D
:1001B00019F045C321FBFE0E0301455D01E112006C
:1001C0001C0EE66EE66A455108EC19F0290EE66E43
:1001D000030EE66E87EF19F00B012151225D01E15C
:1001E0001200FE0E225D21E0270E0301C56FC66BD3
:1001F0000301010EC46F0301020EC26F030EC36F31
:100200000B0171EC19F01B0EF4EC1AF0EFCFC1F3F7
:1002100071EC19F0EECFBFF3EFCFC0F30301270E5F
:10022000BF5F000EC05B6FEC16F021CB22FB270EE8
:100230006BEC19F029C3C2F32AC3C3F30301C25FF5
:10024000000EC35BACEC1AF0020EBF6F030EC06F62
:100250006FEF16F00C01C20E1D6F0F0E1E6F030123
:10026000005101110FE187EC62F026C000F327C0B6
:1002700001F3FF0E03010017070E0117000E002700
:10028000040E01233C0EE66EE66AE66A000EE66E98
:10029000080EE66E54EC90F0006E050EE15E005024
:1002A0000C01156B146B145131EC17F001E38ED077
:1002B00014CC45F369DF88EC17F0C1EC17F0F62A8F
:1002C000000EF722F8220800F5CF1CFC88EC17F08E
:1002D000C1EC17F0020EF626000EF722F8220900F4
:1002E000F5CF16FC0A00F5CF17FC88EC17F076EC7A
:1002F0001BF0040EF626000EF722F8220900F5CFB7
:1003000018FC0A00F5CF19FC0C011C5128E11DCC8A
:100310001AFC1ECC1BFC270E036A1625026E175111
:100320000322AFEC1AF002501825006E0350192179
:100330001CEC1BF000501D2701501E231DCC00F0AB
:100340001ECC01F0026A036AD880FE0E00541E0E15
:100350000154000E0254000E035402E2EFD7FFD7FF
:100360001CCC44F3270E0C011A250301296F000E43
:100370000C011B2103012A6F29510C0116250301D1
:100380002B6F2A510C01172103012C6F010E2B2713
:10039000000E2C232B510C01182503012D6F2C511D
:1003A0000C01192103012E6F0D0E3F6F409714DFD2
:1003B00088EC17F024C003F076EC1BF00800F5CFB2
:1003C00028F3FFEC0FF00C01142B6DD712000C0179
:1003D0003B6B3B5131EC17F001E390D03BCC45F344
:1003E000D3DE0D0E03013F5D01E085D0F5DE030194
:1003F0004D51285D01E07FD0180E256F020E266F4B
:100400004A510CE14BC312F34CC313F34087040E63
:100410003F6F4BC342F34CC343F36AD0000E005D01
:10042000040E015906E3880ED8800055130E0155BD
:1004300003E2006B040E016F00C312F301C313F358
:10044000002B000E01234BC310F34CC311F3F8EC47
:100450001AF0030140894A51040A25E0070A11E015
:10046000020A02E0030A44E1BCEC19F0020E4A5D04
:1004700002E0000E01D0010E2495E8B024853F6B08
:1004800037D048514625026E4951472113EC19F0E7
:10049000BCEC19F0276B270E026F036B046B056B26
:1004A000020E3F6F25D046C3E9FF47C3EAFFC5EC04
:1004B00019F046C3E9FF47C3EAFF0450EE24026E79
:1004C0000550EE2013EC19F00A0EE66EE66A46C3FC
:1004D000E6FF47C3E6FF32EC1AF0FEEC18F003012A
:1004E000050E3F6F2FEC1BF0020EAD6F37EC0CF0DA
:1004F0000C013B5112000C013B2B6BD7FE0C03018E
:100500004E5131EC17F001E3010C4EC345F33CDED4
:10051000030141A902D04199010C000C03014F5184
:1005200031EC17F001E3000C4FC345F32DDE070E4D
:1005300003013F5D01E0000C010C0301505131EC5F
:1005400017F001E3120050C345F35FEC1AF003010A
:100550003F51080A38E0010A36E0050A34E0020A91
:100560002FE0050A1FE00D0A0FE0010A0DE0070A5F
:1005700031E0020A2FE0010A2DE0060A2BE0040A0E
:1005800022E1DEEC74F026D0FAEC18F003011451ED
:10059000151106E00E512F19F7E10F513019F4E152
:1005A000080E0FD0FAEC18F003011451151106E0F3
:1005B0000E512F19F7E10F513019F4E10C0E01D053
:1005C0000D0E3F6F12000301AE6B0301140EAD6FF1
:1005D00037EC0CF0FFEF0FF00301515131EC17F045
:1005E00001E3120051C345F3CFDD0301409751C32E
:1005F00050F39DEF02F00301525131EC17F003E389
:10060000F36AF46A120052C345F3B4EC1AF00A0E0E
:10061000E66EE66A32EC1AF0530EE66E030EE66EF4
:10062000FEEC18F010C35DF311C35EF3530E006EC1
:10063000030E01EF18F003015F5131EC17F001E3F5
:1006400012005FC345F3B4EC1AF003010E512F19E9
:1006500002E10F51301902E0BAEC17F01200030169
:10066000605131EC17F00CE260C345F38DDD3FC300
:1006700082FC070E0C01825D06E00B0E825D03E03A
:10068000F36AF46A1200030131512F5D325130597F
:1006900016E329512B5D026E2C512A55036E02067A
:1006A000000E035A31512F5D046E30513255056EE4
:1006B0000450025C006E0550035801EF18F02F51F2
:1006C000315D006E32513055016E0006000E015A48
:1006D00000C0F3FF01C0F4FF12000301615131ECCF
:1006E00017F001E3000C61C345F34EDD61C360F315
:1006F000B6DFF3CF0FFCF4CF10FC0C01F350F41075
:1007000001E1000C010E0F1904E1105102E1B8ECF7
:100710001AF003014151010B0CE168EC1BF00C01D4
:100720000F51005C1051015804E3B8EC1AF00301BA
:100730004181010E0301C56FC66B0301C46F030144
:10074000620EC26F030EC36F46EC1BF003012F2B2A
:10075000000E30232B512F5D2C51305902E39FECBA
:1007600019F00C01010E0F1905E1105103E1B8EC6D
:100770001AF0010C030140BB02D0BEEC17F0010CD3
:100780000C01E56BE66B0301635131EC17F010E2ED
:1007900063C345F3F9DC63C360F361DFF3CFE3FCCC
:1007A000F4CFE4FC0C01F350F41005E1BCEC1AF0BA
:1007B000F36AF46A1200E3CCE1FCE4CCE2FC41EC25
:1007C0001AF004E266C3E1FC67C3E2FC4151010B8D
:1007D0000CE168EC1BF00C01E351005CE4510158A2
:1007E00004E3BCEC1AF00301418103012F510C0119
:1007F000E125006E030130510C01E22166EC1AF094
:100800001EE32F512B5D0C01E56F030130512C5974
:100810000C01E66FE5CCC5F3E8CFC6F37BEC18F02E
:100820000C01E551030164270C01E6510301652326
:100830000C01E551E15FE651E25B9FEC19F0E1CC80
:10084000C5F3E2CCC6F37BEC18F00C01E1510301D7
:100850002F270C01E251030130230C0141EC1AF067
:1008600003E3BCEC1AF004D040BB02D0BEEC17F09E
:100870000C01E151E525006EE251E62101EF18F08F
:100880000C012E6B2F6B0301685131EC17F010E255
:1008900068C345F379DC68C360F3E1DEF3CF2CFC79
:1008A000F4CF2DFC0C01F350F41005E1C0EC1AF06C
:1008B000F36AF46A120003014151010B0CE168EC88
:1008C0001BF00C012C51005C2D51015804E3C0ECCD
:1008D0001AF0030141812CCC2AFC2DCC2BFCCCEC52
:1008E00019F004E26CC32AFC6DC32BFC2F510C01E0
:1008F0002A25006E030130510C012B2166EC1AF001
:1009000022E32F512B5D0C012E6F030130512C5926
:100910000C012F6F2ECCCDF3E8CFCEF3C1EC18F045
:100920002ECC00F02FCC01F0026A005003016927A1
:1009300001506A2302506B230C012E512A5F2F5164
:100940002B5B9FEC19F02ACCCDF32BCCCEF3C1EC72
:1009500018F00C012A5103012F270C012B51030120
:100960003023CCEC19F003E3C0EC1AF004D040BB08
:1009700002D0BEEC17F00C012A512E25006E2B512F
:100980002F2101EF18F06FC3E6FF70C3E6FFFCEC08
:1009900090F0E552E552F3CF66F3F4CF67F36FC3FF
:1009A00064F370C365F36EC363F3EADE03016F5152
:1009B000F324006E7051F42001EF18F072C3E6FFCB
:1009C00073C3E6FF74C3E6FF0AEC91F0E552E5520B
:1009D000E55227C06CF328C06DF372C369F373C38B
:1009E0006AF374C36BF371C368F34ADF056A0301EA
:1009F0007251F324006E7351F420016E745105207E
:100A0000026E00C027F001C028F0296E1200030119
:100A1000755131EC17F003E3F36AF46A120075C301
:100A200045F3C4EC00F0030129512B5D0C01026F6A
:100A300003012A512C590C01036F010E025F000EB5
:100A4000035B75C360F30BDE0C01F350025D006EB7
:100A50000351F45401EF18F076C377F30CD89DECF2
:100A60001BF0F350F41006E076C345F35FEC1AF088
:100A7000BAEC17F012000301775131EC17F003E3E1
:100A8000F36AF46A120077C345F3C4EC00F020EC7B
:100A90001AF006E33551335D006E3451365513D0EC
:100AA00035512D5D026E2E513655036EAFEC1AF0A6
:100AB0002B51335D046E34512C55056E02500424C5
:100AC000006E0350052001EF18F078C377F3D3DFF1
:100AD000F3CF39FCF4CF3AFC0C01F350F41001E1F0
:100AE000000C78C345F3C4EC00F0030179517A118E
:100AF0000FE0010E6BEC19F035C3C2F336C3C3F33C
:100B00000301C16F79C3BFF37AC3C0F36FEC16F072
:100B10000301352B000E362335512D5D36512E59EC
:100B200002E2C4EC1AF00C01010E391905E13A5148
:100B300003E103014185010C030140BB02D01BEC22
:100B400018F0010C0C015F6B606B7BC377F393DFD4
:100B5000F3CF5DFCF4CF5EFC0C01F350F41003E125
:100B6000F36AF46A12007BC345F3C4EC00F003019E
:100B70007E510C015D5D03017F510C015E5904E261
:100B80005DCC7EF35ECC7FF3030135517E25006E94
:100B900036517F2126EC1AF029E235512D5D0C01EA
:100BA0005F6F030136512E590C01606F010E5F27F4
:100BB000000E602303017C517D110EE05FCCC5F374
:100BC00060CCC6F384EC18F00C015F5103017C2764
:100BD0000C01605103017D230C015F5103017E5F15
:100BE0000C01605103017F5BC4EC1AF07C517D1154
:100BF00006E07EC3C5F37FC3C6F384EC18F003019F
:100C00007E5135277F5136230C015F5103017E272A
:100C10000C01605103017F237E510C015D5D006E6C
:100C20005E5103017F55016E00507E5D01507F597A
:100C300002E3418504D040BB02D01BEC18F07EC318
:100C4000F3FF7FC3F4FF12000301805131EC17F072
:100C500003E3F36AF46A120080C345F3C4EC00F0C6
:100C600003012B512D5D0C013B6F03012C512E59BB
:100C70000C013C6F80C377F3FEDE0C01F3503B5D4B
:100C8000006E3C51F45401EF18F00301815131EC36
:100C900017F003E28451851103E1F36AF46A12004C
:100CA00081C345F3C4EC00F081C377F3E4DEF3CFF6
:100CB00002FCF4CF03FC030186518425006E8751AA
:100CC0008521016E0C010050F35C0150F4580BE2D9
:100CD000030186510C01025D0301846F87510C01F1
:100CE00003590301856F0301355186250C01006FFF
:100CF0000301365187210C01016F005103012D5D65
:100D00000C01015103012E5906E2B2EC17F00C015F
:100D1000005F0150015B0C01005103012D5D0C01CE
:100D2000046F015103012E590C01056F010E0427B8
:100D3000000E0523030184510C01045D030185515C
:100D40000C01055907E384C3C5F385C3C6F31AEC48
:100D500019F022D004CCC5F305CCC6F31AEC19F077
:100D60006FEC16F00C0104510301845D0301C56FA3
:100D70000C01055103018559D5EC19F0BAEC1BF0B3
:100D8000030182510C0104250301BF6F030183514C
:100D90000C0105210301C06F6FEC16F084C3F3FF53
:100DA00085C3F4FF120089C386F38AC387F3010E5B
:100DB0000301846F856B0301060E826F0C0E836F37
:100DC00088C381F362DF0C010651120003018B51CD
:100DD00031EC17F003E28E518F1103E1F36AF46AEC
:100DE00012008BC345F3C4EC00F08BC377F343DEF2
:100DF00003019051F35C0C013B6F03019151F458D6
:100E00000C013C6FDEEC19F001E205D103019251B7
:100E100093110DE00C013B510301925D0C013C511B
:100E20000301935904E292C33BFC93C33CFC35514C
:100E300090250C013F6F0301365191210C01406F49
:100E40003F5103012D5D0C01405103012E5906E273
:100E5000B2EC17F00C013F5F0150405B3FCC39FC16
:100E600040CC3AFC0C013F5103012D5D0C013D6F5C
:100E7000405103012E590C013E6F010E3D27000E1B
:100E80003E2390C33FFC91C340FC8EC341FC8FC303
:100E900042FC8CC343FC8DC344FC03018CC3E9FFBB
:100EA0008DC3EAFF8C2B8D23EFCF46FC0C01486BE2
:100EB0000301945109E0610E0C01465D05E34651C2
:100EC0007A0802E3E00E46270C01200E476FE85037
:100ED0003D5D000E3E5902E23DCC47FC47513B5D73
:100EE000000E3C5902E23BCC47FC47516BEC19F039
:100EF00039CCC2F33ACCC3F3ACEC1AF0490EBF6F55
:100F00000C0EC06F6FEC16F00C014751B8EC19F0E5
:100F1000392701503A234751B8EC19F03D5F015091
:100F20003E5B3D513E1106E12BC339FC2CC33AFC1C
:100F30003D693E69030194513EE00C01456B475108
:100F4000455D5FE251EC18F0EFCF00F0610E005C00
:100F50000BE351EC18F0EF507A0806E3E00E006E58
:100F600051EC18F00050EF2651EC18F0EF50465DB0
:100F70000EE16DEC1AF02CE026EC19F0610E465DE6
:100F800018E346517A0815E3E00E462712D041CC0B
:100F90008EF342CC8FF348510CE0CFEC18F0610E89
:100FA0000C01465D05E346517A0802E3E00E462750
:100FB000486B452BC4D70C01456B4751455D21E279
:100FC00051EC18F0EF50465D10E16DEC1AF00AE1BB
:100FD0000C0141513F5D026E40514255036E455137
:100FE00091EF18F026EC19F00AD041CC8EF342CCE8
:100FF0008FF3485104E0CFEC18F00C01486B452BFF
:10100000DCD70C014751B8EC19F03B5F01503C5B59
:10101000DEEC19F003E2F368F46812004751B8EC13
:1010200019F03F27015040234FD70301955131EC70
:1010300017F003E299519A1103E1F36AF46A12007E
:1010400095C345F3C4EC00F095C377F314DD0301B9
:101050009B51F35C0C01026F03019C51F4580C018D
:10106000036FE7EC19F001E205D103019D519E11D8
:101070000DE00C01025103019D5D0C0103510301C0
:101080009E5904E29DC302FC9EC303FC35519B257F
:101090000C01066F030136519C210C01076F0651AC
:1010A00003012D5D0C01075103012E5906E2B2EC3C
:1010B00017F00C01065F0150075B06CC00FC07CC63
:1010C00001FC0C01065103012D5D0C01046F075159
:1010D00003012E590C01056F010E0427000E052394
:1010E0009BC306FC9CC307FC99C308FC9AC309FC7C
:1010F00096C30AFC97C30BFC98C30CFC030196C370
:10110000F6FF962B97C3F7FF4EEC1BF0106B030115
:101110009F5109E0610E0C010E5D05E30E517A0846
:1011200002E3E00E0E270C01200E0F6FE850045D65
:10113000000E055902E204CC0FFC0F51025D000EB7
:10114000035902E202CC0FFC0F516BEC19F000CCFA
:10115000C2F301CCC3F3ACEC1AF0110EBF6F0C0E4E
:10116000C06F6FEC16F00C010F51B8EC19F00027AE
:10117000015001230F51B8EC19F0045F0150055BD9
:101180000451051106E12BC300FC2CC301FC0469CA
:10119000056903019F513EE00C010D6B0F510D5D80
:1011A0005FE258EC18F0EFCF00F0610E005C0BE34B
:1011B00058EC18F0EF507A0806E3E00E006E58EC99
:1011C00018F00050EF2658EC18F0EF500E5D0EE1CD
:1011D00074EC1AF02CE064EC18F0610E0E5D18E36C
:1011E0000E517A0815E3E00E0E2712D008CC99F3C1
:1011F00009CC9AF310510CE006EC18F0610E0C01CA
:101200000E5D05E30E517A0802E3E00E0E27106B27
:101210000D2BC4D70C010D6B0F510D5D21E258EC65
:1012200018F0EF500E5D10E174EC1AF00AE10C01B9
:101230000851065D026E07510955036E0D5191EF7D
:1012400018F064EC18F00AD008CC99F309CC9AF3A2
:10125000105104E006EC18F00C01106B0D2BDCD7DC
:101260000C010F51B8EC19F0025F0150035BE7EC81
:1012700019F003E2F368F46812000F51B8EC19F0AA
:101280000627015007234FD7A6C394F3A4C392F3B4
:10129000A5C393F3A2C390F3A3C391F3010E03017B
:1012A0008E6F8F6B0301A10E8C6F030E8D6FA0C329
:1012B0008BF3E6EF06F00C01006B005131EC17F0F8
:1012C00001E309D200CC45F3C4EC00F00C01036B40
:1012D000016B026B03014151020B03E14151040B0D
:1012E0000EE036EC71F000090AE00C01100E036FFD
:1012F00003014151040B01E0010E0C01016F0301D8
:1013000040AB11D0E0ECAAF0030126503B5D006E2B
:1013100027503C59016EE83402E2C9EC1AF003E3AD
:101320000C01100E036F030140AD09D07CEC19F0E5
:1013300002E2C9EC1AF003E30C01100E036F0B0E6E
:1013400003013F5D0CE17CEC19F002E2C9EC1AF0FC
:1013500006E30C01110E036F03010C0E3F6F040E28
:101360003F5D53E10C01046B056B030E045D000E41
:1013700005594BE2EEEC1AF0A2EC1BF046E0EEEC65
:101380001AF005EC19F076EC18F003014251001840
:1013900037E14351011834E1ECEC00F00A0EE66E3F
:1013A000E66AEEEC1AF0F0EC19F032EC1AF006EC0A
:1013B00090F0060EE15EEEEC1AF0CEEC1AF0EECFF5
:1013C00010F3EDCF11F3EEEC1AF00C0EF4EC1AF072
:1013D000EECF0AF3EECF0BF3EECF0CF3EFCF0DF31E
:1013E00003010A2B0B230C230D2332EC18F00C0104
:1013F000120E036F0301060E3F6F38EC17F005D095
:101400000C01042B000E0523B0D70C0103510AE098
:10141000015102E0000E01D0010E0301AE6F03CCBA
:10142000ADF325DA030140B92FD0070E3F5D01E08F
:101430004FD13EEC18F001E04BD103014051070BB6
:10144000060816E14051080B01E0010E0C01036F84
:1014500000CC50F39DEC02F000CC50F39DEC02F078
:101460000C01035101E034D103010E0E3F6F30D166
:10147000ECEC00F00301020EAE6F0301100E43EC22
:101480001BF07DEC17F024D13EEC18F001E020D1E8
:10149000ECEC00F003013F510C0A01E1CDD0060A4B
:1014A00001E1C4D0030A01E1D0D0010A01E1BAD0C0
:1014B0000F0A01E1AED00C0A01E1ABD00D0A01E147
:1014C0009DD0030A01E187D0060A5AE0010A48E0EC
:1014D000030A21E0010A01E0BDD0D9EC74F0000953
:1014E00001E1B8D00301010E3F6F24A50BD0070125
:1014F000E76F18C3E4F719C3E5F71AC3E6F70BEC77
:1015000075F0A8D00701E36F18C3E1F719C3E2F73C
:10151000EBEC74F09FD00701060EE86F0C0EE96F3C
:101520002EEC75F0000901E195D0DEEC74F00009B5
:1015300013E006CC18F307CC19F308CC1AF309CC46
:101540001BF30301020E3F6F32EC18F0276B270EDE
:10155000026F036B046B50D07DEC17F03F6B7AD0B9
:10156000E0ECAAF026C03BF327C03CF30501180EBF
:10157000F76F030EF86F08EC8FF00301030E29D00C
:1015800005011C0EFB6F030EFC6F0501180EF96FB1
:10159000030EFA6F35EC8FF0000915E1E0ECAAF0CC
:1015A00003013B51265C006E3C512758016E0050F0
:1015B000025D015003594EE2060E275D02E27BEC0C
:1015C0001AF0020E06D00C01020E036F016B03012C
:1015D000050E3F6F3FD00C01020E036F010E016F2D
:1015E000040E0301275D36E3040E276F200E026F01
:1015F000EF0E036F090E046F056B2CD0020E275DF2
:1016000003E20C01120E1DD040B71FD00C01020ED8
:1016100007D0050E275D0DE3080E3F6F0C01110E7C
:10162000036F18D0050E275D10E209D0050E275D67
:101630000CE20C01100E05D0050E275D06E20C0130
:10164000110E036F010E016F05D00C01140E036F14
:10165000010E026F0C01035136E001512EE003012F
:101660007BEC1AF031510E5D0C01046F0301325115
:101670000F590C01056F030137EC1AF007E2A7ECD4
:1016800017F000500C0104270150052304CC00F092
:1016900005CC01F0026A036A0050030147EC19F01F
:1016A0000C010451030114270C01055103011523FA
:1016B000D1EC1AF00301AE6B03D00301010EAE6F43
:1016C00003CCADF3D4D80C01025102E0FFEC0FF0D3
:1016D0000C01002BF2D5046B056B030E045D000EAC
:1016E00005592FE2EEEC1AF0A2EC1BF001E112001A
:1016F000EEEC1AF0D6EC1AF04FEC19F002C0E6FF4F
:1017000003C0E6FFE0ECAAF0E552E7CF03F0E552B4
:10171000E7CF02F00250265C006E03502758016E9E
:10172000DC0ED8800054010E015406E238EC17F0AC
:101730000C010407000E055B0C01042B000E0523B1
:10174000CCD71200A7C3E9FFA8C3EAFFEECF14FC71
:10175000EECF15FCEECF16FCEFCF17FCA9C3E9FFC7
:10176000AAC3EAFFEECF18FCEECF19FCEECF1AFCAD
:10177000EFCF1BFC0C011C6B060E1D6FABC31EFCD8
:10178000ACC31FFCABC3C8F6ACC3C9F6F6EC65F03E
:10179000F3CF1EFCF4CF1FFC0C0E0601D06FD16BF3
:1017A0000601140ECE6F0C0ECF6F11EC66F0F3CF66
:1017B00020FCF4CF21FC0C01201F211FABC3C9F872
:1017C000ACC3CAF8D3EC72F0F3CF22FCF4CF23FC05
:1017D0000C01F350201948E12351211945E1090179
:1017E000866B876B67EC9FF0140E0801D36FD46B88
:1017F0000801000ED16F0C0ED26FFFEC73F00301E5
:10180000000EB36F0C0EB46FB9DB0C010C516DEC14
:101810001BF0040DF35082EC1AF000C024FC0050C1
:10182000006E016AE8500301AB5DAB6F0150AC592B
:10183000AC6F140EAB5F000EAC5BA7C3B1F3A8C3D3
:10184000B2F30301000EAF6F0C0EB06F5CDA00094B
:101850000BE0ABC3B7F3ACC3B8F30301000EB56F35
:101860000C0EB66F9EEC10F049EC71F0010CECEC34
:1018700000F00301ADA102D04187AD91409B409D96
:10188000409F41934195419136EC71F00009FCE095
:10189000060E0301AD1504E00C01A86BA96BB3D0D3
:1018A0000E512F1907E10F51301904E10C01A86BFB
:1018B000A96B91D02F510E5D30510F591FE20E517F
:1018C0002F5D0C01A86F03010F513059A4EC19F0E2
:1018D00004E214C3A8FC15C3A9FCF9EC19F005E255
:1018E00025C3A8FC26C3A9FC4185A8CCC5F3A9CC77
:1018F000C6F39CEC18F002EC1AF06DD00E512B5D83
:101900000C01A66F03010F512C590C01A76FA651B2
:1019100003012F25006E0C01A75103013021016E38
:101920002951005C0C01A86F03012A510158A4EC55
:1019300019F004E214C3A8FC15C3A9FCF9EC19F0D2
:1019400005E225C3A8FC26C3A9FC41850C01A651CC
:10195000A85DA751A95904E2A8CCA6FCA9CCA7FC74
:10196000A6CCC5F3A7CCC6F39CEC18F00C01A6518D
:10197000A85DA66FA751A959A76FA651A71122E08C
:10198000A6CCC5F3A7CCC6F344C3C4F329C3C2F3A2
:101990002AC3C3F30301C16B03010E512B5D006E1B
:1019A0002C510F55016E026A036A070E00260A0EBB
:1019B0000122000E0222032200C0BFF301C0C0F3C7
:1019C0006FEC16F002EC1AF02B510E5D2C510F59F2
:1019D00002E37CEC1BF0030141A715D014510C016C
:1019E000A81904E1030115510C01A9190CE0030128
:1019F00025510C01A81904E1030126510C01A91974
:101A000002E00301AD810C01A851A91104E1030E0C
:101A10000301AD151CE00C01A8510301145F0C017A
:101A2000A9510301155B0C01A851A91102E00301A2
:101A3000AD870301AEA107D0276BF20E026F9E0E99
:101A4000036F046B056BABEC18F0408929D0AEA393
:101A500019D0400EE96E030EEA6EEF50070BE82A2C
:101A6000E850070BF36EF46EF80EEF14F310EF6E00
:101A70000607000E075B085B095B010E0C01A86FEF
:101A8000A96B0ED040A90CD0AEB108D0275106E00A
:101A90002707D8900533043303330233ABEC18F037
:101AA00012C384FC13C385FC10C386FC11C387FCDE
:101AB00006C388FC07C389FC08C38AFC09C38BFCE6
:101AC0000AC38CFC0BC38DFC0CC38EFC0DC38FFCB6
:101AD0000C019091909390959097ADC391FC966B6B
:101AE000976BA851030106270C01A9510301072395
:101AF000000E08230923ADA315D0ADB905D00C0104
:101B00008C6B8D6B8E6B8F6B030124A306D00C0145
:101B10008807895B8A5B8B5B05D0062B072308232C
:101B2000092324830301ADB124813551335D36513E
:101B300034590AE333EC19F00C010250005C926F47
:101B400003500158936F0DD03351355D0C01926FE6
:101B50000301345136590C01936F010E925F000E50
:101B6000935B6FEC71F0F3CF82FCF4CF83FC0C013C
:101B7000400EF35C000EF45803E2826B836B04D0DA
:101B8000400E825F000E835B9251825D93518359B8
:101B900004E282CC92FC83CC93FC0301840EB36FED
:101BA0000C0EB46FEBD9140E0C01A827000EA9235C
:101BB0009089909B908D909F0301ADA323D0040E3C
:101BC0000C01A827000EA923020E986F040E996F2E
:101BD000020E9A6F180E9B6F010E006E900EE96E4A
:101BE0000C0EEA6EEF506DEC1BF000240F0BF36E41
:101BF000F46EF346F346F346F3460F0EEF14F3107C
:101C0000EF6EF4508EC79CFC8FC79DFC90C79EFC66
:101C100091C79FFC18C3A0FC19C3A1FC1AC3A2FC66
:101C20001BC3A3FC0C01A46B060EA56FA8CCA6FCDD
:101C3000A9CCA7FCA8CCC8F6A9CCC9F6F6EC65F0EF
:101C4000F3CFA6FCF4CFA7FC0C0E0601D06FD16B2E
:101C500006019C0ECE6F0C0ECF6F11EC66F0F3CF29
:101C600094FCF4CF95FC0C01941F951F0801DF0E26
:101C7000C16F090EC26F93EC72F0A8CC84F9A9CCA5
:101C800085F90901060E836F0901180E816F030E95
:101C9000826FF4EC9EF0140ED9EC1AF0840ED66F1D
:101CA0000C0ED76F23EC74F00301ADA309D0040E22
:101CB000D9EC1AF0980ED66F0C0ED76F23EC74F097
:101CC0000801F30EC36F090EC46FA0EC72F0A8CC2C
:101CD000C9F8A9CCCAF8D3EC72F0F3CF82FCF4CFE8
:101CE00083FC0801030EC16F0A0EC26F93EC72F001
:101CF000020ED9EC1AF0820ED66F0C0ED76F23ECC1
:101D000074F06AEF72F0AEEC17F0EE50ED1001E1F6
:101D1000000C0C01FE0E266F3CEC1AF0C5EC19F01D
:101D20003CEC1AF00450EE24026E0550EE20036ED7
:101D300012EC1BF00250EE24006E0350EE20016EF8
:101D4000AEEC17F00050EE18276F0150EE18286F18
:101D5000256B255131EC17F048E225CC45F3C4EC56
:101D600000F00D0E03013F5D3DE0040E3F5D0BE111
:101D700073EC1BF00050421935E10150431932E178
:101D800025CC26FC2FD00C012751030142192AE152
:101D90000C0128510301431925E1ECEC00F073EC30
:101DA0001BF00301125100181DE1135101181AE133
:101DB00012EC1BF04FEC19F01051021813E1115105
:101DC000031810E13CEC1AF0EE5018190BE1EE503C
:101DD000191908E1EE501A1905E1EE501B1902E13C
:101DE00001E1010C0C01252BB4D7FE0E265D21E08C
:101DF00026CC45F3B4EC1AF0FE0E0C01265D19E07A
:101E000027CC42F328CC43F349EC1AF032EC1AF019
:101E1000FEEC18F012EC1BF0EECF10F3EDCF11F347
:101E2000AEEC17F0EECF12F3EDCF13F3DEEC1AF0B9
:101E3000010C12EC1BF00D0EF4EC1AF0EF50020B3B
:101E400001E1000C08013851391101E0000C0C01CE
:101E5000296B2A6B030E295D000E2A593BE2E8EC40
:101E60001AF0A2EC1BF036E0E8EC1AF005EC19F0E1
:101E700076EC18F0AEEC17F04FEC19F002500018A9
:101E800024E10350011821E1E8EC1AF0CEEC1AF03D
:101E900076EC18F012EC1BF04FEC19F00250001821
:101EA00014E10350011811E13CEC1AF0BEEC1BF0F8
:101EB000EE500001001808E1EE50011805E1EE5067
:101EC000021802E1EE50031848E00C01292B000E25
:101ED0002A23C0D7256B255131EC17F04EE225CCD3
:101EE00045F3C4EC00F0030140A744D0ECEC00F053
:101EF00073EC1BF00050030112193CE1015013195F
:101F000039E149EC1AF0E8EC1AF0F0EC19F087EC42
:101F100019F012EC1BF076EC18F0E8EC1AF0CEECAD
:101F20001AF000C0EEFF01C0EDFF12EC1BF0040E32
:101F3000F4EC1AF0BEEC1BF00C0EF4EC1AF000C03E
:101F4000EEFF82EC1BF073EC1BF0E8EC1AF005ECF2
:101F500019F000C0EEFF01C0EDFFE0ECAAF027C0D1
:101F600001F0E8EC1AF0D6EC1AF026C0EEFF01C042
:101F7000EDFF000C0C01252BAED7000C17EC1BF06D
:101F80009EEC17F0F3CFEEFF01C0EDFF17EC1BF056
:101F9000020EF4EC1AF09EEC17F0020EF3CFEBFFFA
:101FA000030E8EEC19F0040EECEC17F0040EBBECF3
:101FB00018F0080EECEC17F0080EBBEC18F00E0E43
:101FC000F4EC1AF09EEC17F00E0EF3CFEBFF0F0EB1
:101FD0008EEC19F005EC19F09EEC17F0100EF3CF13
:101FE000EBFF110E8EEC19F0D6EC1AF09EEC17F008
:101FF000120EF3CFEBFF130E01C0EBFF1200ECEC5F
:1020000000F012C342F313C343F39FEC19F029C34A
:1020100031F32AC332F32BC333F32CC334F3C4ECB0
:102020001AF003014051080B02E0040E01D00D0E1E
:102030003F6F4091409340954099409B409D409F09
:10204000419141934195419741892491249324974B
:102050002499DEEC1AF04BEC62F0F3CF06F3F4CFE8
:1020600007F34BEC62F0F3CF08F3F4CF09F303016D
:1020700022692369010E146F156B12000C0E090101
:10208000866F876B67EC9FF0FDEC73F00C01416F7E
:10209000F00E4115E840E8403F0B82EC1AF000C01A
:1020A00041FC005046E0070E0BEC1AF00C014151C8
:1020B000410700093EE0E3EC1AF0E8503AE042053F
:1020C000F5E0020E425D26E1030E415D32E3436B13
:1020D000446BE3EC1AF0040E425D08E1FDEC73F092
:1020E0000C01446FFDEC73F00C01436F180E435D5F
:1020F000020E44591EE3B40ED8804355050E4455D4
:1021000004E2B40EF36E050E17D043CCF3FF44CCBB
:10211000F4FF1200020E415D0CE3E3EC1AF0E8500C
:10212000415D07E342510BEC1AF00C014251415F53
:10213000BDD7180EF36E020EF46E120034EC1BF0D5
:102140000D0EF4EC1AF0EFCF33FC34EC1BF0080E5C
:10215000F4EC1AF0EECF34FCEECF35FCEECF36FCCB
:10216000EFCF37FC34EC1BF0040EF4EC1AF0EECF9A
:1021700038FCEECF39FCEECF3AFCEFCF3BFC03014D
:1021800040914093409540B902D07DEC17F03F510B
:10219000050A1FE0010A08E0B7C33CFCB8C33DFCD8
:1021A0000C0133A14AD046D00C0133B510D033A96D
:1021B00006D054EC19F0040E43EC1BF008D033A306
:1021C00006D0DEEC18F089EC1AF040EF19F0FFEFC2
:1021D0000FF00C0133B5120033A910D02CEC1AF01B
:1021E0000301061908E1EE50071905E1EE50081940
:1021F00002E1EE50091902E0CFEF17F00C0133A312
:1022000090EF15F0DEEC18F013EC1AF0EECF14F3AB
:10221000EDCF15F389EC1AF00C0133A909D0BAEC13
:1022200017F00301070E3F6F7DEC17F04099120085
:1022300040EF19F03C2B000E3D2333A303D03C2B81
:10224000000E3D2320EC1AF00AE333EC19F00C01E8
:102250000250005C316F03500158326F0DD0335182
:10226000355D0C01316F0301345136590C01326F69
:10227000010E315F000E325B0A0EE96E030EEA6E4C
:10228000EE50385D2B6FEE5039592C6FEE503A59A5
:102290002D6FEE503B592E6F2BCC2FFC2CCC30FCED
:1022A0003E6B3C513D115FE03151321169E0800ECF
:1022B0002E1503E1E8EC18F03BE33CCC00F03DCCFC
:1022C00001F0026A036A2B0EE96E0C0EEA6EEE5004
:1022D0000026EE500122EE500222EE50032203347B
:1022E000000E031809E6D880000E0054000E0154B9
:1022F000000E0254000E03541DE23C51315D046E89
:1023000032513D55056E066A076A05AE02D0066871
:10231000076807502E19E8AE02D02E3508D02B5191
:10232000045C2C5105582D5106582E51075802E3D4
:10233000010E3E6F89EC1BF02E510318E8AE02D05F
:10234000033402D057EC1BF01BE22F513C25046EE6
:1023500030513D21056EE83413E204500008000EB0
:1023600005540EE20BD02B512C112D112E1106E02D
:10237000800E2E1505E1E8EC18F002E2010E3E6F2A
:102380003E5104E133B5CCD3BAEF17F0060E331546
:1023900002E0FFEF0FF033A9120003013F510C0AD6
:1023A00001E1B0D10B0A1CE00F0A1AE0010A18E0A3
:1023B000020A16E0010A14E00C0A01E0BFD12CEC7D
:1023C0001AF0061908E1EE50071905E1EE50081958
:1023D00002E1EE50091902E0CFEF17F0070E3F6F50
:1023E0000E512F5D0C01296F03010F5130590C0163
:1023F0002A6F800E2A1508E00301A7EC17F00050A1
:102400000C01292701502A2329CC00F02ACC01F005
:10241000026A036AA6EC1BF0EE500024256FEE5012
:102420000120266FEE500220276FEE500320286F08
:10243000250EE96E0C0EEA6EEE50EBEC18F002E69B
:10244000AEEC19F015E203012451010B0AE0010E74
:102450000C01251905E1265103E1275101E128511D
:1024600002E051EF1AF03407000E355B365B375B44
:10247000030117EC1AF001AE02D002680368A6EC63
:102480001BF00050EE5C0C01256F0150EE58266FDA
:102490000250EE58276F0350EE58286F030137ECB7
:1024A0001AF00BE2ABEC1BF000500C01255F015061
:1024B000265B0250275B0350285B250EE96E0C0E4D
:1024C000EA6EEE500C01EBEC18F002E6AEEC19F0FF
:1024D0006CE20301ABEC1BF00C012551005C2651B2
:1024E000015827510258285103585FE303012497EC
:1024F0002499419131C329FC32C32AFC0C01255196
:10250000030131270C012651030132230C0129510B
:1025100003010E5D0C012A5103010F5909E337EC49
:102520001AF02FE20E51315D006E32510F551BD063
:10253000A7EC17F00E5100240C01296F03010F5175
:1025400001200C012A6F030131510C01295D0301A7
:1025500032510C012A5915E229510301315D006EF7
:1025600032510C012A55016E00010050030106276B
:102570000001015003010723000E08230923D1ECB9
:102580001AF003012B51315D2C51325906E3A7ECAF
:1025900017F00050315F0150325B2B510E5D2C5112
:1025A0000F5928E37CEC1BF025D003010E513119A3
:1025B00002E10F5132191EE024A71BD024A918D024
:1025C00017EC1AF001AE02D002680368005047EC25
:1025D00019F037EC1AF009E2ABEC1BF001AE02D0B7
:1025E00002680368005047EC19F0D1EC1AF04185FD
:1025F000248924872F5131191CE13051321919E1F6
:1026000041B704D07DEC17F0409913D05FEC18F07F
:1026100010E1EE5035190DE1EE5036190AE1EE5099
:10262000371907E106E103012451010B02E040994B
:1026300041972CEC1AF00301065D006EEE5007592D
:10264000016EEE500859026EEE500959036E13ECFC
:102650001AF00C010050EE5C3F6F0150EE58406FD5
:1026600003011451151106E10C013F51401102E024
:10267000030141833FCC14F340CC15F3080E030152
:102680003F5D20E15FEC18F059E1EE50351956E15D
:10269000EE50361953E1EE50371950E14FE1030186
:1026A0002451010B4BE0F8EC1AF0BA0E0301372766
:1026B0001A0E3823030E3923000E3A234089090EDF
:1026C0003F6F3CD0090E3F5D0AE10C0133B136D0BB
:1026D00054EC19F0140E43EC1BF0FFEF0FF00A0E50
:1026E0003F5D2CE15FEC18F00CE1EE50351909E18B
:1026F000EE50361906E1EE50371903E101E010D231
:102700007EDC120006C300F007C301F008C302F02C
:1027100009C303F0002ACEEC1BF000500C01341961
:102720000CE10150351909E10250361906E1035058
:10273000371903E101E0F4D162DC12000C0133BB74
:1027400012000B0E03013F5D01E112000A0E3F5D16
:1027500001E112000C0E3F5D01E11200B751B8110A
:1027600001E166D10C01303504E22F510008000E62
:10277000305501E2A2D06EEC18F0006E016A2F51C4
:10278000F35C0901866F0C01305101580901876F14
:1027900067EC9FF00C012F510301B7270C0130515A
:1027A0000301B823B7510C01315D0301B8510C018D
:1027B000325904E231CCB7F332CCB8F30301B7514C
:1027C0000A27B8510B23000E0C230D233351B725D4
:1027D000006E3451B82126EC1AF024E233512D5DFD
:1027E0000C01296F030134512E590C012A6F010E7F
:1027F0002927000E2A2390EC1BF033C3BFF334C308
:10280000C0F303EC1BF092EC19F0006EB8510C0110
:102810002A55016E03012B510024336F2C510120E6
:10282000346F0CD029EC1BF033C3BFF334C3C0F3B7
:1028300056DA0301B7513327B8513423221D01E181
:10284000231D01E1F5D0B751225FB851235B16512A
:1028500022250C01296F0301175123210C012A6F36
:10286000800E2A1502E0030125D00301233504E27E
:1028700022510008000E235501E2DAD00C01295143
:1028800003010A270C012A5103010B23000E0C231C
:102890000D230C012951030133270C012A51030197
:1028A000342333512D5D34512E5904E25BDB335F09
:1028B0000150345B22692369BBD0303501E3B8D0C5
:1028C0002F510008000E305501E3B2D00301B7517B
:1028D0000C012F25006E0301B8510C013021016E4F
:1028E0000050315D0150325909E22F51315D030131
:1028F000B76F0C01305132590301B86FEFDB09019A
:10290000866F876B67EC9FF0B0EC1BF0026EB5EC46
:102910001BF0036E02500301B725006E0350B8216F
:1029200026EC1AF031E233512D5D006E2E513455F4
:102930001CEC1BF00C012F51005C296F3051015829
:102940002A6F800E2A1508E190EC1BF059EC19F063
:10295000C06F03EC1BF01DD029EC1BF0B0EC1BF09A
:10296000006EB5EC1BF0016E03012B512D5D026E64
:102970002E512C55036EAFEC1AF003010250005C8F
:10298000BF6F0350015804D029EC1BF059EC19F02B
:10299000C06FA5D90301221D0BE1231D09E12FCC36
:1029A00022F330CC23F3B7C316F3B8C317F340D0E8
:1029B00022510C012F5D030123510C0130591EE2FD
:1029C0003DDB06E30C015FEC19F02351055805E2ED
:1029D000B7C316F3B8C317F30CD098EC19F00C0179
:1029E0002F51005C0301166F0C0130510158030197
:1029F000176F2FCC22F330CC23F31AD01FDB18E251
:102A000098EC19F00C012F51005C3051015810E383
:102A10005FEC19F0026E23510558036E1651025CEB
:102A2000006E17510358016E0050162701501723EE
:102A30000C013C513D1119E0070E03013F5D04E01C
:102A400033C335F334C336F340AF04D093DAECEC40
:102A500000F00BD0408F40BD08D0408D90EC1AF0B4
:102A60000F0E03013D27000E3E230C0133A158D069
:102A70000AC300F00BC301F00CC302F00DC303F056
:102A8000002ACEEC1BF03CCC04F03DCC05F0066AED
:102A9000076A380EE96E0C0EEA6EEE500426EE5010
:102AA0000522EE500622EE5007220050041838E1AD
:102AB0000150051835E10250061832E1035007189D
:102AC0002FE12EE196EC1BF03F51090A24E0010AA8
:102AD00012E00F0A06E0010A22E10C0E3F6FFAEF46
:102AE00018F00B0E3F6F90EC1AF01F0E03013D27FC
:102AF000000E3E2314D0E3DA0AE1EE50351907E167
:102B0000EE50361904E1EE50371901E104E00301FB
:102B10000A0E3F6F04D051EC1AF0FFEF0FF02ADAE3
:102B200012000301B9519DD901E3000CB9C345F36B
:102B3000C4EC00F00301BA51BB1103E1010EBA6FFE
:102B4000BB6B29512D5D0C01006F03012A512E59D9
:102B50000C01016F010E005F000E015B030197EC99
:102B60001AF00C010050005D0150015901E2000C07
:102B7000ECEC00F0030E0301BE1502E1030EBE13E0
:102B8000BCC304FCBDC305FC97EC1AF000500C015B
:102B9000005F0150015B0301BEA313D0BEA10CD0A6
:102BA00000CC00F001CC01F0D8900132003200508E
:102BB0000C010427015004D00C01005104270151DD
:102BC0000523030129510C010425006F03012A513B
:102BD0000C010521016F010E0027000E012333C3F4
:102BE00002FC34C303FC0301221D01E1231D13E099
:102BF0009FDB00500C010227015003230251030107
:102C00002D5D0C01035103012E5905E2ABD90C01D6
:102C1000025F0150035B0C0102510301355D0C01A1
:102C20000351030136590CE20C0100510301355DDB
:102C30000C0101510301365918E2BEA50ED0000C5B
:102C400057EC1AF00AE2005103012B5D0C0101510F
:102C500003012C590AE2BEB5000C00CC35F301CCBF
:102C600036F300CC33F301CC34F3030157EC1AF004
:102C700025E2040E0301BE1521E02B510C01025D7B
:102C80000301C56F03012C510C0103598EDB44C3B2
:102C9000C1F300CCBFF301CCC0F321D8D1DB0EE2ED
:102CA0000C01005103012B5D006E2C510C010155EC
:102CB000016E00500301335F0150345B00CC2BF3F5
:102CC00001CC2CF3DEEC1AF029C331F32AC332F322
:102CD00036DB070E03013F5D01E14CD9010C030116
:102CE000C4512AE0010A01E01200C15111E0010AB9
:102CF00001E01200C5C3E6FFC6C3E6FFC2C3E6FF9C
:102D0000C3C3E6FFBFC3E6FFC0C3E6FFFEEF18F094
:102D1000BF1D01E1C01D06E0BFC3C1F8C0C3C2F8BA
:102D200093EC72F0C5C3D8F8C6C3D9F8C2C3D6F8BD
:102D3000C3C3D7F823EF74F0C15117E0010A01E0D3
:102D40001200C21D01E1C31D06E0C2C3C3F8C3C324
:102D5000C4F8A0EC72F0C5C3D3F8C6C3D4F8BFC39F
:102D6000D1F8C0C3D2F8FFEF73F0C5C3CFF8C6C324
:102D7000D0F8C2C3CDF8C3C3CEF8BFC3CBF8C0C32D
:102D8000CCF85DEC73F0F7EC73F00009FCE0120096
:102D90000301C9510EE0010A01E01200CDC3E6FFB4
:102DA000CEC3E6FFCBDBC7C3E6FFC8C3E6FFA5EF94
:102DB0001AF0C71D01E1C81D06E0C7C3C1F8C8C3AA
:102DC000C2F893EC72F0100E0C01286F296B03010E
:102DD000CD51CE1137E00C0128510301CD5D0C011E
:102DE00029510301CE5904E2CDC328FCCEC329FCEE
:102DF00028CCE6FF29CCE6FFA1DB180EE66E0C0E10
:102E0000E66EA3DB28CCD8F829CCD9F80801180E37
:102E1000D66F0C0ED76F23EC74F028CC00F029CCC1
:102E200001F0026A00500301CA270150CB2302506F
:102E3000CC230C0128510301CD5F0C012951030162
:102E4000CE5BC5D71200140EEA02F3CFEAFFE90207
:102E5000F3CFE9FFF450EA26000EE926080EEA2235
:102E60001200006E016A090E005C000E015812008B
:102E700004CCC5F305CCC6F30301020ED880C557B8
:102E8000000EC657140EC603F3CFC6F3C503F3CF27
:102E9000C5F3F450C6270301010EC46F0C010425CD
:102EA0000301C26F000E0C0105210301C36F140E54
:102EB000C303F3CFC3F3C203F3CFC2F3F450C3276A
:102EC000000EC227080EC323BAEC1BF0140E286EA6
:102ED000296A04CC2DF005CC2EF02DEC7FF026C015
:102EE000BFF327C0C0F3000E0301BF27080EC023A5
:102EF000F6DE0801386B396B12007ADB740E0301C1
:102F00003727350E3823060E3923000E3A231200D8
:102F1000200E006E5A0E016E010E026E14CC03F0EC
:102F2000046A056A060E2C6E2D6A2E6A14CC27F0F0
:102F300004C028F005C029F04BEF7FF0EECFC8F6B3
:102F4000EDCFC9F6F6EC65F0F8DB17EF1BF0295171
:102F50002B5D006E2C512A55016E120063DB020EB0
:102F6000F4EF1AF02B512D5D006E2E512C5564DBC1
:102F70000050120074DB100E43EF1BF07ADB060EDC
:102F800061D300502424F36E01502520F46E0250CA
:102F90002620F86EF4CFF7FFF3CFF6FF120006C33A
:102FA00038FC07C339FC08C33AFC09C33BFCEDDB22
:102FB00056DB040E68DB38CC06F339CC07F33ACC89
:102FC00008F33BCC09F312000301C46B0301C2698F
:102FD000C36944C3C1F3120007DBEECFCAF6EECFDC
:102FE000CBF6EECFCCF6EFCFCDF6FBEC65F026C0FE
:102FF00000F027C001F028C002F029C003F017EF4D
:103000001BF0016E00C0F3FFF46E12000ACC96F3C1
:103010000BCC97F30CCC98F303010ACCF6FF962B5C
:103020000BCCF7FF000E97230CCCF8FF9823080079
:10303000F5CF0EFC12001DDB1F0E04D32F51030130
:10304000B725006E0C0130510301B821016E2251E9
:103050001625026E23511721036E0050025C0150A9
:10306000035812001A511825026E1B511921036EC4
:1030700002501025006E0350112122D3CEECAAF08D
:1030800003013751265C006E38512758016E3951C3
:103090002858026E3A512958036E0001800E03141D
:1030A00012004551EA6A490FE96E0C0EEA2212003D
:1030B0000D51EA6A110FE96E0C0EEA22120046DB8E
:1030C000EE500C013419120096C3F6FF962B97C3ED
:1030D000F7FF000EE3DA010E106F1200C5DA0C0ED6
:1030E00083DAEF50FADA040DF3501200EECF00F05D
:1030F000EFCF01F012000301010EC46F64C3C2F3ED
:1031000065C3C3F346EF1BF044C3C4F335C3C2F336
:1031100036C3C3F32FDB7CC3BFF37DC3C0F36FEFB4
:1031200016F000010224006E000E032085DA00C0B4
:10313000F3FF01C0F4FF120044C3C4F30EC3C2F393
:103140000FC3C3F30301C16B0301070EBF6F0A0E68
:10315000C06F6FEF16F0CEECAAF0265003010225E7
:10316000376F27500321386F28500421396F2950B9
:1031700005213A6F120038DA26C0EEFFC3DA17EFE6
:103180001BF069C3CAF36AC3CBF36BC3CCF344C36C
:10319000C9F32FC3C7F330C3C8F3C8EF16F043CC4D
:1031A0008CF344CC8DF3030143CCE9FF44CCEAFF1C
:1031B0008C2B000E8D23EFCF46FC120038CC0AF387
:1031C00039CC0BF33ACC0CF33BCC0DF396EF1BF060
:1031D000A0DA57EF1BF0345D256FEE503559266F9E
:1031E000EE503659276FEE503759286FE834000EED
:1031F0002819120034DA110E43EF1BF006EC90F0A0
:10320000006E060EE15E00501200100EF4EF1AF090
:103210001C0D93DA000E0026010E012200C0E6FF0D
:1032200001C0E6FF1200036E02504B25006E0350F2
:103230004C2146D244C3C4F300CCC2F301CCC3F347
:1032400099DA82C3BFF383C3C0F312008CC3E9FFD2
:103250008DC3EAFF8C2B000E8D23EFCF46FC0C01B3
:10326000010E486F12002B512D5D006E2E512C5512
:10327000016E3551335D026E34513655036E1200C6
:10328000EED9120E00DA0301060E3F6F1200065F40
:103290000150075B0250085B0350095B1200EECF40
:1032A00002F0EFCF03F0120070DA0301AE6B0301FE
:1032B000120056DA0301BF6F58DA030112002F51D2
:1032C0000301B725046E0C0130510301B821056ECE
:1032D0002251045C12000301C56FC66B44C3C4F3E2
:1032E000120022511C0DF3CFE9FFF4CFEAFF000ECC
:1032F000E926010EEA221200E0ECAAF003012650B2
:103300003D5D006E27503E59016EE834120006EC18
:1033100090F0026E060EE15E0250120001C0EBFF5B
:1033200017EF1BF0DCDC0C0129510301B75D120023
:1033300022511625006E23511721016E120029C358
:103340002FF32AC330F312000C01A96FA851030117
:10335000145D0C01A951030115591200D880000E0B
:103360002555000E2655000E2755000E2855120033
:10337000006E016A0050120046C318F347C319F3E8
:1033800048C31AF349C31BF31200020E2DD9EECF26
:1033900004F0EFCF05F012000C012C5103016C5D1D
:1033A0000C012D5103016D5912000301C66F44C376
:1033B000C4F32BC3C2F32CC3C3F3120003018E5119
:1033C0000C013B5D03018F510C013C5912000301BC
:1033D00099510C01025D03019A510C01035912002D
:1033E000E9CF00F0EACF01F0E9CFE6FFEACFE6FF50
:1033F00012000C01A8510301255D0C01A951030124
:10340000265912000C01A85103010E270C01A951E5
:1034100003010F2312000801D36FD46B0801D16B95
:10342000D26BFFEF73F020D90E0EF4EF1AF031518A
:103430000E5D006E0F513255016E026A036A120072
:1034400003013551335D365134591200016E00507D
:103450002D5D01502E591200340EE96E0C0EEA6EED
:10346000EE501200180EE66E030EE66E1200315199
:103470000E5D32510F591200B1C3E9FFB2C3EAFF2A
:103480001200E3510301665D0C01E4510301675929
:1034900012000A0EE66EE66AB1C3E6FFB2C3E6FFAB
:1034A00012000301AE6B0301100E43EF1BF0355108
:1034B0000C01025D030136510C0103591200C4ECEA
:1034C00000F033C335F334C336F31200016E030149
:1034D0002B51005C2C510158120003018E07000E85
:1034E0008F5B8E518F11120003019907000E9A5BBA
:1034F00099519A111200272BD890023703370437BD
:1035000005371200006E016A140E005E000E015AAB
:1035100012003EEC10F0F3CF25F3F4CF26F31200A7
:10352000E0ECAAF026C03DF327C03EF31200BA51EA
:10353000BC25006EBB51BD21016E1200CAC3E6FF5F
:10354000CBC3E6FFCCC3E6FF120031EC90F0006E77
:10355000070EE15E005012000DD903011200010EAA
:103560000226000E03221200C4EC00F0ECEF00F083
:1035700061C35FF31BEF03F063C35FF31BEF03F063
:1035800068C35FF31BEF03F02BC335F32CC336F393
:10359000120000500008000E015412000A0EF4EF51
:1035A0001AF031C30EF332C30FF31200120EF4EF10
:1035B0001AF00801D86FD96B0801120029C30EF365
:1035C0002AC30FF31200FDEC73F00C01426F1200DE
:1035D00029CCE9FF2ACCEAFF23EF17F004CCE9FF5E
:1035E00005CCEAFF23EF17F0E926000EEA221200CD
:1035F000CEECAAF026C037F327C038F328C039F341
:1036000029C03AF312008EDE0301C56F0C012A5166
:103610000301B8590301C66FD7DC2BC3BFF32CC31A
:10362000C0F31200AFC3E9FFB0C3EAFF1200B3C397
:10363000E9FFB4C3EAFF1200016E010E0026000E7E
:10364000012212000026AAD800C03BF301C03CF3BF
:103650001200B7C3C5F3B8C3C6F3E4EF17F0030114
:10366000010EAE6F03011200B5C3E9FFB6C3EAFF56
:103670001200408BE0ECAAF026C000F027C001F059
:10368000026A036A1200AD6F37EF0CF044C3C1F356
:103690002FC3BFF330C3C0F36FEF16F0972398C367
:1036A000F8FF98230800F5CF0EFC0C011200005023
:1036B0002B5D01502C5902502D5903502E591200E8
:1036C000016E00501219426F01501319436F12001E
:1036D0003EDCD890013200321200F00BE842E842A2
:1036E000E842E84212003ADC76EF18F025C004F018
:1036F00026C005F0C1EF17F02ADC00500E5F015024
:103700000F5B120001C0EEFF02C0EEFF03C0EEFF30
:10371000120031CC00F032CC01F0026A036A1200D0
:1037200029CCC5F32ACCC6F3E4EF17F003010A2B2A
:10373000000E0B230C230D231200F3CF00F0F4CF67
:1037400001F0120062DDEE50ED101200060EE96E7F
:10375000030EEA6E1200A7EC17F0026A036A120069
:10376000030133510C012F251200030134510C01C8
:10377000302112000301010EC16F1200EECF00F0E4
:10378000EECF01F08CDDE8EF1AF034CC06F335CC47
:1037900007F336CC08F337CC09F31200000E0122F0
:1037A0000222032212002D0E0901001905E1015128
:1037B00003E1025101E1035101E141D22C0E001954
:1037C00005E1015103E1025101E1035101E135D26B
:1037D0002B0E001905E1015103E1025101E10351F2
:1037E00001E129D22A0E001905E1015103E102513C
:1037F00001E1035101E119D2290E001905E101513E
:1038000003E1025101E1035101E10DD2280E00193B
:1038100005E1015103E1025101E1035101E100D24F
:10382000270E001905E1015103E1025101E10351A5
:1038300001E1F4D1260E001905E1015103E1025125
:1038400001E1035101E1E8D1250E001905E1015123
:1038500003E1025101E1035101E1DCD1240E001921
:1038600005E1015103E1025101E1035101E1D0D130
:10387000230E001905E1015103E1025101E1035159
:1038800001E1C4D1220E001905E1015103E1025109
:1038900001E1035101E1B8D1210E001905E1015107
:1038A00003E1025101E1035101E1ACD1200E001905
:1038B00005E1015103E1025101E1035101E1A0D110
:1038C0001F0E001905E1015103E1025101E103510D
:1038D00001E194D11E0E001905E1015103E10251ED
:1038E00001E1035101E188D11D0E001905E10151EB
:1038F00003E1025101E1035101E17CD11C0E0019E9
:1039000005E1015103E1025101E1035101E170D1EF
:103910001B0E001905E1015103E1025101E10351C0
:1039200001E164D11A0E001905E1015103E10251D0
:1039300001E1035101E158D1190E001905E10151CE
:1039400003E1025101E1035101E14CD1180E0019CC
:1039500005E1015103E1025101E1035101E13CD1D3
:10396000170E001905E1015103E1025101E1035174
:1039700001E130D1160E001905E1015103E10251B8
:1039800001E1035101E123D1150E001905E10151B7
:1039900003E1025101E1035101E113D1140E0019B9
:1039A00005E1015103E1025101E1035101E107D1B8
:1039B000130E001905E1015103E1025101E1035128
:1039C00001E1FAD0120E001905E1015103E10251A3
:1039D00001E1035101E1EED0110E001905E10151A1
:1039E00003E1025101E1035101E1E2D0100E00199F
:1039F00005E1015103E1025101E1035101E1D6D09A
:103A00000F0E001905E1015103E1025101E10351DB
:103A100001E1CAD00E0E001905E1015103E1025186
:103A200001E1035101E1BED00D0E001905E1015184
:103A300003E1025101E1035101E1B2D00C0E001982
:103A400005E1015103E1025101E1035101E1A6D079
:103A50000B0E001905E1015103E1025101E103518F
:103A600001E197D00A0E001905E1015103E102516D
:103A700001E1035101E187D0090E001905E101516F
:103A800003E1025101E1035101E17BD0080E00196D
:103A900005E1015103E1025101E103516AE0070E22
:103AA000001905E1015103E1025101E103515DE01B
:103AB000060E001905E1015103E1025101E1035134
:103AC00051E0050E001905E1015103E1025101E148
:103AD000035146E0040E001905E1015103E10251D2
:103AE00001E103513BE0030E001905E1015103E13F
:103AF000025101E1035130E0020E001905E10151CC
:103B000003E1025101E103511EE0010E001905E13C
:103B1000015103E1025101E1035113E0005101E0C1
:103B200090D0015101E08DD0025101E08AD00351C3
:103B300001E087D00901540E1E6F890E1F6F000E21
:103B400008D097EF35F00901490E1E6F890E1F6FDF
:103B5000000E206FAAEF27F0ACEF35F033EF1EF028
:103B6000A4EF33F00E01656B11D0010E0E01696FE9
:103B700002D00E01696B6A6B0E01676B686B45EFD3
:103B800034F0D1EF33F0010E0E01656F666B09EF73
:103B900034F00E01636B646BD9EF33F08EEF34F0C9
:103BA0002CEF35F047EF35F07CEF35F081EF35F055
:103BB000C3EF35F0A6EF36F00E016F6B05D0010EA6
:103BC00001D0020E0E016F6F706B7BEF36F00E01AD
:103BD000716B05D0010E01D0020E0E01716F726B78
:103BE0007CEF36F0B3EF36F05EEF36F01CEF36F0D8
:103BF00021EF36F02CEF36F036EF36F040EF36F0AE
:103C00004AEF36F054EF36F07DEF36F07FEF36F0C6
:103C1000A9EF36F0A3EF36F088EF36F090EF36F0EC
:103C20000E01736B05D0010E01D0020E0E01736FF1
:103C3000746B87EF36F084EF36F085EF36F086EF61
:103C400036F0040E03016C6F6D6B0301440E696F57
:103C5000890E6A6F000E6B6FCDEC29F0EE52EFCF3C
:103C600068F340EF04F003017E0E626FE4EF2AF088
:103C70000401836B020E835D30E22EEC28F0EF6AC4
:103C80000301080E4D6F500E03014B6F4C6B030187
:103C90004A6B0301466B476B486B496BE7EC01F0DD
:103CA000E66ECDEC29F0EE52E552E750EF6E146966
:103CB0001569835195EC28F08FEC29F0F3CF00FCC7
:103CC000F4CF01FCEAEC28F000CCC1F801CCC2F83A
:103CD00093EC72F00401832BCDD7836B12000C019F
:103CE000EE6B020EEE5D36E29FEC28F0EE52EF50E6
:103CF000FE082DE09FEC28F0EE52EFCF4EF37FEC64
:103D000002F0000914E0EECC04F925D8CDEC29F03E
:103D1000EF6AFF0E145D02E01DEC29F0FF0E155D49
:103D200002E024EC29F00301040E62EC2AF00C01FD
:103D30009FEC28F0EF5007E19FEC28F090EC28F082
:103D4000B2EC28F004E0EECC04F905D83ED80C0122
:103D5000EE2BC7D71200040183510901045D01E174
:103D600012000401835195EC28F08FEC29F0F3CF79
:103D700000FCF4CF01FCEAEC28F000CCC1F801CC47
:103D8000C2F893EC72F00901045195EC28F000C0E0
:103D9000C3F801C0C4F8A0EC72F0F3CF00FCF4CF7C
:103DA00001FC7F0E0801D36FD46B0801000ED16FA8
:103DB000040ED26FFFEC73F000CCC3F801CCC4F852
:103DC000A0EC72F004C983F412000C01010ECE6F56
:103DD000CDEC29F0EF500B0A02E150EF23F0010A7D
:103DE00002E12DEF23F0030A02E116EF23F0010AAE
:103DF00001E1B9D30F0A01E11FD3010A01E102D3A6
:103E0000030A01E17AD2010A01E16ED2070A01E157
:103E100047D2010A01E1A4D1030A27E0010A02E026
:103E20005DEF23F08AEC2AF0F3CFC8FCF4CFC9FC95
:103E3000F350F41002E15DEF23F004011A0E106F4D
:103E4000040E116F2EEC28F0010EEF6E1769166B41
:103E500056EC28F00C690D690E690F69AAEC29F07F
:103E60007E6B0301050E62EC2AF053EC28F00A0E7B
:103E7000B5EC2AF0DCEC29F00001F31C14E1011C84
:103E800012E1CDEC29F0E6EC29F004E1EDEC29F0AB
:103E90000C01CE6B7DEC28F002E6C4EC28F002E3C6
:103EA0005DEF23F042D256EC28F0DCEC2AF00C0156
:103EB000050ED880F354000EF45403E2050EC86FCB
:103EC000C96B010E30EC29F01A0E7C6F040E7D6F69
:103ED0005FEC2AF0030EE66EE66A720EE66E820E64
:103EE000E66E000E31EC2AF003E10401186B12D0EB
:103EF000040EE66EE66A6D0EE66E820EE66E000E4B
:103F000031EC2AF004E10401010E186F03D0040122
:103F1000070ECAD1DCEC2AF00301A66BF3CFA4F3A1
:103F2000F4CFA5F30301A26BA36B03013F0EA16FB6
:103F3000CDEC29F03AEC29F00C01F350C85DF450B7
:103F4000C95904E3CACCC8FCCBCCC9FC590ED880F3
:103F5000C855000EC95501E2ECD0D1EC2AF048EC6E
:103F60002AF01A0EF324E96E040EF420EA6E64ECD3
:103F700029F01A0EE66E040EE66E1AEC2AF048ECF2
:103F80002AF00B0EE66EE66A620EE66E820EE66EB2
:103F9000000EE66E1B0EE66E040EB6EC28F00CE189
:103FA0003DEC29F0185102E1080E01D0090E186FFE
:103FB0002EEC28F0020E2ED2E2EC28F002E047ECC4
:103FC00029F0FF0E0401145D31E1E2EC28F00EE06F
:103FD0000C01CACCE9FFCBCCEAFFCA2B000ECB23E5
:103FE0001A0EE926040EEA222F0EEF6E95EC29F048
:103FF0001A0E0C01CA25006E040ECB21016E00C002
:10400000E6FFE66EE3EC90F0026E050EE15E025014
:1040100095EC29F00AEC91F0E552E552E552275073
:104020000C01CA272850CB2347EC29F01A0E0C01AB
:10403000CA25CF6F040ECB21D06F010ECF5F000ECB
:10404000D05B1A0ECF1902E1040ED01909E0CFCCD3
:10405000E9FFD0CCEAFFEF502E0802E0CF07EFD700
:10406000CF2B000ED0230401196B0B0EE76E19192C
:10407000E8AE02D0E73402D0E750195D23E2510EDA
:10408000006E580E016E010E026E19C403F0046A30
:10409000056A03AE02D004680568FEEC29F0F5CF8E
:1040A000C5F60900F5CFC6F60800F5CFC7F6CFCCA8
:1040B000C3F6D0CCC4F6B7EC65F0000903E0040108
:1040C000192BD3D73DEC29F0FF0E145D18E014C472
:1040D000EEF01CEC54F0F350020B11E014C4F9F0B4
:1040E00016EC55F0F3CFD0F0F4CFD1F0010E000173
:1040F000D027000ED12302EC52F00401156FDCEC46
:104100002AF0F350F4101CE00401010E166F0301B5
:10411000CC0E796F0C0E7A6FCDEC29F07AEC29F089
:104120000C01C807000EC95B620EC85D000EC959BC
:1041300003E30401050EB8D0D1EC2AF0CEEC28F050
:10414000E0EC2AF0010EF32403017E6F000EF42050
:104150007F6F0301CDEC2AF0CDEC29F0020EEF6E5B
:10416000E0EC2AF00C01F31C13E1C91D11E1CDECC8
:1041700029F0E6EC29F004E1EDEC29F00C01CE6B1E
:104180007DEC28F002E6C4EC28F001E396D2CDD015
:1041900056EC28F00C01010EC8190BE1C95109E1D8
:1041A000020EAFEC29F0CDEC2AF0CDEC29F0030E95
:1041B00031D10301A66BC8CCA4F3C9CCA5F303018C
:1041C000A26BA36B03013A0EA16FCDEC29F03AEC80
:1041D00029F0020E0C01CA27000ECB23CE6B100E65
:1041E000D880CA55000ECB5502E2010E54D0CACC7D
:1041F0007EF3CBCC7FF30301D10E7C6F0C0E7D6F71
:104200005FEC2AF022EC2AF0D10EE9260C0EEA220D
:10421000EF6A0C01CA51C85FCB51C95BCD6BCD5160
:10422000006E016A030E005C000E01582EE2C30E00
:10423000006E580E016E010E026ECDCC03F0046AC2
:10424000056A85EC29F0CDCC27F033EC28F0F5CFCA
:10425000E6FF0900F5CFE6FF0800F5CFE6FFD10E37
:10426000E66E0C0EE66ECDEC90F0066E050EE15E8D
:104270000650000907E1CDCC05F9E8DA0C01010E82
:10428000CE6F03D00C01CD2BCAD7CE5102E0E0ECAB
:104290002AF0010E0C0130EC29F0CDEC2AF060D7A9
:1042A000800E175D03E2030E186FB1D010C4E9FF52
:1042B00011C4EAFF64EC29F0F3CF10F4F4CF11F449
:1042C000080E0401185D01E1A2D02EEC28F0040EC6
:1042D000EF6E165104E12EEC28F0050EEF6E0C0186
:1042E000CE6B0401166BE9D126EC2BF0020801E13C
:1042F000E4D1CDEC29F0050EEF6E8AEC2AF0B9EC92
:104300002AF0F35004010C1914E101500D1911E1C8
:1043100002500E190EE103500F190BE10AE17DEC7A
:1043200028F002E6C4EC28F004E290EC2AF00B0E30
:1043300071D0180515E0090EE76E1819E8AE02D025
:10434000E73402D0E750185D59E30B0EE76E1819F9
:10435000E8AE02D0183503D0E750D88018554EE3A8
:10436000090EE76E1819E8AE02D0E73402D0E75024
:10437000185D13E30B0EE76E1819E8AE02D018357E
:1043800003D0E750D880185508E3CBEC26F00C0199
:10439000CC6FE85006E104013AD099EC2EF00C0104
:1043A000CC6F020ECC5D0CE18DEC2AF0B4EC29F060
:1043B0000401010E0C5F000E0D5B0E6B0F6B7DD1C7
:1043C000CC051CE18DEC2AF0B4EC29F004010E6B55
:1043D0000F6B56EC28F008EC29F00C5DEE500D59EF
:1043E000EE500E59EE500F5906E22EEC28F0E6EC96
:1043F00029F001E062D10401060E08D0CDEC29F0CD
:10440000060EEF6EFF0E145D07E1040E186F2EEC22
:1044100028F0070EEF6EA4D0AAEC29F0FF0E155D70
:1044200005E1046905690669076902D051EC29F0C4
:10443000CDEC29F0070EEF6E0301020E62EC2AF0BC
:10444000990E006E580E016E010E026E18C403F034
:10445000046A056A03AE02D0046805687EEC2AF09F
:104460000C0E0401185D0DE198EC2AF0450E726FF8
:10447000820E736F000EC9EC2AF098EC2AF04DEC16
:104480002AF00401185106E0180504E02EEC28F08B
:104490000B0E04D10B0E195D1BE00301360E726F7B
:1044A000820E736F000EC9EC2AF0750E006E580E66
:1044B000016E010E026E19C403F0046A056A03AEB0
:1044C00002D0046805687EEC2AF003014DEC2AF066
:1044D00014C4EEF01CEC54F0F350010B08E003019F
:1044E0001D0E726F820E736F000EC9EC2AF003016D
:1044F0000D0E726F820E736F000EC9EC2AF004016C
:1045000018050CE0E868041908E1E868051905E1F8
:10451000E868061902E1E868071907E00301040EDC
:10452000726F820E736F000E0DD00301FB0E726F5F
:10453000810E736F000EC6EC2AF0F70E726F810EBB
:10454000736F000EC6EC2AF04DEC2AF004011651F0
:1045500004E02EEC28F0080E02D0E7EC2AF0EF6E13
:104560000C01CE6BAAD01A0E126F040E136F1651E7
:104570005AE00301EA0E726F810E736F000EC9ECF0
:104580002AF0F5EC28F022E0200E0C01CC5D03E1CE
:1045900003012B0E14D0300ECC5D0FE3CC51390843
:1045A00003E2410ECC5D09E3CC515A0803E2610EEF
:1045B000CC5D03E3CC517A0804E26DEC2AF0626F23
:1045C00002D0CCCC62F3E4EC2AF0DBD703013D0E41
:1045D000626FE4EC2AF0F5EC28F01FE0200E0C01ED
:1045E000CC5D03E103012B0EF3D7300ECC5D0FE35E
:1045F000CC51390803E2410ECC5D09E3CC515A0895
:1046000003E2610ECC5D03E3CC517A0803E26DEC6A
:104610002AF0DED7CCCC62F3DCD703014DEC2AF0D4
:1046200004011607A4D7E7EC2AF0EF6E0C01CE6B5D
:104630004AD8000909E01DEC29F02EEC28F00B0EF9
:10464000EF6E0C01010ECE6FBDEC2AF0B2EC28F03B
:1046500034E10C01010ECE6F30D00C01010ECE6F93
:10466000BDEC2AF0DCEC29F0100EF35C000EF458DF
:1046700024E308C400F909C401F90AC402F90BC40F
:1046800003F9D3EC1BF004010C510D110E110F11A5
:1046900014E10C01CE6BCDEC29F0090EEF6E0DD0BC
:1046A000FF0E145D02E01DEC29F0FF0E155D02E027
:1046B00024EC29F090EC2AF0EF6A0C01CE5102E1D3
:1046C000E5EF1EF01200BDEC2AF0F3CF02FCF4CFB0
:1046D00003FCF3CF04F0F4CF05F0066A076A08EC98
:1046E00029F00401045D086EEE500559096EEE5084
:1046F00006590A6EEE5007590B6E0850F35C0950CC
:10470000F4580A5006580B50075807E202CC00F044
:1047100003CC01F0026A036A0DD008EC29F0045DB5
:10472000006EEE500559016EEE500659026EEE50C5
:104730000759036E00C000FC01C001FC0C010050D1
:10474000040100270C01015004010123000E022383
:1047500003230C01000ED8800055000E015530E2F5
:10476000400E005D000E015905E200CCD9F001CCED
:10477000DAF004D00001400ED96FDA6B0001050EAB
:10478000D76F0C0ED86F14C4D6F086EC52F0F3CF6E
:1047900002FCF4CF03FC0C01F350F41001E1010C16
:1047A00002CC66F303CC67F30301050E646F0C0EB5
:1047B000A7EC2AF00C010251005F0351015BC9D73D
:1047C00008EC29F00401041940E1EE5005193DE11F
:1047D000EE5006193AE1EE50071937E136E12EECBA
:1047E00028F00A0EEF6E0C6B0D6B0E6B0F6B000159
:1047F000D46BD56B14C4D3F04DEC52F00001040E11
:10480000D46F0C0ED56F14C4D3F04DEC52F00009E8
:1048100006E0A3EC29F07E0E0C01045DEFE1A3ECB1
:1048200029F00001080EDC6F040EDD6F15C4DBF00B
:10483000D4EC52F051EC29F0000907E104010469BD
:1048400005690669076924EC29F0000C0901055186
:1048500002E1ADEF24F0050502E134EF24F0020E91
:10486000055D01E1C9D81200040117BF1200060E50
:10487000AFEC29F0CDEC2AF054EC2AF0DDEC28F076
:10488000F3CF31FC030E0C013127FC0E3117326BD4
:10489000240E315D000E325903E3240E316F326B6A
:1048A000330E5B6F0C0E5C6F000ED8803155000E1E
:1048B000325526E2040E03017E6F7F6B5BCC7CF3E6
:1048C0005CCC7DF35FEC2AF0030E0601B16FB26B96
:1048D0005BCCAFF65CCCB0F6040E0601AD6FAE6BF0
:1048E0005BCCABF65CCCACF620EC64F0040E0C01B7
:1048F000315F000E325B030E5B27000E5C23D4D7C2
:10490000B9EC29F0EF6A316B326B330E5B6F0C0E32
:104910005C6F280E315D000E32590BE2B9EC29F0C4
:10492000EF503A0806E0312B000E32235B2B5C235C
:10493000F0D7B9EC29F05B2B000E5C23EF6A5BCC5F
:1049400004FE5CCC05FE0E01330E026F0C0E036FED
:1049500005EC2BF00401176F120054EC2AF037EC31
:104960002AF010C400F011C401F07E0ED880005669
:10497000040E0156020E005E000E015A0C0100509A
:10498000F35C0150F45802E3EDEF29F00C013351D0
:10499000341131E088DB3B0EB5EC2AF0F3CF31FC6B
:1049A000F4CF32FC0C013351F35C3451F45805E27E
:1049B00031CC7EF332CC7FF304D033CC7EF334CCD5
:1049C0007FF310C47CF311C47DF35FEC2AF0E6DBC7
:1049D0000C013351315D3451325908E2C0EC2AF0F8
:1049E00062DB200EB5EC2AF0BDDBF8E054EC2AF0D7
:1049F00037EC2AF0CBD7120054EC2AF0DEDBF3CFF1
:104A000031FCF4CF32FC0C010A0EF35C000EF458BA
:104A100005E30401020E186FAAEF29F031CC7EF3F2
:104A200032CC7FF30301330E7C6F0C0E7D6F5FEC95
:104A30002AF0F3CF31FCF4CF32FC330E0C01F32417
:104A4000E96E0C0EF420EA6EEF6A330EE66E0C0E81
:104A5000E66E4EEC89F0E552E55226C000F427C020
:104A600001F428C002F429C003F4120006C9E6FFCD
:104A700007C9E6FF1AEC2AF0F3CF3DFCF4CF3EFC69
:104A800006C93BFC07C93CFC06C939FC07C93AFC0E
:104A90000C013D513E1142E07FEC29F0000E3A231B
:104AA000EFCF3FFC3D073E5B3D0E3F5D03E0260E32
:104AB0003F5D03E14FDBEF6AEBD72B0E3F5D03E178
:104AC00049DB200E25D0250E3F5D24E1020E3D5D21
:104AD000000E3E5903E23D6B3E6BDAD77FEC29F0C6
:104AE000000E3A23EFCF41FC7FEC29F03A23EFCFC1
:104AF00040FC3D073E5B3D073E5B40CCBFF641CCF2
:104B0000C0F67FEC65F0E66E0C0124DBE552E75061
:104B1000EF6EBED71FDB3FCCEFFFBAD71BDBEF6AD0
:104B20003BCCE9FF3CCCEAFFEF6A3BCCF3FF3CCC4B
:104B3000F4FF120008C9E9FF09C9EAFFEF5020E0BD
:104B4000BEEC29F00AC9E6FF0BC9E6FFADEC90F018
:104B5000E552E552E552E55200090DE10AC9E6FFCA
:104B60000BC9E6FF1AEC2AF009010851F324006E84
:104B70000951F42058D303EC2AF003EC2AF0DAD7D9
:104B8000F36AF46A12000CC9E9FF0DC9EAFFEF509D
:104B900027E037DB27C000F028C001F029C002F071
:104BA000002A000E0122022200C0E6FF01C0E6FF3B
:104BB0003DEC2AF0E8DBE7EC8FF0036E070EE15ED8
:104BC0000350000908E11DDB09010C512724006E88
:104BD0000D51282028D30AEC2AF00AEC2AF0D3D76A
:104BE000F36AF46A120013C91CF914C91DF911C93A
:104BF0001AF912C91BF909013D0E196F46D80C01AB
:104C0000806F0901115112110BE011C9E9FF12C99E
:104C1000EAFFEF5005E011C906F912C907F926DFCE
:104C20000C018051120046DB260E196F2ED80C01A4
:104C3000806F020E805D17E18DEC2AF0B9EC2AF04E
:104C400004010051F3180FE1015101180CE1025168
:104C5000021809E10351031806E105E12BDB196B8A
:104C600014D80C01806F0901155116110BE015C9FC
:104C7000E9FF16C9EAFFEF5005E015C906F916C9A4
:104C800007F9F4DE0C01805112000901195106E008
:104C9000C8DB19C9A1F381DB94DB02D08DEC2AF0CB
:104CA000F3CF7EFCF4CF7FFC0C01F31C03E17F1DEE
:104CB00001E1020C0901020E1C5D000E1D5906E205
:104CC0001A511B1103E0A0EC2AF038D01A511B1125
:104CD00004E1A0EC2AF00C0143D0FEDA0C017E5175
:104CE000005C7F5101582EE21CC97EF31DC97FF381
:104CF0000301020E7E5F000E7F5BAEEC2AF01CC942
:104D000004F01DC905F0020E045E000E055A0450A1
:104D10000C017E5D03017E6F05500C017F5903017C
:104D20007F6F0301CDEC2AF03BDBD6DA09011A5183
:104D30000024E96E1B510120EA6EEF6A0C01010E9E
:104D40007D6F0FD025DBAEEC2AF009011A510C0162
:104D50007E25E96E09011B510C017F21EA6EEF6A85
:104D60007D6B0901195114E0C0EC2AF0006E016A54
:104D7000026A036A00AE03D001680268036800504B
:104D80000401005F0150015B0250025B0350035BB2
:104D90000C017D511200040118510A0A01E185D06D
:104DA000010A66E0020A01E0D4D0CBD9040E53DA3E
:104DB000E50E966F810E976F000E986FEEDAFDD9B3
:104DC000A9DA0C01F31C01E1421D44E041CC7EF361
:104DD00042CC7FF303017C6B7D6BDFDA55DB9ADB22
:104DE000EBDA0A0EF35C000EF45805E20C01412BDD
:104DF000000E4223010C0A0EB2DA310E7C6F0C0E4B
:104E00007D6FCBDA41DB0A0EE66EE66ADA0EE66EFD
:104E1000810EE66E000EE66E310EE66E0C0EA6D921
:104E200015E104010A0E186F77EC53F00401146FBA
:104E3000060E0001E76FE86B0001350EE56F0C0E02
:104E4000E66F14C4E4F097EC53F0020C04010B0E6F
:104E5000186F020C62DBF3CF7EF3F4CF7FF3030114
:104E6000040E7E5F000E7F5B030197DB99DA010C75
:104E700051DBF6D8F3D8EE52EFCF76F32CEC05F0F9
:104E8000640E0401005D000E0159000E0259000E6F
:104E900003595BE3D880000E0055000E0155000E4B
:104EA0000255800E035555E250D034DB33DA61DB16
:104EB000F3500401005DF4500159025002590350AF
:104EC000035904E200C441FC01C442FC0C01000E81
:104ED000D8804155000E42552CE2100E415D000E67
:104EE000425905E241CC7EF342CC7FF304D003016A
:104EF000100E7E6F7F6B0301310E7C6F0C0E7D6F89
:104F0000DEDAF3CF43FCF4CF44FCAAD80C01F35013
:104F1000415FF450425BF3CFE7F0F4CFE8F00001DB
:104F2000310EE56F0C0EE66F14C4E4F097EC53F00D
:104F3000CDD7040100510111021103110AE1000152
:104F4000010EE96FA6EC53F0040188D8070EEF6E4E
:104F5000000C010C04010C510D110E110F1114E184
:104F60001EC9CDF01FC9CEF020C9CFF056EC51F0CC
:104F70000C01446FFF0E445D01E1120044CCF9F0D6
:104F800016EC55F0F1D91AD00CC4D0F00DC4D1F004
:104F900002EC52F00C01446FFF0E445D01E112007F
:104FA0000001020EE36F0EC4DFF00FC4E0F0000159
:104FB000E16BE26B44CCDEF0E8EC52F0DEDAF3CFEA
:104FC00000FCF4CF01FC0C01000ED8800055000E4F
:104FD000015538E2400E005D000E015905E200CC9B
:104FE000D9F001CCDAF004D00001400ED96FDA6BB1
:104FF0000001040ED76F0C0ED86F44CCD6F086ECAF
:1050000052F0F3CF02FCF4CF03FC0C01F350F41088
:105010000AE144CCD2F042EC52F004010C6B0D6B6F
:105020000E6B0F6B120002CC66F303CC67F3030127
:10503000040E646F0C0E8BDA0C010251005F0351F9
:10504000015BC1D744CCF8F0E5EC54F026C00EF477
:1050500027C00FF444CCD2F042EF52F08351C4D1B8
:10506000ABD9D0EF29F004C028F005C029F04BECF3
:105070007FF024C003F025C004F026C005F00050E6
:105080002424F36E01502520F46E02502620F86E81
:10509000F4CFF7FFF3CFF6FF09001200EE52EFCF87
:1050A0007BF3A2EF05F0BDD903011200CEECAAF00C
:1050B00026C008F427C009F428C00AF429C00BF45C
:1050C0008A0E04010827F00E09231B0E0A23000E86
:1050D0000B231200EE52EFCF71F3DEEF04F071D923
:1050E000F3CFC8FCF4CFC9FC1200A4D965D9010ED6
:1050F0000026000E012200501200CEECAAF004019E
:105100000851265C006E09512758016E0A51285833
:10511000026E0B512958036EE834000E031812007A
:10512000EE52EFCF77F33BEF05F07F0D22DAFE0E64
:1051300000261E0E0122000E022203221200EE5152
:1051400053D103019F6B03019D6B9E6B03019B6B0E
:105150009C6B12003BCCE9FF3CCCEAFF3B2B000EE2
:105160003C23120029D9F350F4101200E66EE7EC4C
:105170008FF0006E070EE15E005000091200EE5243
:10518000EFCF61F36DEF03F0D880000E0054000EF6
:105190000154000E0254000E03541200F350040197
:1051A0001027F450112310C4E9FF11C4EAFF102B9B
:1051B000000E1123260EEF6E1200EE52EFCF95F384
:1051C00015EF08F03FD91A0EE926040EEA22EF5037
:1051D0002F0812007F0E0801D86FD96B0801000E4E
:1051E000D66F040ED76F23EF74F0040112C4E9FFE9
:1051F00013C4EAFF122B000E1323EFCFCCFCEF50A9
:1052000012003BD90AEC91F0E552E552E55212004A
:10521000000EE96E040EEA6EEE501200EE52EFCF71
:1052200060F32FEF03F0016E010E0026000E012245
:1052300000C0F3FF01C0F4FF120014C4D2F042EC2E
:1052400052F004011469120015C4D2F042EC52F07D
:105250000401156912000301996F9A6B0301120092
:10526000C82503017E6F000E0C01C92103017F6F69
:1052700003011200A6D848EF2AF00E011B0E006FA2
:10528000040E016FECEC2AF00401176F120000010C
:105290001B0ECB6F040ECC6FA3EC50F00401146F07
:1052A00012000001040EDC6F040EDD6F15C4DBF08C
:1052B000D4EF52F017C91CF918C91DF915C91AF90C
:1052C00016C91BF909011200EF6A09011A0E066FCF
:1052D000040E076F36EF25F01CC900F01DC901F060
:1052E000020E005E000E015A1200EE52EFCFB9F32B
:1052F00091EF15F0EE52EFCF78F365EF05F039CC72
:10530000E9FF3ACCEAFF392B1200030E2C6E2D6A0E
:105310002E6A1200F3CF41FCF4CF42FC120000C011
:10532000C1F801C0C2F893EF72F0580EE66E820E1B
:10533000E66E000EE66E1200EE52EFCF6EF3C3EC97
:1053400004F0030112000401002B000E01230223CC
:1053500003231200006B016B026B036B120003014D
:105360007E6F7F6B03011200F3CF0CF4F4CF0DF4CA
:1053700012005BCCE9FF5CCCEAFF120008C9E6FF33
:1053800009C9E6FF12000CC9E6FF0DC9E6FF1200CD
:105390007ECC7EF37FCC7FF3120004012EEF28F049
:1053A000026A036AF3500401005FF450015B02508B
:1053B000025B0350035B1200F3CF00F0F4CF01F067
:1053C0001200EE52EFCFA0F344EF09F0EE52EFCF10
:1053D00080F324EC06F0B2EF28F00401050E186FFC
:1053E0003DDE070EEF6E1200E96EEA6AD890E936EC
:1053F000EA367F0EE926040EEA22120086DF03C099
:1054000027F033EF28F0BADF70DE090108270150DA
:1054100009231200B8DF69DE09010C2701500D23B2
:1054200012000301A66B0301A46BA56B0301A26B21
:10543000A36B1200FCEC90F0E552E55212002EDE58
:1054400030EF28F0CACCE9FFCBCCEAFFE906000E2A
:10545000EA5A120094DECCCCC2F6AAEC65F0030145
:105460001200E66E1A0EE66E040EB6EF28F0A5DE08
:10547000F3CF33FCF4CF34FC12000EC9E6FF0FC9A2
:10548000E6FF10C9E6FF120009DE44DF30EF28F026
:10549000F3CFCAFCF4CFCBFC12004E0E726F580E45
:1054A000736F010EC9EF2AF04CDE020ED4DE4E0EF1
:1054B000966F580E976F010E986FCDEF29F06DDF44
:1054C0004EEF28F0BE6F0301BC6BBD6B010E0301F4
:1054D000BA6FBB6B62DF75EF29F00301250E626FB7
:1054E00073D8CCCCC1F69CEC65F00301626F55DF3C
:1054F0002AEF2AF0A16F51DF6FEF28F07FDFF5CFA1
:1055000072F30900F5CF73F30800F5CF74F345DFAC
:105510006AEF28F0A3DD90EF28F03FDF90EF28F04E
:105520009DDDEE52EFCF50F39DEC02F0CDEF29F070
:1055300003011A0E6F6F040E706F2FDF9CEF29F0BE
:1055400027DF03017C6B7D6B28DF1FEF2AF0656F7F
:1055500024DFEE52EFCF63F3C0EF03F01AC97CF300
:105560001BC97DF31ADF1FEF2AF0A16F16DFE1EFF1
:1055700029F022DF026A036A12000FDF0EEF29F022
:105580000301796B7A6B09DF7AEF29F002D8030106
:105590001200746F02DF6AEF28F07C6B7D6B5FEFA7
:1055A0002AF0C8CC7EF3C9CC7FF303011A0E7C6FBE
:1055B000040E7D6F5FEF2AF076DD200E7AEF2AF081
:1055C00072DD0A0E7AEF2AF0E8DEBFEF28F0030161
:1055D00064DFE3DE090E1200070EE66EE66A640E73
:1055E000E66E8E0EE66E000EF7EC37F001E1000C71
:1055F000040EE66EE66A5F0EE66E8E0EE66E000E36
:10560000F7EC37F001E1000C800C590EE66E8E0EBF
:10561000E66E000EE66E02CEE6FF03CEE6FFFEEC7F
:1056200037F013E14F0EE66E8E0EE66E000EE66E5C
:1056300004CEE6FF05CEE6FFCDEC90F0016E050E40
:10564000E15E0150000901E1800C000C140E000124
:10565000F66FF76B0001020EF46F0C0EF56F14C4B9
:10566000F3F0BBEC54F0090EE66EE66A450EE66E0A
:105670008E0EE66E000EE66E020EE66E0C0EE66E06
:10568000E7EC8FF0006E070EE15E0050000917E1B5
:1056900009013F0E0E6F8E0E0F6F000E106F090185
:1056A0001A0E0C6F040E0D6FC3EC25F0F3CF16FC31
:1056B000F4CF17FC0C011651171101E0FF000D0E7D
:1056C000E66EE66A310EE66E8E0EE66E000EE66E51
:1056D000020EE66E0C0EE66EE7EC8FF0006E070E23
:1056E000E15E0050000901E0BDD00C011E6B1F6B94
:1056F000206B216B09012C0E0E6F8E0E0F6F000EAA
:10570000106F09011A0E0C6F040E0D6FC3EC25F01B
:10571000F3CF1CFCF4CF1DFC0C011C511D1167E0E4
:105720000901230E0E6F8E0E0F6F000E106F090110
:105730001A0E0C6F040E0D6FC3EC25F0F3CF1AFC9C
:10574000F4CF1BFC0C01226B236B0C010C011A51D2
:105750000C012225E96E0C010C011B510C012321C7
:10576000EA6EEF503AE00C010C011A510C012225AF
:10577000E96E0C010C011B510C012321EA6EEF5064
:10578000D00F006E016A026A036A1ECC26F01FCC9D
:1057900027F020CC28F021CC29F00A0E2B6E2C6AA1
:1057A0002D6A2E6A66ECACF02250000100240C0138
:1057B0001E6F2350000101200C011F6F24500001B7
:1057C00002200C01206F2550000103200C01216FE5
:1057D0000C01222B000E2323B8D71ECCFBF61FCCC6
:1057E000FCF620CCFDF621CCFEF684ECABF00901F2
:1057F0001E0E0E6F8E0E0F6F000E106F09011A0E27
:105800000C6F040E0D6FC3EC25F0F3CF1CFCF4CF2E
:105810001DFC0C011C511D1125E00C010A0E246F0A
:105820000D0E256F266B0901240EB46F0C0EB56F9B
:105830003FECA8F00901160E0E6F8E0E0F6F000ED2
:10584000106F09011A0E0C6F040E0D6FC3EC25F0DA
:10585000F3CF18FCF4CF19FC18CCB4F919CCB5F976
:105860003FECA8F00C0EE66EE66A090EE66E8E0EB0
:10587000E66E000EE66E020EE66E0C0EE66EE7ECCD
:105880008FF0006E070EE15E0050000901E0B8D015
:105890009BCF32FC9B6A0901010E0E6F8E0E0F6FBB
:1058A000000E106F09011A0E0C6F040E0D6FC3EC81
:1058B00025F0F3CF27FCF4CF28FC27CCF5F928CC32
:1058C000F6F9C7EC91F026C029FC27C02AFC090193
:1058D000160E0E6F8E0E0F6F000E106F09011A0E4E
:1058E0000C6F040E0D6FC3EC25F0F3CF27FCF4CF43
:1058F00028FC27CCF5F928CCF6F9C7EC91F026C0A6
:105900002BFC27C02CFC0901FB0E0E6F8D0E0F6FB8
:10591000000E106F09011A0E0C6F040E0D6FC3EC10
:1059200025F0F3CF27FCF4CF28FC27CCF5F928CCC1
:10593000F6F9C7EC91F026C031FC0901F60E0E6FA6
:105940008D0E0F6F000E106F09011A0E0C6F040EF2
:105950000D6FC3EC25F0F3CF27FCF4CF28FC0C012E
:105960002751281129E00C013151040803E20C01F0
:10597000040E316F0C0131510901A66FA76B0901AB
:105980002D0EA46F0C0EA56F2BCCA2F92CCCA3F975
:1059900029CCA0F92ACCA1F9BFECA6F031CCF4F9BE
:1059A0000901E30EF26F080EF36F09012D0EF06F7F
:1059B0000C0EF16F95EC91F00901F00E0E6F8D0E4B
:1059C0000F6F000E106F09011A0E0C6F040E0D6F91
:1059D000C3EC25F0F3CF27FCF4CF28FC0C012751B2
:1059E00028110CE031CC9FF92BCC9DF92CCC9EF9E1
:1059F00029CC9BF92ACC9CF995ECA6F032CC9BFFE4
:105A00000C0EE66EE66AE30EE66E8D0EE66E000E96
:105A1000E66E020EE66E0C0EE66EE7EC8FF0006EA0
:105A2000070EE15E0050000901E080D00901FB0E85
:105A30000E6F8D0E0F6F000E106F09011A0E0C6F96
:105A4000040E0D6FC3EC25F0F3CF33FCF4CF34FC20
:105A500033CCF5F934CCF6F9C7EC91F026C039FC1B
:105A60000901F60E0E6F8D0E0F6F000E106F0901FB
:105A70001A0E0C6F040E0D6FC3EC25F0F3CF33FC40
:105A8000F4CF34FC0C013351341136E00C013951A0
:105A9000040803E20C01040E396FC80E0C013E6FBE
:105AA0003F6B0C013ECC00F03FCC01F03E07000EF6
:105AB0003F5B0050011006E00B0EE66E71ECADF09E
:105AC000E552EFD70C0139510901FA6FFB6B09015F
:105AD000350EF86F0C0EF96F03ECADF039CCF4F91C
