:0400000047EF00F0D6
:10000800FACF1CF0FBCF1DF0E9CF1EF0EACF1FF0AE
:10001800E1CF20F0E2CF21F0D9CF22F0DACF23F0E0
:10002800F3CF24F0F4CF25F0F6CF26F0F7CF27F062
:10003800F8CF28F0F5CF29F09EAA04D0AECF19F05A
:100048001A6A9E9AF2A402D08980F29429C0F5FF18
:1000580028C0F8FF27C0F7FF26C0F6FF25C0F4FF29
:1000680024C0F3FF23C0DAFF22C0D9FF21C0E2FF7A
:1000780020C0E1FF1FC0EAFF1EC0E9FF1DC0FBFF53
:100088001CC0FAFF110084EF02F00BEC02F0D35011
:100098008F0B5009D36ED350FC0B0209D36EF5ECCD
:1000A80001F0899421EC02F06EEC01F00CA01DD057
:1000B800000E106E050E0F6E0DD0820E2D6EDE0E28
:1000C800E82EFED72D2EFCD7FF0E0F240F6EFF0E45
:1000D8001020106E1050800AF36E800EF35C020E32
:1000E800D8B40F5CD8B0E9D70C908DEC02F0ADEC29
:1000F80002F0A8EC02F0DEEC01F079EC02F0030E5D
:10010800E82EFED700F0A3EC01F02FEC01F01BA4C1
:1001180022D095EC02F00D0E2D6EFC0EE82EFED7C7
:100128002D2EFCD70E50800A800FEA0ED8B40D5C35
:10013800D8A003D00B8A89840B9E0E50800A800FAA
:10014800FD0ED8B40D5CD8A00BD0000E0E6E000EBC
:100158000D6E0B8E05D0000E0E6E000E0D6E89947E
:10016800EAEC00F018501710D8A412D00BA203D054
:10017800C3EC01F015D00BA003D0C3EC01F010D0F4
:100188000BA403D0C3EC01F00BD09CEC02F008D018
:100198001850800A800F500ED8B4175CD8B00B8C5A
:1001A8000BAC12D0C20E2D6E800EE82EFED72D2E6F
:1001B800FCD700D08984C20E2D6E800EE82EFED7A3
:1001C8002D2EFCD700D089940B9070D70BAC03D0A0
:1001D80052EC02F012000BB40BB005D00CB403D0F3
:1001E80043EC02F012000BB20BB005D00CB403D0F4
:1001F80034EC02F012000BA005D034EC02F043EC12
:1002080002F012000BAE03D052EC02F012000BBA4F
:100218000CB405D034EC02F06CEC02F012000BA820
:1002280005D05FEC02F043EC02F012000BB60CB400
:1002380005D05FEC02F06CEC02F012000CA603D0C3
:1002480043EC02F012000CA4120034EC02F043EC70
:1002580002F00C9412001450800A800FAF0ED8B42C
:10026800135CD8B00BBC02D01B940B861450800AC8
:10027800F36E800EF35CAF0ED8B4135CD8B00AD01E
:100288001450800A800F410ED8B4135CD8A002D055
:100298001B840B8E1450800AF36E800EF35C400EA4
:1002A800D8B4135CD8A00BBC0AD01450800A800FB5
:1002B800020ED8B4135CD8A002D01B940B80145043
:1002C800800A800F800ED8B4135CD8A012000F4AA1
:1002D800102A1200000E2B6EAA0E2A6EA3EC02F052
:1002E800410E2C6EEE0EE82EFED72C2EFCD700D039
:1002F800000E2B6E840E2A6EA3EC02F0000E2B6EFD
:10030800010E2A6EA3EC02F0000E2B6E020E2A6E6E
:10031800A3EC02F0000E2B6E550E2A6EA3EC02F031
:10032800000E2B6E2A0E2A6EA3EC02F0410E2C6EE4
:10033800EE0EE82EFED72C2EFCD700D0120080A29D
:10034800FED7000ED76E000ED66E000ED66E000ECB
:10035800D76EF294D596D550F80B0209D56ED59A7A
:10036800D59CD58E80A202D0F2A4FCD7D6CF13F0AC
:10037800D7CF14F0D59EF2B48984F29412001850A5
:100388001710D8A40BD09D90000ECF6E000ECE6E25
:100398009E90390ECD6E174A182A12009EA01200A0
:1003A800000ECF6E000ECE6E9E90390ECD6E174A9F
:1003B800182A12001BA003D00B840C800C941BB2CB
:1003C80002D00CA604D00B820C800C940C961BA0B7
:1003D80012001BA212000BBC12000B800C800C86B2
:1003E8001200AC84AC9CAC8AAB8EAB9CAB88190E6B
:1003F800AF6E9E9A9D8AF28CF28EF29A410E2A6E08
:10040800EE0EE82EFED72A2EFCD700D012009290CE
:10041800928292949288929A000E7E6E000E7F6E5F
:100428009398938A939C939E9480948294949496A0
:100438009498949A948C948E1200899A410E2A6EFC
:10044800EE0EE82EFED72A2EFCD700D0898AB60EEB
:100458002A6ED00EE82EFED72A2EFCD700D0120026
:10046800000E2B6E8A0E2A6EA3EC02F0000E2B6E85
:10047800300E2A6EA3EC02F0C3EC01F01200000E5D
:100488002B6E8C0E2A6EA3EC02F0000E2B6E300E33
:100498002A6EA3EC02F0C3EC01F01200000E2B6EE2
:1004A800860E2A6EA3EC02F0000E2B6E870E2A6EC3
:1004B800A3EC02F01200000E2B6E880E2A6EA3EC3D
:1004C80002F0000E2B6E300E2A6EA3EC02F0120022
:1004D800000E2B6E8E0E2A6EA3EC02F0000E2B6E11
:1004E800300E2A6EA3EC02F012008980100E2A6EDC
:1004F800940EE82EFED72A2EFCD700D08990120041
:1005080000EE01F01B0EEE6AE806FDE1000149EF7E
:1005180000F00B960B900B9A0B940B980B920B9E7A
:1005280012000D4A0E2AFA0E00F0E82EFDD712002E
:10053800000ECF6E000ECE6E000ECD6E1200ACA275
:10054800FED72AC0ADFF12001B9282A212001B82A6
:0C05580012001B9082A012001B801200F9
:020000040020DA
:08000000FFFFFFFFFFFFFFFF00
:020000040030CA
:0E000000FF281B1EFF8081FF03C003E00340AA
:00000001FF
