:020000040000FA
:0600000065EF07F012009D
:020006000000F8
:0600080004EF09F01200F4
:080018000CEF09F070EF07F096
:020020001200CC
:0E0022000001E46BE869E969EA69E76B010E29
:10003000EB6F12000001E4511EE1040108BF93D1EF
:100040000001400EFD6F0001600EFB6F000EFC6FA3
:1000500026EC06F00001010EE46FEC6B400EEC5D47
:1000600001E381D1EC51EA6AA00FE96E040EEA22A5
:10007000EF6AEC2BF3D700016051080A01E170D15F
:10008000040A01E131D1050A01E12CD10E0A01E196
:10009000F5D0010A01E1ECD0030A01E194D0010A94
:1000A0004CE0070A40E0010A01E05BD10401020EC6
:1000B000A06F3A0EA16F010EA26FA36FA46B120E78
:1000C000A56FA66BA76BA86B6E0EA96FAA6BAB6B27
:1000D000030EAC6FAD6BAE6B300EAF6FB06B0E0E30
:1000E000B16FB26BB36BB46B040EB56FB66BB76B1D
:1000F000200EB86FB96B080EBA6FBB6BBC6BBD6BD3
:10010000020EBE6FBF6BC06BF00EC16FC26BC36BD4
:10011000010EC46FC56BC66BC769A50ED96F04010C
:100120000CBF21D1DCD00001010EEB6F0001615149
:1001300001E013D10001EB6B10D1480E0001E56F17
:10014000E66BFC0EE55D010EE6591FE22FDAE5C015
:1001500000F0E6C001F0026A060E1F0BE5C0F6FFD4
:10016000E6C0F7FF02C0F8FF06E0D890F636F73693
:10017000F836E806FAE1940EA66E24DA6BEC06F087
:100180000001E52B000EE623DCD7EC6BECC0A9FFE9
:10019000A868040EA66E6BEC06F014DA0001EC51B0
:1001A000EC2B006E016A026AFF0E005C000E015823
:1001B000000E0258EBE3F66AF76A200EF86E940E12
:1001C000A66E00DACAD0300E635D06E10001EB5185
:1001D00001E0C3D092D9C1D0F00E635D02E1B3D982
:1001E000BCD0E8680001E8190CE1E868E91909E108
:1001F000E868EA1906E161C0E8F062C0E9F063C0AE
:10020000EAF0E80EE96E000EEA6EEE5000016119A8
:1002100001E0A3D0EE50621901E09FD0EE506319C7
:1002200001E09BD001E099D00001EC6B0001655129
:100230000001EC5D01E391D0BDD9660FE96E000EBF
:10024000EA22EF50E66EE751EA6AA10FE96E000E6E
:10025000EA22E552E750EF6EE72BE82B000EE92388
:10026000EA23200EE75D01E1E4D80001EC2BDED7A4
:10027000E0D80001E869E969EA6970D00401070E75
:10028000A06F61C0A1F462C0A2F463C0A3F464C013
:10029000A4F465C0A5F461C0F6FF62C0F7FF63C0B7
:1002A000F8FF0001EC6B000165510001EC5D14E208
:1002B000F00E0001635D0AE161510001EC25A96EB9
:1002C000A66AA68084D9A8CFEFFF04D071D97FD9C0
:1002D000F5CFEFFFEC2BE7D704010CBF44D00001B2
:1002E000400E33D041D839D004010C0EA06F010E5E
:1002F000A16FA26F160EF66E100EF76E0900F5CF05
:10030000A3F40A00F5CFA4F4060EA56F100EA66F95
:10031000A76BA86B0D0EA96F600EAA6F400EAB6F96
:10032000AC6BAD6BAE6BAF69B069B169B269B36B01
:10033000B469B569B66BB769B869B969BA69BB69B7
:10034000BC6904010CBF0FD00001F96F0001A00EC1
:10035000F76F040EF86F00EC06F00001E46B12007A
:1003600050D80001E46B1200F66A100EF76EF86ABE
:100370000001ED6B400E0001ED5D0DE20900000192
:10038000ED51EA6AA10FE96E000EEA22F5CFEFFF08
:100390000001ED2BEFD700010D0EA76F0001600EDD
:1003A000A86FF66A100EF76EF86A940EA66E00013A
:1003B000B50EF36FE8D83F0EF66E100EF76EF86AC2
:1003C00000013F0EED6F0001ED51EA6AA10FE96EE9
:1003D000000EEA22EF50F56E0C000001ED511F0BEC
:1003E00007E1E4D8A40EA66E0001B50EF36FCBD8DA
:1003F0000A000001ED5101E103D00001ED07E3D750
:10040000120004D8FF000000000012000001FE6985
:10041000FF690001FEC000F0FFC001F0FE07000E02
:10042000FF5B0050011004E06092606ABFD8F1D712
:1004300012000001EF6BE7C000F0016A026A005091
:100440000001E85DF66E01500001E959F76E0250B7
:100450000001EA59F86E1F0EF6140001F06FE00E6D
:10046000F6160001EE6B200E0001EE5D1FE20001AA
:10047000F05115E10001E7510FE00001EF51EA6A88
:10048000A10FE96E000EEA22EF50F56E0D0000019B
:10049000EF2B0001E70702D0F5680D0004D0F568E6
:1004A0000D000001F0070001EE2BDDD70A00A40EBD
:1004B000A66E0001B50EF36F66D80001EE6B000169
:1004C000E7510001EE5D18E20001EF510001EE2559
:1004D000EA6AA10FE96E000EEA22EF50E66E000113
:1004E000EE51EA6AA10FE96E000EEA22E552E750EA
:1004F000EF6E0001EE2BE3D7120061C0F6FF62C081
:10050000F7FF63C0F8FF0001F16B000165510001C6
:10051000F15D18E23A0E0001D88065550001F12521
:10052000EA6A660FE96E000EEA22EF50F56E0C00E3
:10053000C40EA66E0001B50EF36F25D809000001A8
:10054000F12BE3D712000001F26B000165510001AD
:10055000F25D18E2000161510001F225A96E3A0E28
:100560000001D88065550001F225EA6A660FE96E40
:10057000000EEA22EF50A86E040EA66E23D80001EA
:10058000F22BE3D71200F29EB50E0001F35D05E0F9
:10059000030ED36E0300FED7FF00550EA76EAA0E02
:1005A000A76EA682A6B2FED7A6941200040012007F
:1005B000090012003A0E0001D88065550001EC25B3
:1005C000EA6A12000001B50EF36FC3EF02F0F2DF2A
:0A05D000A60FE96E040EEA221200E5
:0605DA00615033E165965B
:1005E000040100513C0BE842E8420D0829E1180ED5
:1005F000021924E1040E031921E1100E026F040E0A
:10060000036F0401EA6BEA51006E016A080E005C98
:10061000000E015813E2EA51EA6A180FE96E040E5F
:10062000EA22EF50E66EEA51EA6A100FE96E040E14
:10063000EA22E552E750EF6EEA2BE5D70AD8010C23
:100640003AD8010C040E615C03E165964BD8010CAD
:10065000000C040104BF046B0401E96BE16BE26B65
:10066000E76BE86B49EC04F00401EB6BEB51006EB7
:10067000016A010E005C000E01581BE2E25119E113
:10068000EB51F66EF76AD890F636F736C80EF626B6
:100690000E0EF7220900F5CF00F00800F5CF01F0AB
:1006A00004D001C0FAFF0050F96EFBDF0401EB2B10
:1006B000DDD7F1EF03F0020E0401E15D0EE178D821
:1006C0000401180E026F040E036F080E016F00BDC7
:1006D00002D0C80E05D0880E03D0BCD8CBD88C0E63
:1006E000006F1200040E0401F55D09E112C463FFFE
:1006F0006350000802E2050E01D0030EF56F0401FD
:10070000E10510E111D8020E0401E95D03E10401E5
:10071000840E06D0040104BD02D0C80E01D0880E9C
:10072000046F12002AEF04F00401080EE75D000ECA
:10073000E8590DE2E7C4ECF4E8C4EDF4E95102E154
:10074000010E03D0E90506E1020EE96F03D0080EA1
:10075000EC6FED6B0401049304910401ED5104016D
:100760000413ECC405F40401EC51E75DE76FED51AF
:10077000E859E86F180EE56F040EE66F0401F6A362
:100780000ED00401EC51ED1112E0E3C4F6FFE4C415
:10079000F7FF0800F55063D8EC07ED5BF2D70401D2
:1007A000EC51ED1104E06ED8EC07ED5BF8D71200C8
:1007B000030E040100150401EF6F01C4EEF4E751CC
:1007C000EE25E76FE851EF21E86F180EE36F040E96
:1007D000E46FEE51EF1104E055D8EE07EF5BF9D767
:1007E000120060980401E25105E144D8840E006FC4
:1007F00004011DD0040110AF1CD00401E751040115
:10080000165D0401E8510401175904E216C4E7F427
:1008100017C4E8F489DF0401010EE16F2BD8800EC4
:10082000006F0401180E066F040E076FC80E046FE8
:1008300012000401020EE16F0401056BC80E046F83
:100840000401080E016F180E026F040E036FC80E2C
:10085000006F12000401E16B0401046B1200E5C497
:10086000E9FFE6C4EAFFEF6EE52B000EE623E32B7B
:10087000E42312000401080E016F100E026F040E33
:10088000036F1200E3C4E9FFE4C4EAFFEF502FEF67
:0208900004F072
:0E08920004011051600BE842E842E842E842DF
:1008A000E842000901E012001151070A40E00B0A7A
:1008B0003EE0070A33E0010A23E00B0A1FE0020AC8
:1008C0001DE0030A19E0080A10E0010A0CE00F0A13
:1008D00008E0030A01E012000DD90401040EF56FCF
:1008E000120098EF04F0CFEF04F004D90401F70EE2
:1008F000E36F040EE46F0CD0EEEF04F01EEF05F092
:10090000FDD80401E36FE46BF80EE327040EE42343
:100910000401F6930401010EE76F1200EFD8EA6AB2
:10092000F80FE96E040EEA2212C4EFFF1200120063
:10093000800E0401105D32E11351030A1FE0010A29
:100940000AE0030A29E1D6D80401080EE36F0E0E6F
:10095000E46F120E1ED0B4D8BE0EF6260E0EC2D80C
:10096000020E0401F76AE325F66EE451F72209004E
:10097000F5CFE7F40A00F5CFE8F40ED0A1D8C20E07
:10098000F6260E0EAFD8E3C4F6FFE4C4F7FF080066
:10099000F5500401E76FE86B0401F6831200AAD852
:1009A0006B6A6C6A6D6A6E6A6F6A706A716A04015A
:1009B000F46F0401F80EF26F040EF36FF8EC06F01A
:1009C00012C4F7F40401125104E10401050EF56F9D
:1009D00012000401060EF56FEBEF05F00401186B31
:1009E000196B040110511F0B020A0DE0030A09E004
:1009F000010A16E17FD80401F6A112D00401188380
:100A00000FD078D80DD050D801E0010E62D8E5C4DF
:100A1000E9FFEA6EEF50040B03E00401010E186FCA
:100A20000401E2050AE10401180EE36F040EE46F0D
:100A30000401F6930401020EE76F1200040112058F
:100A40000EE110511F0B00090AE154D8030E0401F6
:100A5000115D03E10401F68102D00401F691040165
:100A6000125121E110511F0B02081DE114510F0B0F
:100A7000000919E019D801E0010E2BD8030E04017A
:100A8000115D02E1840E03D014AF07D0400EE5C41F
:100A9000E9FFE6C4EAFFEF6E1200880EE5C4E9FF45
:100AA000E6C4EAFFEF6E120029D80F0B080DF350D1
:100AB000016A000F006E040E01221451800B120017
:100AC00019D804011251F66EF76AD890F636F73647
:100AD0001200040DF35004010024E56F000E012004
:100AE000E66F1200F7220900F5CFE3F40A00F5CF14
:100AF000E4F412000401010EE26F1200FBDF0401B6
:040B0000145112007A
:0C0B0400040110511F0B010801E0120059
:100B1000145101E01200060E115D24E11351230A65
:100B20001FE0010A0DE0030A1BE1BDD80401F7052F
:100B300005E104012C0EE36F0E0EE46F090E0DD0DB
:100B4000B2D80401F70505E10401A10EE36F0E0E12
:100B5000E46F0401F70504E11D0E0401E76FE86B83
:100B60000401F68304011051600BE842E842E842B8
:100B7000E842E842010801E0120011510B0A25E0A9
:100B8000080A17E0090A11E0080A09E00B0A05E063
:100B9000080A01E01200E9EF05F0EAEF05F083D85A
:100BA0000401F40EE36F000E09D07DD813C4F4F0F5
:100BB000120079D80401F50EE36F000EE46F040112
:100BC000F6930401010EE76F12006DD812C4F5F020
:100BD0001200120012000001F66B1E0E6B6E040173
:100BE000400E096F200E0A6F040E0B6F880E086FFF
:100BF0000401600E0E6F040E0F6F400E0C6F12009A
:100C00000001F951400802E2400EF96FFA6BF95108
:100C1000FA5D13E2FA51EA6AF725E96EF851EA2221
:100C2000EF50E66EFA51EA6A600FE96E040EEA22AE
:100C3000E552E750EF6EFA2BEAD7F9C00DF4400EFB
:100C400004010C170C7D880E0C1312000001F66BCA
:100C5000040108BF25D009510001D880FD5502E2EA
:100C600009C4FDF0F66BFD51F65D13E2F651EA6A38
:100C7000200FE96E040EEA22EF50E66EF651EA6AA2
:100C8000FB25E96EFC51EA22E552E750EF6EF62BA8
:100C9000EAD70401400E096F0817087D880E081373
:0E0CA0000001F65112000401020EE26F120074
:020CAE0060B62E
:100CB00006D0606A646A60860401010EF56F040163
:100CC000F50508E160BA06D0656A646A64806488E4
:100CD000020EF56F12000401F55101E1120065B436
:100CE00046D860B2120065B059D865B817D865BA51
:100CF00045D8030E0401F55D01E212000401F06B1A
:100D0000040EF05D0AE265A608D0EDEC02F00009E1
:100D100001E165960401F02BF3D7120064CFF1F4E2
:100D2000040E646E659860828A90A494A384030084
:100D3000A450040B05E1D050080B02E10300F8D7E2
:100D4000A3940401F15164120001D50EFE6F020E4E
:100D5000FF6F0001FEC000F0FFC001F0FE07000EB3
:100D6000FF5B0050011002E00400F3D71200609214
:100D7000649465A402D06594FCD712006AA00CD0DC
:100D8000800E0401005D07E1840E0401045D03E1AF
:100D900004018C0E006F6A90659A1200676A656A9A
:100DA0009F0E666E7B0E646E636A6B6A6C6A6D6A18
:100DB0006E6A6F6A706A716A160E6A6E65A604D0F2
:100DC0006596D6EC02F0FAD760982AEC04F004019C
:100DD000080E016F100E026F040E036F8C0E006F71
:100DE0000401F6910401F76B0401030EF56F120084
:100DF000F2C4E9FFF3C4EAFF0401F45104E0EE6A2F
:080E00000401F407F9D7120008
:080E08001201000200000008C5
:100E1000D8043C000101010200010902290001017E
:100E200000C0320904000002030000000921110182
:100E30000001221D00070581034000010705010391
:100E40004000010403090434034D0069006300728B
:100E5000006F0063006800690070002000540065A6
:100E600000630068006E006F006C006F006700791F
:100E700000200049006E0063002E00260348004950
:100E80000044002000550053004200200042006F43
:100E9000006F0074006C006F0061006400650072F8
:100EA000000600FF0901A10119012940150026FFD4
:100EB00000750895408100190129409100C01A0E63
:0A0EC0001A0E430E470E7B0E040BC2
:060ECA000F015D95948408
:100ED00082A403D00FEF09F002D070EF07F01200E8
:100EE000F26A13EE00F023EE00F0F86AFC6A60A6E6
:100EF00002D006EC02F010D8040057EC06F06BECC0
:100F000006F0060E0401F55D05E16050020B02E1FA
:100F10001AEC00F0F1D71200800E9B6E700ED36EAB
:100F2000100ED26ED2AEFED7900EB56E140E626E5B
:100F30000401F56B0401F66B0401F76B11EF00F08F
:040F40001200120089
:0C0F4400000EF36E00EE00F0080E01D865
:100F50001200EA6002D0EE6AFCD7F350E96012009A
:040F6000EE6AFCD762
:02121E00FFD7F8
:020000040030CA
:0100000021DE
:0100010008F6
:010002001FDE
:010003003EBE
:01000500D129
:010006008178
:00000001FF
