:020000040000FA
:0400000000000D29C6
:040004000034003490
:08000800A0140D29831203135B
:10001000850186018701031730309E009F018316FA
:1000200085010B308500F0308600FF30870070308E
:100030009F00831283160313A4309800193099008F
:1000400083120313903098008316031370309F00BF
:10005000831203171E169E168312031308008312C1
:100060000313990083160313981C34288312031377
:1000700008008C1E39281A08831203130800831203
:10008000031311309F009F1403139F1845281E0867
:10009000A9008312031383120313080083120313AE
:1000A00015309F009F1403139F1854281E08A900A1
:1000B00083120313831203130800A201A301A401F6
:1000C000A501A601A701A91F67280530A307291FBD
:1000D0006D280230A3070530A407A91E752801303A
:1000E000A3070230A4070530A507291E7D28063086
:1000F000A4070230A5070530A607A91D87280330ED
:10010000A4070130A5070230A6070530A707291D5F
:1001100091280130A4070530A5070630A607033053
:10012000A707A91C99280730A5070830A6070130A2
:10013000A707291CA1280330A5070930A60701300D
:10014000A7070A30A60AA7020318A228A603A70732
:10015000A50AA6020318A828A503A607A40AA502B3
:100160000318AE28A403A507A30AA4020318B42801
:10017000A303A407A20AA3020318BA28A203A30791
:100180003030A207A307A407A507A607A707831275
:100190000313080000000800000008000719A0145D
:1001A000071DA01083120313080083120313871D79
:1001B0002014000020180515000083120313080006
:1001C0002B302F2020183130201C30302F20A01849
:1001D0003130A01C30302F202B302F2083120313FE
:1001E00008005D2023082F2024082F2025082F2019
:1001F00026082F2083120313080083120313AA0179
:10020000871A2A14000083120313080083120313B1
:10021000AA01000083120313080083120313A10133
:10022000A10B102900000620A001A80100008312E4
:100230000313AA01D5208516E0203F20F1204E208F
:10024000F12030302F2030302F2030302F20303030
:100250002F2030302F20FD2030302A1A31302F202F
:100260003030AA1A31302F20AA0106213030AA18C6
:10027000313000002F2030302A18313000002F207C
:1002800030302A1931302F203030AA1931302F2048
:100290002D302F200D302F20CE208512A101A10B53
:1002A0004F290000A101A10B53290000A101A10BBE
:1002B00057290000A101A10B5B290000A101A10B9E
:1002C0005F290000A101A10B63290000A101A10B7E
:1002D00067290000A101A10B6B290000A101A10B5E
:1002E0006F290000A101A10B73290000A101A10B3E
:1002F00077290000A101A10B7B290000A101A10B1E
:100300007F290000A101A10B83290000A101A10BFD
:1003100087290000A101A10B8B290000A101A10BDD
:0E0320008F290000A101A10B932900001629CE
:02400E00C430BC
:00000001FF
